:041808008C310C2CE7
:101810007E148C317E10090020008C310F2CFC01CD
:10182000FD01A73084000030850037309031002062
:101830008C31203084000130850040309031002010
:101840008C31A03084000130850040309031002080
:101850008C312030840002308500403090310020EF
:101860008C31A0308400023085004030903100205F
:101870008C317E1020009C31B62C7908F10078085C
:10188000F0000030F200F3000730F4000030F50003
:101890009A3176228C3120000D0D0D0D01399931D0
:1018A000DF218C312000DC000E0D0E0D0139993145
:1018B000DF218C312000DD000E0E890C890C0139EE
:1018C0009931DF218C312000DE000D0E0139993174
:1018D000DF218C312000DF00DB015B089D31F62524
:1018E0008C31003A031D752C762C772CA92C0030F6
:1018F000210047190130F00020005B089A31ED22E9
:101900008C312000DA005A080319872C882CA92C66
:101910000F305A02031C8D2C8E2C8F2CA92C5A08A8
:10192000003E840099300318013E85000008D00075
:101930005A08F13E840098300318013E85000008E3
:10194000D1005008780786000030793D87005108A3
:10195000810401302000DB0708305B02031CB12C3E
:10196000B22C6D2C78088600870142310108F039CD
:101970000838810078088600870143318030810073
:10198000780886008701443180308100780886001D
:101990008701453180308100780886008701463113
:1019A00080308100CF2D20005E080319D82CD92C5F
:1019B000DF2C78088600870143318101EA2C5F081B
:1019C0000319E32CE42CEA2C7808860087014331C4
:1019D000FF3081005C080319EE2CEF2CF52C780801
:1019E0008600870144318101DC2D5D080319F92C43
:1019F000FA2CDC2D7808860087014431FF30810005
:101A0000DC2D20005C080319062D072D152D5E081E
:101A100003190B2D0C2D152D7808860087014231F6
:101A20000108F03907388100DC2D5C080319192DF5
:101A30001A2D282D5F0803191E2D1F2D282D78081B
:101A40008600870142310108F03901388100DC2D20
:101A50005D0803192C2D2D2D3B2D5E080319312D0A
:101A6000322D3B2D78088600870142310108F0397C
:101A700005388100DC2D5D0803193F2D402D4E2DCA
:101A80005F080319442D452D4E2D780886008701E7
:101A900042310108F03903388100DC2D5C0803195C
:101AA000522D532D5A2D7808860087014231F0308F
:101AB0008105DC2D5F0803195E2D5F2D682D7808E8
:101AC0008600870142310108F03902388100DC2D9F
:101AD0005D0803196C2D6D2D762D78088600870121
:101AE00042310108F03904388100DC2D5E08031909
:101AF0007A2D7B2D842D78088600870142310108DC
:101B0000F03906388100DC2D7808860087014231E3
:101B10000108F03908388100DC2D20005E08031D23
:101B2000922D932DA62D5F08031D972D982D9D2D89
:101B30008030D4000030D500A12DFF30D40000301B
:101B4000D5005508D3005408D200A82DD201D301E6
:101B50007808860087014531520881005C08031D22
:101B6000B22DB32DC62D5D08031DB72DB82DBD2D8B
:101B70008030D8000030D900C12DFF30D8000030AF
:101B8000D9005908D7005808D600C82DD601D7016A
:101B9000780886008701463156088100DC2D210037
:101BA00047080339003A0319D32C013A0319012DD0
:101BB000033A03198D2DDC2D080020004203031D7C
:101BC000E22DE32DF92D40081F39003A031DE92DC0
:101BD000EA2DF92D2100B017033020004106031D26
:101BE000F22DF32DF72D01302100D200F92D210027
:101BF000D20120004208031DFE2DFF2D2B2F40088F
:101C00001F39023A031D052E062E2B2F44080F39CB
:101C1000003A03190C2E0D2E2B2F44080F39D70034
:101C2000023057020318152E162E2B2F20302100BC
:101C30005706031D1C2E1D2E2B2FB0172000C41B72
:101C4000222E232E3A2E44080F39D7000130D735E3
:101C5000890B272E5708BB3E86008701403FDB00DB
:101C6000413FDC0044080F39C13E8600870101086E
:101C7000DA00502E44080F39D7000130D735890BD0
:101C80003E2E5708B73E86008701403FDB00413FAC
:101C9000DC0044080F39C33E860087010108DA00E2
:101CA0005A18532E542E5F2EFB30D700FF30D80029
:101CB0005B085705DB005C085805DC00652E043026
:101CC0005B04DB0000305C04DC00C41B682E692E62
:101CD000792E44080F39D7000130D735890B6D2E86
:101CE0005708BB3E860087015B08C03F5C08C13FC8
:101CF000882E44080F39D7000130D735890B7D2E47
:101D00005708B73E860087015B08C03F5C08C13FAB
:101D100003304106031D8D2E8E2EB22E5B088600E9
:101D20005C088700811F952E962EA72EC41B992E26
:101D30009A2EA12E44080F39C13E860087018114D6
:101D4000A72E44080F39C33E8600870181145B0823
:101D500086005C08870001155B0886005C08870028
:101D600081172B2F04305B06DB0000305C06DC00A3
:101D70005B0886005C088700811FBF2EC02EDB2E0B
:101D80005B0886005C0887007F3081055B08860061
:101D90005C08870001170530D1000030D2005C08D4
:101DA000D4005B08D3000230D5000030D6009C314F
:101DB0007A248D31E02E5B0886005C0887000117CD
:101DC000043020005B06DB0000305C06DC00DA1823
:101DD000EA2EEB2EF32E5B0886005C088700811F3D
:101DE000F22EF32E1A2FC41BF62EF72EFE2E4408C9
:101DF0000F39C13E860087018110042F44080F3936
:101E0000C33E8600870181105B0886005C0887005E
:101E10003B3081050530D1000030D2005C08D40091
:101E20005B08D3000230D5000030D6009C317A2404
:101E30008D31202F5B0886005C0887003B308105D0
:101E4000200044080F39983ED900590886000E300A
:101E50008700FE30810508002100560A86008701B0
:101E600001082000ED006D08E800E9016908210083
:101E70002B02031D3F2F2000680821002A020318AF
:101E8000422F432F462F2A082000ED0020006D0826
:101E9000E800E90168082100AA0220006908210081
:101EA000AB3B2000EC01682F2100270886002808A2
:101EB000870020006C08483E8400850100088100EE
:101EC00001302100A7070030A83D01302000EC07B9
:101ED0006D086C02031C6D2F6E2F542F21002A08F1
:101EE0002B040319742F752FB22F4508860046085E
:101EF000870041310830810048302000E800003080
:101F0000E900FF306805EA007F306905EB00210039
:101F10004508860046088700423120006A08C03F15
:101F20006B08C13F2100560886008701011B992FCD
:101F30009A2FA62F45088600460887004830810062
:101F400045088600460887008117EE2F4508860061
:101F5000460887000830810045088600460887004B
:101F60008117EE2F4508860046088700413108306A
:101F7000810040302000E8000030E90021004508E1
:101F8000860046088700423120006808C03F690883
:101F9000C13F2100450886004608870004308100C3
:101FA000450886004608870081172C082D04031970
:101FB000DA2FDB2FE42F0530A73E86008701413F53
:101FC0008A00403F0A008F312100A9134D08031DEC
:101FD000EA2FEB2FEE2F9F311B278F3108000130A6
:101FE000F00023009518F52FF62FFB2F1518F92F69
:101FF000FA2FFB2FF001700808002300951108004C
:10200000640080010131890B012800342D3021004A
:10201000CE005C08FD39031D0E280F284E285C08F1
:10202000DE000130DE36890B12285E083F39DF0002
:102030000230DF35890B19285F08203ED60056088C
:10204000C500C60104304506C50000304606C6007E
:10205000560886008701010C890C0F390D3A031DC3
:10206000322833284A284030F0000030F10056086A
:10207000023E86008701403FF200413FF3000830F6
:10208000F4000030F5009B313A2390319D31332527
:1020900090315A289B31CB2390315A28FD305C0572
:1020A000DE0004305E06031D562857285A28953155
:1020B0000A25903108002100CA01C90102305406E6
:1020C000031D632864288A2845088600460887007F
:1020D0004131083081004830F3000030F400FF3017
:1020E0007305F5007F307405F60045088600460844
:1020F000870042317508C03F7608C13F4508860019
:102100004608870048308100450886004608870059
:102110008117C028320820004702031D93282100A0
:102120003108200046020318962897289E28470861
:102130002100B200200046082100B1009E31562641
:1021400090314830F3000030F400FF307305F500A3
:102150007F307405F60021003708860038088700B4
:1021600042317508C03F7608C13F370886003808FD
:1021700087004830810037088600380887008117BB
:1021800008002000C801C90112292100B01752031C
:10219000031DCB28CC281E292000C8141E2921008D
:1021A000B0171E292100B017200044080F39003A4B
:1021B0000319DB28DC281E29C41BDF28E028F028AF
:1021C00044080F39F0000130F035890BE42870081D
:1021D000BB3E86008701403FF100413FF200FF28EF
:1021E00044080F39F0000130F035890BF4287008ED
:1021F000B73E86008701403FF100413FF200710881
:10220000860072088700811F062907291E29710888
:10221000860072088700011D0E290F291E29013032
:10222000C8001E2940081F39003A0319C528013A81
:102230000319CF28033A0319D2281E292100B01F01
:10224000222923292A294830AE000030AF0030145B
:102250000230B10008002000400E890C0339003A1A
:10226000031933293429732996292100B01708301E
:10227000D7009629913197219131962992310822E0
:1022800091319629DD302100AE000030AF003014CE
:102290000130B100B01796299031C12091319629B3
:1022A0008D31DD25913196294408D83E2100AE00BC
:1022B0000030AF0047292100B01720004408D83E65
:1022C000860087014208810096290230D100003043
:1022D000D2000030D300D4000030D500D6009C31AD
:1022E0007A24913196294108003A03194C29013A80
:1022F00003195029023A03195029063A03193529BE
:10230000033A03193A29013A031965290F3A0319C7
:102310004229013A03193E29033A03195429013A83
:1023200003195B29073A031996299629080080307A
:1023300020004006031D9D299E29072AC030210048
:10234000B000FB29DF302100AE009830AF00123022
:10235000B1000030B200072A4208031DB029B1299C
:10236000D5294208F000F101F035F10D1930700760
:1023700084001930713D80388500003F2100AE0097
:10238000013FAF0002302E0784002F080318013EE2
:1023900085000008B10003302E0784002F080318C1
:1023A000013E85000008B200072A2100B001072A7B
:1023B000033042020318DD29DE29D5294208F00046
:1023C000F101F035F10D0F30700784001930713DC7
:1023D00080388500003F2100AE00013FAF002E088D
:1023E00084002F0885000008F000F1017008B1009A
:1023F0007108B200072A20004308013A0319A229F4
:10240000033A0319AC29013A0319D829D529080040
:102410002100B01799302000D700D8015708860056
:102420000E30870081010130D7070130D8075808E6
:1024300003191B2A1C2A0E2A2030F0000030F1005C
:102440000030F200F3002030F4000030F5009A3143
:10245000762292313D000E172000D9015908C33E63
:102460008600870181015908C13E860087018101EC
:102470000130D90702305902031C3F2A402A2E2A74
:10248000D830F0000030F1000030F200F3000230EC
:10249000F4000030F5009A31762292313D000E139F
:1024A00028302100B7000030B8002030D600560890
:1024B000C500C601200042082100DD005D08031DA3
:1024C000622A632A662A1030D700792A0130200058
:1024D000D1000030D200DD30D3000030D400013014
:1024E000D5000030D6009C317A2492312030210072
:1024F000D700080020000D0E890C890C0139993194
:10250000DF219231003A0319862A872AEC2A20001B
:102510000C0E01399931DF219231003A0319912AC9
:10252000922AEC2A0B11053020009500F101F201EE
:10253000D42A0B1D9C2A9D2AD42A0130F107003091
:10254000F23D00307202FA3003197102031CA92A0D
:10255000AA2AD02A03102100471D03140318B12A08
:10256000B42A21004715B62A21004711F101F201D2
:1025700020000D0E890C890C01399931DF2192312F
:10258000003A0319C42AC52AD02A20000C0E0139AA
:102590009931DF219231003A031DCF2AD02AB82A7F
:1025A0000B1105302000950020000D0E890C890CC0
:1025B00001399931DF219231003A0319E02AE12AE9
:1025C000EC2A20000C0E01399931DF219231003ABA
:1025D000031DEB2AEC2A992A0800F8007008031959
:1025E000F22AF32AFC2A7835B73E86008701403F5D
:1025F000F900413FFA00042B7835BB3E8600870185
:10260000403FF900413FFA0079087A04031D092B85
:102610000A2B0D2BF001F101692BFF307105F4003D
:102620007F307205F500790886007A08870042310C
:102630007408C03F7508C13F790886007A08870092
:10264000413173088100790886007A08870040309C
:102650008105790886007A08870081157908860047
:102660007A088700811770080319372B382B4F2BF6
:102670007835B73E86008701403FF400413FF500C2
:1026800004307406F60000307506F7007835B73E62
:10269000860087017608C03F7708C13F652B7835F3
:1026A000BB3E86008701403FF400413FF500043007
:1026B0007406F60000307506F7007835BB3E8600DC
:1026C00087017608C03F7708C13F7A08F100790892
:1026D000F000080020000D0E890C890C0139993199
:1026E000DF219331003A0319762B772BEE2B200054
:1026F0000E0C890C01399931DF219331003A03190D
:10270000822B832BEE2B0B11053020009500F1015D
:10271000F201D52B0B1D8D2B8E2BD52B0130F10704
:102720000030F23D00307202FA3003197102031CCE
:102730009A2B9B2BD12BA92B4708FC390138C700BA
:10274000B62B4708FC390238C700B62BFC30C7054A
:10275000B62B210047080339003A03199C2B013A94
:102760000319A12B033A0319A62BB62BF101F20191
:1027700020000D0E890C890C01399931DF2193312C
:10278000003A0319C42BC52BD12B20000E0C890C49
:1027900001399931DF219331003A031DD02BD12B20
:1027A000B82B0B1105302000950020000D0E890C70
:1027B000890C01399931DF219331003A0319E12B5A
:1027C000E22BEE2B20000E0C890C01399931DF2110
:1027D0009331003A031DED2BEE2B8A2B08003D00B0
:1027E0000E122100B01BF52BF62B332CA91FF92B51
:1027F000FA2B082C0230D4004908031D002C012CB0
:10280000042C90315B2093312100CB01CC01792C39
:102810004508860046088700413108308100403075
:10282000F7000030F800450886004608870042316E
:102830007708C03F7808C13F4508860046088700F2
:102840000C3081004508860046088700811737084C
:102850008600380887000430810037088600380871
:1028600087008117792C2000C01F372C382C4F2C63
:1028700001302100D4004A08031D3F2C402C432C7A
:1028800090315B2093312100CB01CC014D08031D19
:102890004A2C4B2C792C9F311B279331792C0230F9
:1028A0002100D400450886004608870041310830E1
:1028B00081004030F7000030F800450886004608E7
:1028C000870042317708C03F7808C13F450886003D
:1028D00046088700043081004508860046088700C6
:1028E0008117CB01CC014D08031D772C782C792C56
:1028F0004B2C0800210012113D009301900198011A
:102900009930F100F201710886000E3087008101D4
:102910000130F1070130F20772080319902C912C55
:10292000832C16303D0091009F3097007B30920041
:10293000F3017308F0000230F035890B9C2C70080D
:10294000203E860087010030C03F0030C13FC23FBB
:10295000C33F0130F30708307302031CB02CB12CC5
:10296000992C3D000E1796010E120E13F7309005AC
:102970002100B001A901AA01AB013D009019C12CB1
:10298000C22CB62C01302100CC000130CB00CA0192
:10299000C901D101F3017335B73E860087010030CC
:1029A000C03FC13F7335BB3E860087010030C03F4A
:1029B000C13F7308C33E8600870181017308C13E91
:1029C0008600870181010130F30702307302031C86
:1029D000EA2CEB2CCB2C28302100B7000030B800BB
:1029E00016303D00980000302000A3004030A200C7
:1029F0000830A1000430A000A0172100DD01003044
:102A0000B6000030B5000030B4000030B300C8019B
:102A1000D701080021003708860038088700010E1A
:102A2000890C890C01392000EC00043021003706A4
:102A3000B70000303806B80008305706031D212DB6
:102A4000222D332D200042087F393D0096001608C4
:102A500003192B2D2C2D302D10302100D700332DB4
:102A600004302100D7005403031D372D382D842D49
:102A700048302000E8000030E900FF306805EA0037
:102A80007F306905EB002100370886003808870091
:102A9000423120006A08C03F6B08C13F9E31562674
:102AA0009531023021005506031D572D582D642DF8
:102AB0003708860038088700043081003708860010
:102AC0003808870081179A2D20006C08031D692D96
:102AD0006A2D772D21003708860038088700483096
:102AE0008100370886003808870081179A2D210059
:102AF00037088600380887000830810037088600CC
:102B00003808870081179A2DA91F872D882D992DA8
:102B10002C082D0403198D2D8E2D972D0530A73EE1
:102B200086008701413F8A00403F0A00953121001D
:102B3000A913D4010800FB017B08803EF0001F3080
:102B400003182030F1009A31432295317108FA00C0
:102B50007008F9007B08203E860087010130873D20
:102B6000790881000130FB0740307B02031CB92D3E
:102B7000BA2D9C2D22002103031DBF2DC02DCF2D6A
:102B80002030F0000130F1003F30F2009B319423FF
:102B90009531220022060319CE2DCF2D362E01307D
:102BA000A8000230A9000330AA000430AB000530B1
:102BB000AC000630AD000730AF000830AE00013089
:102BC000B8000B30B9000C30BA000D30BB00093032
:102BD000BC000A30BD000730BF000830BE00A001B5
:102BE0002330F0000130F1000030F200F300053036
:102BF000F4000030F5009A31762295313030F00043
:102C00000130F1000030F200F3000830F400003031
:102C1000F5009A31762295314030F0000130F10014
:102C20000030F200F3000830F4000030F5009A3173
:102C3000762295314830F0000130F1000030F2008A
:102C4000F3001830F4000030F5009A317622953107
:102C500001302200A1002030F0000130F1003F30AF
:102C6000F2009B31942395312200A200080020003D
:102C700040081F39013A03193E2E3F2E402EE82E00
:102C800002304402031C452E462E472EE82E063005
:102C90004106031D4C2E4D2E9E2E932E21005D03CA
:102CA000031D532E542E9E2E20004408031D592E22
:102CB0005A2E662E90302100AE009830AF000930B9
:102CC000B1000030B200C030B0009E2E4403031D9E
:102CD0006A2E6B2E9E2EAB302100AE009830AF00D6
:102CE0000930B1000030B200632E4408031D792E74
:102CF0007A2E842E00302100AE009830AF004A308A
:102D0000B1000030B200632E4403031D882E892ECB
:102D10009E2ECA302100AE009830AF001530B100B1
:102D20000030B200632E4308213A03194E2E033AB5
:102D30000319752E013A03199E2E9E2E2000400E77
:102D4000890C0339013A0319A62EA72ED42EE82E9A
:102D50009D31B4259631E82EDB302100AE000030E5
:102D6000AF000130B1000030B200C130B000E82E39
:102D700080302100B000200043082100DB00E82E55
:102D8000DA302100AE000030AF000130B100003079
:102D9000B2008130B000E82E80302100B000200069
:102DA00042082100DA00E82E4108013A0319A82E52
:102DB000033A0319AC2E013A0319C02E0A3A03193B
:102DC000A82E033A0319B82E013A0319CC2EE82E87
:102DD000080021005708031DEE2EEF2E012F3D00A5
:102DE0008E019201163091009F3097007B30920047
:102DF000FA2E8E158E1DFD2EFE2EF92E013021008D
:102E0000D7005703031D052F062F122F3D008E1AE2
:102E10000A2F0B2F122F900192011214121602305A
:102E20002100D7003D00101D162F172F202F121D37
:102E30001A2F1B2F202FFB3090059A3192229631AA
:102E40003D008E1C242F252F282F20001211FF2F2C
:102E5000101C2B2F2C2F392F121C2F2F302F392FD6
:102E600094317A24963104302100D700FE303D00A1
:102E70009005101E3C2F3D2F442F121E402F412F36
:102E8000442F9A312B2296313D00101F482F492F95
:102E9000722F121F4C2F4D2F5C2F73302000D1004A
:102EA0000030D2000030D300D4000130D500003013
:102EB000D6009C317A249631BF303D0090059A317E
:102EC0001522963121004E080319672F682F6A2FAB
:102ED0000130CE024E08031D6E2F6F2F722F9F31CF
:102EE0001B2796313D00901E762F772F7E2F921E46
:102EF0007A2F7B2F7E2F9B31132396313D00901C20
:102F0000822F832F982F921C862F872F982FFF3088
:102F10002000D1007F30D2000030D300D400013037
:102F2000D5000030D6009C317A2496313D009301C3
:102F300004302100570203189E2F9F2FA22F20003C
:102F40001211FF2F3D00921DA62FA72FFD2F21004C
:102F5000E1013D00901DAD2FAE2FFD2F0F08210088
:102F6000DC005C0CE000E00C600C0F39D000F730A6
:102F70003D00900521005C19BE2FBF2FCE2F5008B9
:102F8000C13E8600870101080139E0000130E006FA
:102F900001086006FE3960068100DC2F5008C33E40
:102FA0008600870101080139E0000130E0060108D0
:102FB0006006FE39600681005008031DE02FE12FF6
:102FC000E52F903106209631F42F72302000D10089
:102FD0000030D200DC30D3000030D4000030D50007
:102FE000D6009C317A24963101302100E10704306B
:102FF0006102031CFC2FFD2FA92F200012110800D5
:103000000534013409340534A13401341534003455
:1030100025340134353400344534013475340134F9
:1030200095340D34053409341934013429340D3400
:10303000813402349534033481340134053401344D
:103040002534073446343B34013475340434953424
:1030500001346534143409343934813442346534EC
:10306000003495340134813401342634FF34003483
:103070004634FF34003409343034093431340934EF
:103080003234093435347534083495340434813499
:103090000234C034343403344D34003469340034E1
:1030A00063340034723400346F34003463340034D9
:1030B000683400346934003470340034203400340F
:1030C00054340034653400346334003468340034DC
:1030D0006E3400346F3400346C3400346F34003498
:1030E00067340034793400342034003449340034F7
:1030F0006E340034633400342E3400340934023426
:1031000034340034023401340034C03432340934ED
:103110000434003400340134033400340034003407
:1031200009342134113401340034013422344A3456
:10313000003407340534813403344034003401341E
:10314000093404340134003400340334FF34FF34D0
:103150000034093421341134013400340134223470
:1031600015340034183403345334003446340034F6
:1031700043340034203400344734003461340034A4
:103180006D340034653400347034003461340034FC
:103190006434003406340034FF3409340134A1347B
:1031A0000134153400342634FF34003475340834C7
:1031B0009534403409340134B1340234C03412340B
:1031C0000134003402340034003400340834D8347C
:1031D00004348834E83401340034013402340034D7
:1031E00001340034013402340434083410342034FF
:1031F0004034803401340234043408341034203430
:10320000003400340034003400340034003400341E
:1032100000340134013401340134013401341534F3
:1032200099344A349834B234983404340334093429
:0632300004347E349834E2
:10339C00FC01FD0108008F31FD27993108007108EF
:1033AC00FC007008FD000800FC302100C705471127
:1033BC000800F00070080319E429E6290130E72918
:1033CC000030080020302000D2004030D300003004
:1033DC00D4009D317325993108002100BF01C00133
:1033EC001A30F60001309A31AF2299319931DA2135
:1033FC00993108007B08F0000230F1002030F20017
:10340C000130F3004030F4000030F5009B313A23DA
:10341C009A317B0886000230870081010800013058
:10342C002100B3070030B43DB53DB63D5108031D36
:10343C00202A212A2A2A0130C8074808031D272AD6
:10344C00282A2A2AFF30C80008003D001215EF3048
:10345C0090058E1401302100D100C8017530200078
:10346C00D1000030D2000030D300D4000030D500A1
:10347C00D6009C317A249A3108000B0D0B0D0139C2
:10348C00F2008B1323001513710892007008910041
:10349C00151400000000720C031C8B1303188B17FF
:1034AC0023001408F1001308F00008000B0D0B0D9D
:1034BC000139F2008B132300151371089200700868
:1034CC009100151615157D0896007C08960095142C
:1034DC00720C031C8B1303188B171511150808009D
:1034EC007108F7007008F600852A760886007708C0
:1034FC008700720881000130F6070030F73D01307B
:10350C00F4020030F53B740A031D902A750A031D62
:10351C00902A912A7B2A08002100D10174302000C6
:10352C00D1000030D2000030D300D4000030D500E0
:10353C00D6009C317A249A313D008E101211A82AA3
:10354C00FB3090051019AB2AAC2AA62A2100C80121
:10355C000800F800761DB32AB42AB92AF0017808BD
:10356C009C313E249A31F61CBC2ABD2AC32AF00198
:10357C00F00A78089C313E249A317808983EF7007E
:10358C00770886000E308700760881000800F2006C
:10359C009931D1219A31D92AFC30210099009030EF
:1035AC0027009B00EC2A7208F000F1017108003A28
:1035BC000319E12AEC2A7008003A0319D22A013ABD
:1035CC000319EC2A033A0319EC2AEC2A0800F3003D
:1035DC0008307302031CF32AF42AF62A0030122B4B
:1035EC007008031DFA2AFB2A072B2830F100013042
:1035FC00F2007308710786000030723D87000108E5
:10360C00122B3830F1000130F2007308710786007C
:10361C000030723D8700010808003D00181C172B74
:10362C00182B372B210056088600870180300106A5
:10363C00031D212B222B352B3708860038088700D9
:10364C0084300106031D2B2B2C2B352B56088600A2
:10365C0087010C30810056088600870181173D00D8
:10366C001810DF30900508007308FA007208F90092
:10367C007108F8007008F700572B790886007A0853
:10368C0087000108F6000130F9070030FA3D770891
:10369C00860078088700760881000130F707003033
:1036AC00F83D0130F4020030F53B740A031D622B27
:1036BC00750A031D622B632B432B0800F201723534
:1036CC00A03E860001308700FF30C03F3F30C13F35
:1036DC000130F20720307202031C752B762B652B00
:1036EC00F3017308203E860087010130873D0030CE
:1036FC000104F0003F30F1007335A03E860001302C
:10370C0087007008C03F7108C13F0130F30740309B
:10371C007302031C922B932B772B0800F801C22BFE
:10372C0070088600710887000108F8060130F00760
:10373C000030F13DF701F81BA42BA52BAD2B78081D
:10374C00F300F4017335F500740DF600B82B78080E
:10375C00F300F401F335F40D07307306F500003077
:10376C007406F6007508F8000130F7070830770288
:10377C00031CC12BC22BA12B0130F202720A031DB8
:10378C00C82BC92B962B7808080002302100540650
:10379C00031DD12BD22BD62B8F312C279B31012CF7
:1037AC00D4014F08031DDB2BDC2B002C45088600B5
:1037BC004608870041310830810040302000EE007F
:1037CC000030EF0021004508860046088700423192
:1037DC0020006E08C03F6F08C13F210045088600DD
:1037EC00460887000C308100450886004608870093
:1037FC008117012CCF01080020302100570203183B
:10380C00082C092C0A2C3D2C3D008E1C0E2C0F2C48
:10381C00102C3D2C21003F0840040319162C172CAA
:10382C001F2C3F08860040088700811B1E2C1F2C74
:10383C003D2CA030F8000030F9008C313D249C3137
:10384C00F001F00AA030F1000030F2000730F30074
:10385C0001309231ED229C3171082100C0007008BA
:10386C00BF0093316A239C3192317A229C3108003B
:10387C00F4002030F5007008F1000130F135890BAF
:10388C00442C7408F2000230F235890B4A2C720871
:10389C007107F3000230F335890B512C7308F507CF
:1038AC0075088600870181137008031D5E2C5F2C40
:1038BC00682C7435BB3E860087017508C03F00300C
:1038CC00C13F702C7435B73E860087017508C03F28
:1038DC000030C13F75088600870101137508043E4E
:1038EC0086008701011708008D2C01309A31CD22FA
:1038FC009C31B52C02309A31CD229C31B52C9931AA
:10390C00F3219C31B52C963137269C31B52C2000F7
:10391C005208003A0319962C7F3A0319B02CB52C97
:10392C005108013A0319852C033A0319B52C013AB5
:10393C000319892C063A0319B52C773A0319B52CBF
:10394C00013A0319B52C073A0319802C013A0319D3
:10395C007B2CB52C5108FF3A0319B52CB52C08005B
:10396C0000309A31CD229C3194317A249C3195319E
:10397C009B259C31303021008C00F0308D00FF30C5
:10398C008E009513303024008C00D0308D00230035
:10399C008C018D018E0107302100950495111512B3
:1039AC00951215178B170530200095009631E926D6
:1039BC009C312030210057020318E52CE62CE72C13
:1039CC00DC2C3D008E1CEB2CEC2CED2CDC2C9C31DF
:1039DC0002249C31DC2C8C310C2C2030F6000B0D8D
:1039EC000B0D0139F5002300151315159516292D0E
:1039FC0071089200700891000130F0070030F13D21
:103A0C007208860001308700403FF300413FF4000C
:103A1C007408940072088600013087000108930036
:103A2C000230F2077608031D1C2D1D2D1E2D95123C
:103A3C008B137D0896007C0896009514750C031C5E
:103A4C008B1303188B170130F602760A031D2F2DEA
:103A5C00302DFE2C1511150808002100D501CD01C3
:103A6C00CA01C901CF01D401370886003808870084
:103A7C007F30810504303706B70000303806B800B7
:103A8C0037088600380887007F30810504303706F8
:103A9C00B70000303806B800450886004608870095
:103AAC007F308105B001B101B201A901AA01AB01BE
:103ABC0091312B219D3103302000D1000030D200F8
:103ACC000030D300D4000030D500D6009C317A24CD
:103ADC009D319331EF239D310800003020005402BA
:103AEC0040300319530203187C2D7D2D7E2DB32DF0
:103AFC00E6016608563E8600870166085207D50027
:103B0C005508083E84000230850000088100013011
:103B1C00E60708306602031C942D952D7F2DE701D6
:103B2C0067085E3E8600870167085207D500550876
:103B3C00183E840002308500000881000130E70740
:103B4C0008306702031CAB2DAC2D962D5630D000DF
:103B5C005E30D1009E31B6269D310800200042080F
:103B6C004408D0005003031DBC2DBD2DF52D09308C
:103B7C004106031DC22DC32DD22D20302100A700DC
:103B8C000230A8004030AA000030AB00E830AC0096
:103B9C001930AD00A917F52D4103031DD62DD72DD6
:103BAC00F52D2030F0000230F1000030F200F3006F
:103BBC004030F4000030F5009A3176229D312030EF
:103BCC00FB009A3100229D3120302100AE000230E2
:103BDC00AF004030B1000030B200C130B00008007E
:103BEC00F2003B2E20000E0E01399931DF219D3160
:103BFC00552E20000E0CF100F10C710C013999318D
:103C0C00DF219D31552E20000E0E890C0139993182
:103C1C00DF219D31552E20000C0E890C0139993174
:103C2C00DF219D31552E20000E0C890C0139993164
:103C3C00DF219D31552E20000C0E01399931DF21E9
:103C4C009D31552E20000D0E890C890C01399931AE
:103C5C00DF219D31552E20000D0E890C0139993133
:103C6C00DF219D31552E0030552E7208003A031974
:103C7C00F82D013A0319FF2D033A0319092E013AC5
:103C8C000319112E073A0319192E013A0319212E83
:103C9C00033A0319282E013A0319312E392E080044
:103CAC000830F200003021003202083003193102D2
:103CBC000318612E622E732E3108F2005508031D75
:103CCC00682E692E6C2E0130D500732E5503031D02
:103CDC00702E712E732E0230D5007208F000F10197
:103CEC007008B1027108B23B3708860038088700AB
:103CFC004131720881004830D3003018862E872E4F
:103D0C00B02E992E5308860087012E0884002F08A8
:103D1C008500000881000130AE070030AF3D013056
:103D2C00D3070130F2027208031D9D2E9E2E882EA1
:103D3C00B52E5308860087012E0884002F088500B5
:103D4C00000881000130AE070030AF3D0130D307D1
:103D5C000130F2027208031DB42EB52E9F2E0800FE
:103D6C002830F0000130F10020005008F200F3017F
:103D7C000830F4000030F5009B313A239E31383086
:103D8C00F0000130F10020005108F200F30108307E
:103D9C00F4000030F5009B313A239E312200A00143
:103DAC000130A1002030F0000130F1003F30F20072
:103DBC009B3194239E312200A2009B3164239E31BF
:103DCC000B0D0B0D0139FB008B135530F000AA3095
:103DDC00F1009931D5219E318030F0001F30F10077
:103DEC009A315C229E318F31EF279E31003A031DB0
:103DFC00002F012FF92E8030F0001F30F100A03081
:103E0C00F2009C31F3249E318F31EF279E31003A22
:103E1C00031D112F122F0A2F9931CE219E317B0CAD
:103E2C00031C8B1303188B17080021004C08031D6F
:103E3C00202F212F7F2F0130CC004B08031D272F63
:103E4C00282F7F2F0130CB0002305406031D2F2F5B
:103E5C00302F422F37088600380887004131810106
:103E6C0037088600380887004830810037088600FC
:103E7C003808870081177F2F5403031D462F472FC7
:103E8C007F2FCF01560A8600870108308100403011
:103E9C00F0000030F1005608023E860087017008E1
:103EAC00C03F7108C13F560886008701043081006D
:103EBC0056088600870181170130CF00450886001F
:103ECC00460887004131083081004030F000003056
:103EDC00F100450886004608870042317008C03F53
:103EEC007108C13F45088600460887008030810074
:043EFC007F2F08000C
:020000040001F9
:08000000FF3FFF3FFF3FFF3F00
:04000E00A40FCF1F4D
:00000001FF
