:0618080000008C310C2CE5
:101810007E148C317E10090020008C310F2C653035
:101820008400003085000B309B3188238C31A73039
:101830008400003085002B309B3188238C317E1052
:1018400020009C31D62CF30020000D0E890C0139AC
:101850009B318E238C31F100730A860087010108C9
:101860007106FE397106810020000D0E890C890C6D
:1018700001399B318E238C31F100730A8600870178
:10188000F10D01087106FD39710681002100411931
:101890004A2C4B2CC92C20000E0CF100F10C710CC1
:1018A00001399B318E238C31F20073088600870149
:1018B000F20D01087206FD397206810020000C0E3F
:1018C000890C01399B318E238C31F100730886001D
:1018D000870101087106FE397106810020000E0E95
:1018E00001399B318E238C31F1007308860087010A
:1018F000F10DF10D01087106FB3971068100200020
:101900000E0E890C01399B318E238C31F100730846
:1019100086008701F10DF10DF10D01087106F7390F
:101920007106810020000E0C890C01399B318E2339
:101930008C31F100730886008701F10E01087106F1
:10194000EF397106810020000C0E01399B318E2386
:101950008C31F100730886008701F10EF10D01084A
:101960007106DF3971068100730886008701011353
:101970007308860087018113730A860087010111AD
:10198000730A860087018111730A8600870101129C
:101990004E2D411DCC2CCD2C4E2D73088600870179
:1019A0008110730886008701011020000E0E013996
:1019B0009B318E238C31F100730886008701F10D75
:1019C000F10D01087106FB3971068100730886006C
:1019D0008701811173088600870101127308860050
:1019E0008701811220000E0C890C01399B318E2356
:1019F0008C31F100730886008701F10EF10DF10DB5
:101A000001087106BF397106810020000C0E0139F2
:101A10009B318E238C31F100730886008701F10C15
:101A2000F10C010871067F397106810020000C0E4F
:101A3000890C01399B318E238C31F100730A8600A9
:101A40008701F10DF10D01087106FB397106810066
:101A500020000E0E890C01399B318E238C31F10050
:101A6000730A86008701F10DF10DF10D0108710671
:101A7000F7397106810020000E0CF100F10C710C99
:101A800001399B318E238C31F200730A8600870165
:101A9000F20E01087206EF397206810020000E0E68
:101AA000890C890C01399B318E238C31003A031942
:101AB0005A2D5B2D612D7308033E8600870181013D
:101AC0007D2D20000D0E01399B318E238C31003A83
:101AD00003196B2D6C2D752DFF30F1007308033E3B
:101AE00086008701710881007D2D8030F100730828
:101AF000033E860087017108810020000D0D0D0D49
:101B000001399B318E238C31003A0319882D892DA0
:101B10008F2D7308043E860087018101AC2D2000C3
:101B20000E0D0E0D01399B318E238C31003A0319B5
:101B30009A2D9B2DA42DFF30F1007308043E8600E2
:101B4000870171088100AC2D8030F1007308043EDC
:101B500086008701710881000830F1007308023E99
:101B600086008701710881008030F1007308053E0E
:101B700086008701710881008030F1007308063EFD
:101B80008600870171088100D92E7308033E860004
:101B900087010108031DCD2DCE2DE12D7308043ED4
:101BA0008600870180300106031DD72DD82DE12D39
:101BB0007308023E860087010108F039063881006B
:101BC0009F2E7308033E860087010108031DE92D3F
:101BD000EA2DFC2D7308043E860087010108031DD1
:101BE000F22DF32DFC2D7308023E860087010108BB
:101BF000F039073881009F2E7308033E8600870165
:101C000080300106031D052E062E162E7308043E95
:101C1000860087010108031D0E2E0F2E162E730855
:101C2000023E86008701F03081059F2E7308033E37
:101C300086008701010A031D1E2E1F2E312E7308F8
:101C4000043E860087010108031D272E282E312E11
:101C50007308023E860087010108F03901388100CF
:101C60009F2E7308033E86008701010A031D392E4B
:101C70003A2E4D2E7308043E8600870180300106FF
:101C8000031D432E442E4D2E7308023E860087010D
:101C90000108F039023881009F2E7308033E860048
:101CA0008701010A031D552E562E682E7308043E27
:101CB00086008701010A031D5E2E5F2E682E7308C1
:101CC000023E860087010108F039033881009F2E0B
:101CD0007308033E8600870180300106031D712EC4
:101CE000722E842E7308043E86008701010A031DAC
:101CF0007A2E7B2E842E7308023E8600870101080F
:101D0000F039043881009F2E7308033E8600870156
:101D10000108031D8C2E8D2E9F2E7308043E860015
:101D20008701010A031D952E962E9F2E7308023EF1
:101D3000860087010108F039053881009F2E803028
:101D4000F1007308033E860087017108810080302E
:101D5000F1007308043E8600870171088100EE2EB1
:101D60007308033E860087010108F1007308053EF1
:101D700086008701710881007308043E8600870190
:101D80000108F1007308063E860087017108810092
:101D90008030F1007308033E8600870171088100DE
:101DA0008030F1007308043E8600870171088100CD
:101DB000EE2E210041080339F100F2017208003AC9
:101DC0000319E32EEE2E7108003A0319EE2E013AA4
:101DD0000319C52D033A0319B02EEE2E080020007A
:101DE0006D0886008701413FF5007508F200F30198
:101DF000730821002B02031DFF2E72082A0203180C
:101E0000022F032F072F2A08F2007208F500750829
:101E1000F200F3017208AA027308AB3BF401232F0E
:101E20007408483E860087010108F20027088600F2
:101E30008701720881000130F2007208A7070130A3
:101E4000F2007208F40775087402031C282F292F6A
:101E5000102F2A082B0403192E2F2F2F682F200054
:101E60006908013EF20000306A3DF3007208860006
:101E700073088700083081004830F2000030F3001A
:101E8000690886006A08870042317208C03F7308FB
:101E9000C13F6D0886008701011B4F2F502F5C2F1B
:101EA000690886006A088700483081006908860052
:101EB0006A0887008117982F690886006A088700DA
:101EC00008308100690886006A0887008117982F0A
:101ED00020006908013EF20000306A3DF3007208FC
:101EE000860073088700083081004030F20000301F
:101EF000F300690886006A08870042317208C03F13
:101F00007308C13F690886006A08870004308100B1
:101F1000690886006A08870081172100A91320003C
:101F20006B08031D942F952F982F903102208E312E
:101F3000080020000D0E890C01399B318E238F3152
:101F4000003A0319A42FA52FFE2F0B1105302000F6
:101F50009500F301F401F22F0B1DAF2FB02FF22FDC
:101F60000130F3070030F43D01307402F4300319FE
:101F70007302031CBC2FBD2FEE2FCB2F4108FC3961
:101F80000138C100E02F4108FC390238C100E02FC0
:101F9000FC30C105E02F210041080339F100F201B6
:101FA0007208003A0319D52FE02F7108003A03197F
:101FB000BE2F013A0319C32F033A0319C82FE02F8C
:101FC000F301F40120000D0E890C01399B318E23A1
:101FD0008F31003A031DED2FEE2FE22F0B1105304C
:101FE0002000950020000D0E890C01399B318E23B5
:0E1FF0008F31003A031DFD2FFE2FAC2F08008D
:1020040021004608031D0728082878280130F0001D
:102014007008C6004508031D1028112878280130CF
:10202400F0007008C500023020006C06031D1B2858
:102034001C282E2865088600660887004131810126
:1020440065088600660887004830810065088600B8
:1020540066088700811778286C03031D322833280B
:1020640078282100C8010830F00020006D0A86009D
:102074008701700881004030F0000030F1006D08E5
:10208400023E860087017008C03F7108C13F0430DA
:10209400F0006D0886008701700881006D088600D5
:1020A400870181172100C801C80A20006908013E80
:1020B400F00000306A3DF100700886007108870066
:1020C400083081004030F0000030F10069088600DB
:1020D4006A08870042317008C03F7108C13F69082F
:1020E40086006A0887008030810078280800200074
:1020F40065088600660887000030011B0130F50082
:1021040004306506E50000306606E60008306E0619
:10211400031D8D288E28A22842087F393D00960091
:1021240016080319962897289D281030F300730881
:102134002000EE00A2280430F30073082000EE0013
:102144006C03031DA628A728EA284830F3000030B2
:10215400F400650886006608870042317308C03FB2
:102164007408C13F9F3189279031023021004D0608
:10217400031DBD28BE28CB282000650886006608FC
:10218400870004308100650886006608870081178F
:10219400F2287508031DCF28D028DD282000650803
:1021A4008600660887004830810065088600660856
:1021B40087008117F22820006508860066088700DA
:1021C4000830810065088600660887008117F228B8
:1021D4002100A91FEE28EF28F028A9132000EC0104
:1021E40008002000400E890C0339003A0319FB282B
:1021F400FC2841296C292100B01708302000DD009B
:102204005D08EE006C2992316E2290316C29913177
:102214006D2190316C29D1302100AE000030AF0027
:102224003014B101B10AB0176C299F311D279031C8
:102234006C299631B22690316C294408D03E210095
:10224400AE000030AF0012292100B0172000420870
:10225400DD004408D03E860087015D0881006C29BA
:102264000230D0000030D1000030D2000030D30062
:102274000030D400D5009D314B2590316C294108A4
:10228400DD00DE015E08003A031949296C295D0866
:10229400003A03191729013A03191B29023A0319B1
:1022A4001B29063A0319FD28033A03190529013AA3
:1022B400031932290F3A03190D29013A031909297F
:1022C400033A03191F29013A03192629073A031966
:1022D4006C296C2908002100B0170E302000D800AA
:1022E4009930D700D9015708860058088700810122
:1022F4000130D7070030D83D0130D6005608D90741
:10230400590803198629872975290030F000F1003E
:102314002030F2000030F3002030933191239131CA
:102324003D000E172000DA015A08BF3E86008701DF
:1023340081015A08BD3E8600870181010130D60023
:102344005608DA0702305A02031CA929AA29962939
:102354000030F000F1000130F2000030F300D03022
:102364009331912391313D000E1328302000E50074
:102374000030E6002030D6005608ED006D08E90074
:10238400FF39031D0030EA004208D6005608210038
:10239400D1005108031DCF29D029D629103020009F
:1023A400D6005608EE00EB2901302000D0000030A2
:1023B400D100D130D2000030D3000130D40000303D
:1023C400D5009D314B25913120302000D600560890
:1023D400EE000800F70070080319F129F229FB291F
:1023E4007735653E86008701403FF800413FF9009C
:1023F400032A7735B73E86008701403FF800413F06
:10240400F90078087904031D082A092A0C2AF00126
:10241400F1016D2A7108F3000030F4007808860099
:102424007908870042317308C03F7408C13F7808B7
:10243400013EF3000030793DF4007308860074080F
:102444008700720881004030F3007808860079081C
:10245400870073088105780886007908870081154C
:1024640078088600790887008117700803193B2AC9
:102474003C2A532A7735653E86008701403FF300A6
:10248400413FF40004307306F50000307406F60092
:102494007735653E860087017508C03F7608C13FE1
:1024A400692A7735B73E86008701403FF300413FF4
:1024B400F40004307306F50000307406F600773536
:1024C400B73E860087017508C03F7608C13F79088A
:1024D400F1007808F0000800803020004006031D59
:1024E400742A752AF22AC030F00070082100B00066
:1024F400DE2AB8302100AE009830AF001230B100AF
:102504000030B200F22A4208031D892A8A2AB92A15
:102514004208F000F101F035F10DD4307007840069
:102524009830713D8500003F2100AE00013FAF00AF
:102534002F08F1002E08F0000230700784007108A3
:102544000318710A85000008F2007208B1002F0810
:10255400F1002E08F000033070078400710803189E
:10256400710A85000008F2007208B200F22A210004
:10257400B001F22A033042020318C12AC22AB92A3E
:102584004208F000F101F035F10DCA307007840003
:102594009830713D8500003F2100AE00013FAF003F
:1025A4002E0884002F0885000008F000F10170084F
:1025B400B1007108B200F22A20004308F000F101D2
:1025C4007108003A0319E72AB92A7008013A031975
:1025D4007B2A033A0319852A013A0319BC2AB92A2A
:1025E40008003D000E122100B01BF92AFA2A412BE3
:1025F400A91FFD2AFE2A102B0230F50075082000C1
:10260400EC0021004308031D082B092B0C2B9E31E1
:10261400BC2692312100C501C601902B2000690817
:10262400013EF50000306A3DF60075088600760824
:102634008700083081004030F5000030F60069085A
:1026440086006A08870042317508C03F7608C13F9A
:10265400690886006A0887000C30810069088600D2
:102664006A088700811765088600660887000430B9
:10267400810065088600660887008117902B20007A
:10268400C01F452B462B5E2BEC01EC0A21004408AD
:10269400031D4D2B4E2B512B9E31BC269231210014
:1026A400C501C60120006B08031D592B5A2B902B22
:1026B400903102209231902B0230F5007508EC0025
:1026C4006908013EF50000306A3DF6007508860091
:1026D40076088700083081004030F5000030F600AD
:1026E400690886006A08870042317508C03F760889
:1026F400C13F690886006A088700043081006908C0
:1027040086006A08870081172100C501C6012000E0
:102714006B08031D8E2B8F2B902B5A2B0800F8006F
:102724007808F4007408F90072087304031D9B2BE5
:102734009C2B9D2B342C7008F400790886008701AB
:10274400740881007008F40072087907F5007508B0
:10275400FF3E860087017408810000307302033055
:10276400031972020318B72BB82BB92B342C700839
:10277400F400790A86008701740881007008F40067
:102784007908023E86008701740881007008F4000D
:1027940072087907F5007508FE3E86008701740803
:1027A40081007008F40072087907F5007508FD3E91
:1027B4008600870174088100003073020730031912
:1027C40072020318E62BE72BE82B342C7008F40074
:1027D4007908033E86008701740881007008F400BC
:1027E40072087907F5007508FC3E860087017408B5
:1027F4008100003073020930031972020318032C9C
:10280400042C052C342C7909F4007A09F500F40A17
:102814000319F50A03307405F60000307505F70056
:102824007608F4007408F9077608F2027708F33B97
:10283400FC30F205FF30F3052E2C7008F400790803
:1028440086008701740881000130F2020030F33BF6
:102854000130F4007408F90772087304031D332C63
:10286400342C1F2C0800210012113D00930190010B
:1028740098010E30F2009930F100F30171088600DE
:102884007208870081010130F1070030F23D013008
:10289400F0007008F30773080319512C522C402CD4
:1028A40016303D0091009F3097007B309200F40178
:1028B4007408F0000130F035FF3E031D5D2C7035C7
:1028C400203E860087010030C03F0030C13FC23F38
:1028D400C33F0130F0007008F40708307402031C91
:1028E400742C752C5A2C3D000E1796010E120E13E3
:1028F400F730F000700890052100B001A901AA0189
:10290400AB013D009019872C882C7A2C0130F00003
:1029140070082100C6000130F0007008C500C40131
:10292400C301CA01F4017435653E86008701003095
:10293400C03FC13F7435B73E860087010030C03FB9
:10294400C13F7408BF3E8600870181017408BD3E03
:102954008600870181010130F0007008F40702301D
:102964007402031CB62CB72C952C28302000E500EB
:102974000030E60016303D00980000302000A3002F
:102984004030A2000830A1000430F0007008A0001C
:10299400A0172100D1010030B6000030B50000308E
:1029A400B4000030B300C2012000EE010800200092
:1029B40040081F39013A0319E02CE12CE22C7D2D4B
:1029C40044080319E62CE72CE82C7D2D063041063B
:1029D400031DED2CEE2C232D102D21005103031D7E
:1029E400F42CF52C232D9030AE009830AF00093034
:1029F400B1000030B200C030F0007008B000232DE8
:102A040000302100AE009830AF004A30B1000030F1
:102A1400B200C030F0007008B000232D4308F0006D
:102A2400F1017108003A0319182D232D7008213A79
:102A34000319EF2C033A0319022D013A0319232D2C
:102A4400232D2000400E890C0339013A03192B2D44
:102A54002C2D612D7D2DCF302100AE000030AF0034
:102A64000130B1000030B200C130F0007008B00095
:102A74007D2D8030F00070082100B0002000430854
:102A8400F00070082100CF007D2DCE302100AE0073
:102A94000030AF000130B1000030B2008130F000EE
:102AA4007008B0007D2D8030F00070082100B00067
:102AB40020004208F00070082100CE007D2D41085E
:102AC400F000F1017108003A0319692D7D2D700899
:102AD400013A03197D2D033A03192D2D013A0319E7
:102AE400472D0A3A03197D2D033A03193B2D013A68
:102AF4000319552D7D2D080020006E08031D832D1C
:102B0400842D962D3D008E019201163091009F3048
:102B140097007B3092008F2D8E158E1D922D932D54
:102B24008E2D2000EE01EE0A6E03031D9A2D9B2DBF
:102B3400A92D3D008E1A9F2DA02DA92D9001920143
:102B44001214121602302000E2006208EE003D006A
:102B5400101DAD2DAE2DBB2D121DB12DB22DBB2DD3
:102B6400FB302000E20062083D0090059B31FC230D
:102B740095313D008E1CBF2DC02DC32D2000121198
:102B8400B12E101CC62DC72DD82D121CCA2DCB2D2D
:102B9400D82D94313524953104302000E2006208A8
:102BA400EE00FE30E20062083D009005101EDB2DB1
:102BB400DC2DE32D121EDF2DE02DE32D9B31DF23D1
:102BC40095313D00101FE72DE82D152E121FEB2D1A
:102BD400EC2DFC2D73302000D0000030D1000030EB
:102BE400D2000030D3000130D4000030D5009D3134
:102BF4004B259531BF302000E20062083D0090056E
:102C04009B31A62395312100470803190A2E0B2E68
:102C14000D2E0130C7024708031D112E122E152E4A
:102C24009031022095313D00901E192E1A2E212E2E
:102C3400921E1D2E1E2E212E9C31432495313D00C3
:102C4400901C252E262E3C2E921C292E2A2E3C2EFC
:102C5400FF302000D0007F30D1000030D20000309F
:102C6400D3000130D4000030D5009D314B2595317F
:102C74003D009301043020006E020318422E432EBF
:102C8400452E1211B12E3D00921D492E4A2EAF2E13
:102C94002000E4013D00901D502E512EAF2E0F0850
:102CA4002000E2006208EF006F0CE200E20C620C0C
:102CB4000F39E30063082100C900F7302000E20067
:102CC40062083D00900520006F19692E6A2E7B2E44
:102CD40021004908BD3E8600870101080139200012
:102CE400E2000130E20601086206FE396206810054
:102CF4008B2E21004908BF3E860087010108013957
:102D04002000E2000130E20601086206FE39620694
:102D1400810021004908031D902E912E952E9E318D
:102D240066269531A42E72302000D0000030D100E8
:102D34006F30D2000030D3000030D400D5009D3174
:102D44004B25953101302000E2006208E40704308D
:102D54006402031CAE2EAF2E4C2E2000121108006C
:102D640020004203031DB72EB82ECE2E40081F3973
:102D7400003A031DBE2EBF2ECE2E2100B017033005
:102D840020004106031DC72EC82ECC2E2100CB01E6
:102D9400CB0ACE2E2100CB0120004208031DD32EE6
:102DA400D42EFF2F40081F39023A031DDA2EDB2EE2
:102DB400FF2F44080F39003A0319E12EE22EFF2FAA
:102DC40044080F39D600023056020318EA2EEB2EBF
:102DD400FF2F20306E06031DF02EF12EFF2F210051
:102DE400B0172000C41BF72EF82E0C2F44080F39FF
:102DF4000907B73E86008701403FDB00413FDC0006
:102E040044080F39BD3E860087010108D6005608E4
:102E1400DA001F2F44080F390907653E8600870131
:102E2400403FDB00413FDC0044080F39BF3E8600D1
:102E340087010108D6005608DA005A18222F232FDA
:102E44002E2FFB30D600FF30D7005B085605DB0081
:102E54005C085705DC00342F04305B04DB000030D1
:102E64005C04DC00C41B372F382F432F44080F3970
:102E74000907B73E860087015B08C03F5C08C13F75
:102E84004D2F44080F390907653E860087015B080A
:102E9400C03F5C08C13F03304106031D522F532F2E
:102EA400772F5B0886005C088700811F5A2F5B2FF1
:102EB4006C2FC41B5E2F5F2F662F44080F39BD3E55
:102EC4008600870181146C2F44080F39BF3E8600A9
:102ED400870181145B0886005C08870001155B0884
:102EE40086005C0887008117FF2F04305B06DB0037
:102EF40000305C06DC005B0886005C088700811FEC
:102F0400842F852FA22F7F30D6005B0886005C08B3
:102F14008700560881055B0886005C088700011756
:102F24000530D0000030D1005C08D3005B08D2002B
:102F34000230D4000030D5009D314B259631A72FA7
:102F44005B0886005C0887000117043020005B06DC
:102F5400DB0000305C06DC00DA18B12FB22FBA2F88
:102F64005B0886005C088700811FB92FBA2FE32F06
:102F7400C41BBD2FBE2FC52F44080F39BD3E86008C
:102F840087018110CB2F44080F39BF3E860087018B
:102F940081103B30D6005B0886005C088700560829
:102FA40081050530D0000030D1005C08D3005B08F7
:102FB400D2000230D4000030D5009D314B2596312B
:102FC400EB2F3B30D6005B0886005C088700560870
:102FD4008105200044080F39983ED600D7010E30F1
:102FE400D73D5608D8005708D900FE30D6005808F7
:102FF4008600590887005608810508000534013405
:1030040009340534A1340134153400342534013431
:1030140035340034453401347534013495340D3479
:10302400053409341934013429340D34813402341B
:1030340095340334813401340534013425340734A0
:1030440046343B34013475340434953401346534E6
:1030540014340934393481344234653400349534B9
:103064000134813401342634FF3400344634FF34CF
:1030740000340934303409343134093432340934F5
:103084003534753408349534043481340234C0340E
:10309400343403344D34003469340034633400343C
:1030A400723400346F3400346334003468340034D0
:1030B400693400347034003420340034543400341F
:1030C4006534003463340034683400346E340034BE
:1030D4006F3400346C3400346F340034673400349B
:1030E4007934003420340034493400346E340034EC
:1030F400633400342E34003409340234223400346E
:10310400013401340034C03432340934043400341A
:1031140000340134033400340034003409342134DD
:10312400113401340034013422344A340034073475
:103134000534813403344034003401341834033406
:1031440053340034463400344334003420340034DF
:1031540047340034613400346D3400346534003451
:103164007034003461340034643400341234013473
:10317400003402340034003400340834D8340434C5
:103184008834E83401340034013402340034013426
:10319400D03498344A349834A03498340434033402
:0831A400093404347E34983430
:10370600FC302100C105411108006400800101312F
:10371600890B892B0034F00070080319932B952B25
:103726000130962B003008002100BB01BC011A3085
:10373600FD007D08F70001309C311E249B319B3132
:1037460083239B31080001302100B3070030B43DCC
:103756000030B53D0030B63D4A08031DB32BB42BEF
:10376600C12B0130F0007008C2074208031DBC2BB4
:10377600BD2BC12BFF30F0007008C2000800F2001C
:10378600CB2BFC3021009900903027009B00DE2BCC
:103796007208F000F1017108003A0319D32BDE2BF1
:1037A6007008003A0319C42B013A0319DE2B033AB9
:1037B6000319DE2BDE2B08003D001215EF3020002A
:1037C600D60056083D0090058E142100CA01CA0A8B
:1037D600C20175302000D0000030D1000030D20088
:1037E6000030D3000030D400D5009D314B259B31ED
:1037F60008002100CA0174302000D0000030D1003A
:103806000030D2000030D3000030D400D5009D3106
:103816004B259B313D008E101211172CFB302000DA
:10382600D60056083D00900510191A2C1B2C112C99
:103836002100C2010800FC00771D222C232C282C15
:10384600F0017C089D3187259C31F71C2B2C2C2CF4
:10385600322CF001F00A7C089D3187259C317C08CA
:10386600983EF800F9010E30F93D7808FA0079081B
:10387600FB007A0886007B0887007708810008002D
:103886003D00181C472C482C692C20006D0886002A
:10389600870180300106031D512C522C672C6508C8
:1038A60086006608870084300106031D5B2C5C2CAD
:1038B600672C0C30F0006D088600870170088100C7
:1038C6006D088600870181173D001810DF30F00073
:1038D600700890050800F8007108F6007008F500F9
:1038E6007808F4007408F9008F2C750886007608AD
:1038F60087000108F4007408F7000130F50700306E
:10390600F63D7708F400790886008701740881007F
:103916000130F4007408F9070130F2020030F33B7D
:10392600720A031D9A2C730A031D9A2C9B2C782C61
:103936000800023020006C06031DA22CA32CA72C25
:103946008E31EF269C31D52CEC0121004808031D51
:10395600AD2CAE2CD42C20006908013EF6000030B8
:103966006A3DF700760886007708870008308100F0
:103976004030F6000030F700690886006A088700C4
:1039860042317608C03F7708C13F690886006A0859
:1039960087000C308100690886006A088700811755
:1039A600D52CC801080000309B31C2239C319431CC
:1039B60035249C31303021008C00F0308D00FF30F2
:1039C6008E009513303024008C00D0308D002300FB
:1039D6008C018D018E010730210095049511151279
:1039E600951215178B1705302000950095317E2509
:1039F6009C31203020006E020318022D032D042D69
:103A0600F92C3D008E1C082D092D0A2DF92C9D310F
:103A160010259C31F92C8C310C2C203020006E02A4
:103A26000318162D172D182D4A2D3D008E1C1C2D02
:103A36001D2D1E2D4A2D21003B083C040319242D63
:103A4600252D2D2D3B0886003C088700811B2C2D3B
:103A56002D2D4A2DA0308C3123249D31F001F00A02
:103A6600A030FA007A08F1000730FB007B08F2006C
:103A760001309131EC219D3171082100BC007008A4
:103A8600BB008F3199279D319E3114269D31080048
:103A96005E2D01309B31C2239D31862D02309B3134
:103AA600C2239D31862D9B3197239D31862D9431DE
:103AB600D9249D31862D20005108003A0319672D1F
:103AC6007F3A0319812D862D5008013A0319562D88
:103AD600033A0319862D013A03195A2D063A03199A
:103AE600862D773A0319862D013A0319862D073A52
:103AF6000319512D013A03194C2D862D5008FF3A12
:103B06000319862D862D0800F5002030F100710876
:103B1600F6007008F1000130F135890B8F2D75081C
:103B2600F2000130F235FF3E031D952D7235710707
:103B3600F3000130F335FF3E031D9D2D7335F40070
:103B46007408F60776088600870181137008031D3E
:103B5600AD2DAE2DB72D7535B73E8600870176089B
:103B6600C03F0030C13FBF2D7535653E86008701D9
:103B76007608C03F0030C13F7608860087010113F2
:103B86007608043E86008701011708002100CD0152
:103B96002000EB012100C401C301C8012000EC0193
:103BA6007F30DF0065088600660887005F088105AC
:103BB60004306506E50000306606E6007F30DF006B
:103BC60065088600660887005F088105043065067B
:103BD600E50000306606E6007F30DF0069088600F3
:103BE6006A0887005F0881052100B001B101B201B2
:103BF600A901AA01AB019031F3209D3103302000C9
:103C0600D0000030D1000030D2000030D3000030A8
:103C1600D400D5009D314B259D319231F3229D3143
:103C2600080020000D0E890C890C01399B318E236A
:103C36009E31003A0319202E212E652E0B110530D8
:103C460020009500F101F201582E0B1D2B2E2C2E73
:103C5600582E0130F1070030F23D01307202F43087
:103C660003197102031C382E392E542E031021001D
:103C7600411D03140318402E432E21004115452EE5
:103C860021004111F101F20120000D0E890C890C71
:103C960001399B318E239E31003A031D532E542E3B
:103CA600472E0B1105302000950020000D0E890CC3
:103CB600890C01399B318E239E31003A031D642EF7
:103CC600652E282E08002D302000E0006008210017
:103CD600C70020006F08FD39031D722E732EAF2E0C
:103CE6006F363F39E0000130E035FF3E031D772E89
:103CF6006035203EE1006108ED006D08E900FF39FE
:103D0600031D0030EA0004306906E90000306A0647
:103D1600EA006D0886008701010C890C0F390D3AFF
:103D2600031D962E972EAB2E6D08023E8600870148
:103D3600403FF000413FF1000830F2000030F30050
:103D460040309C316E249E319D31C9259E31BB2E5B
:103D56009C319C249E31BB2EFD306F05E000043063
:103D66006006031DB72EB82EBB2E903179209E31EA
:103D760008002100C401C301023020006C06031DA7
:103D8600C52EC62EEB2E6908013EF30000306A3DB3
:103D9600F4007308860074088700083081004830F4
:103DA600F3000030F400690886006A088700423193
:103DB6007308C03F7408C13F690886006A08870017
:103DC60048308100690886006A08870081171C2F21
:103DD6002100320820004702031DF52E210031087C
:103DE600200046020318F82EF92E002F470821005E
:103DF600B200200046082100B1009F3189279E317C
:103E06004830F3000030F40020006508860066089C
:103E1600870042317308C03F7408C13F65088600B9
:103E260066088700483081006508860066088700B6
:103E3600811708002000C801C901662F2100B017AC
:103E46004B03031D272F282F7A2F2000C8147A2F03
:103E56002100B0177A2F2100B017200044080F392F
:103E6600003A0319372F382F7A2FC41B3B2F3C2FCC
:103E7600472F44080F390907B73E86008701403FA0
:103E8600F200413FF300512F44080F390907653E00
:103E960086008701403FF200413FF300720886002A
:103EA60073088700811F582F592F7A2F72088600B2
:103EB60073088700011D602F612F7A2F0130F000F3
:103EC6007008C8007A2F40081F39F000F101710808
:103ED600003A03196F2F7A2F7008003A0319212F21
:103EE600013A03192B2F033A03192E2F7A2F21009B
:103EF600B01F7E2F7F2F882F4830AE000030AF00D6
:103F060030140230F0007008B10008000830F000EC
:103F16007008F20000302100320208300319310225
:103F26000318962F972FAC2F3108F0007008F20077
:103F36004D08031D9F2FA02FA32FCD01CD0AAC2F17
:103F46004D03031DA72FA82FAC2F0230F0007008D9
:103F5600CD007208F000F1017008B1027108B23BA1
:103F660020006508013EF0000030663DF100700853
:103F7600860071088700720881004830F0007008DA
:103F86002100CC003018C82FC92FFA2FDF2F2E089A
:103F960084002F0885000008F0004C088600870181
:103FA600700881000130AE070030AF3D0130F000EF
:103FB6007008CC070130F2027208031DE32FE42FCC
:103FC600CA2FFF2F2E0884002F0885000008F00056
:103FD6004C0886008701700881000130AE0700306A
:103FE600AF3D0130F0007008CC070130F2027208D4
:0A3FF600031DFE2FFF2FE52F08002A
:020000040001F9
:04000E00A40FCF1F4D
:00000001FF
