:041808008C310C2CE7
:101810007E148C317E10090020008C310F2C483052
:1018200084000030850015308F31F9278C3160300D
:1018300084000130850010308F31F9278C31E03081
:101840008400013085000F308F31F9278C317E10F4
:1018500020009D31EC2DF50020000D0E890C890C27
:1018600001398F31F0278C31F1007508023E860076
:101870008701F10E01087106EF3971068100200021
:101880000D0E890C01398F31F0278C31F10075086C
:10189000023E86008701F10EF10D01087106DF3965
:1018A0007106810020000E0E01398F31F0278C3136
:1018B000F1007508033E86008701F10EF10D010865
:1018C0007106DF397106810020005319682C692CDC
:1018D000DF2C0E0CF100F10C710C01398F31F02767
:1018E0008C31F2007508033E86008701F20E010874
:1018F0007206EF397206810020000E0E890C013944
:101900008F31F0278C31F1007508033E8600870186
:10191000F10CF10C010871067F397106810020007D
:101920000C0E890C01398F31F0278C31F1007508CC
:10193000033E86008701F10EF10DF10D01087106DD
:10194000BF397106810020000E0C890C01398F31DE
:10195000F0278C31F1007508033E860087010108ED
:101960007106FE397106810020000C0E01398F319D
:10197000F0278C31F1007508033E86008701F10DD8
:1019800001087106FD39710681007508023E860066
:10199000870181137508023E8600870101137508CF
:1019A000033E8600870101117508043E8600870109
:1019B00081017508053E860087018101662D531D52
:1019C000E22CE32C662D7508033E86008701011288
:1019D0007508033E8600870181137508033E860063
:1019E000870101137508033E860087010110750801
:1019F000033E8600870181100C0E890C01398F315E
:101A0000F0278C31F1007508023E86008701F10C49
:101A1000F10C010871067F397106810020000E0C5F
:101A2000F100F10C710C01398F31F0278C31F2008B
:101A30007508023E86008701F20EF20DF20D0108D4
:101A40007206BF397206810020000E0E890C013922
:101A50008F31F0278C31F1007508033E8600870135
:101A6000F10DF10D01087106FB39710681002000AE
:101A70000E0C890C01398F31F0278C31003A031993
:101A8000422D432D4A2D7508043E86008701FF3004
:101A900081004F2D7508043E8600870181012000DA
:101AA0000C0E01398F31F0278C31003A0319592D72
:101AB0005A2D612D7508053E86008701FF30810093
:101AC000662D7508053E8600870181017508023E76
:101AD0008600870101117508023E86008701811189
:101AE0007508023E8600870101107508023E8600D7
:101AF000870181107508073E8600870181017508FE
:101B0000063E8600870181017508083E8600870130
:101B100081017508093E86008701810175080B3E29
:101B200086008701810175080A3E860087018101D0
:101B300075080C3E86008701810175080D3E860000
:101B400087018101992E0E0E890C890C01398F3184
:101B5000F0278C31F1007508023E86008701F10DF7
:101B6000F10D01087106FB397106810020000D0E90
:101B700001398F31F0278C31F1007508023E860063
:101B80008701F10DF10DF10D01087106F7397106AC
:101B9000810020000D0D0D0D01398F31F0278C31A2
:101BA000F1007508023E8600870101087106FE39C2
:101BB0007106810020000E0D0E0D01398F31F027C6
:101BC0008C31F1007508023E86008701F10D010895
:101BD0007106FD3971068100AE2E0E0E890C890C3E
:101BE00001398F31F0278C31003A0319F82DF92D86
:101BF000002E7508073E8600870180308100172E71
:101C000020000D0E01398F31F0278C31003A031975
:101C10000A2E0B2E172E7508073E860087017F308F
:101C200081007508063E86008701FF308100200094
:101C30000E0D0E0D01398F31F0278C31003A03194A
:101C4000222E232E2A2E7508093E86008701803019
:101C50008100AE2E20000D0D0D0D01398F31F027C2
:101C60008C31003A0319352E362EAE2E7508093EFA
:101C7000860087017F3081007508083E8600870155
:101C8000FF308100AE2E0E0E890C890C01398F3188
:101C9000F0278C31003A03194E2E4F2E562E750820
:101CA0000B3E86008701803081006D2E20000D0ED6
:101CB00001398F31F0278C31003A0319602E612EE3
:101CC0006D2E75080B3E860087017F3081007508F8
:101CD0000A3E86008701FF30810020000E0D0E0DA8
:101CE00001398F31F0278C31003A0319782E792E83
:101CF000802E75080D3E8600870180308100AE2E53
:101D000020000D0D0D0D01398F31F0278C31003A77
:101D100003198B2E8C2EAE2E75080D3E8600870182
:101D20007F30810075080C3E86008701FF308100FE
:101D3000AE2E200053080339F100F2017208003A78
:101D40000319A32EAE2E7108003A0319A32D013AF0
:101D50000319ED2D033A0319432EAE2EF301F401BE
:101D600073087507F10071080E3E86008701810136
:101D70000130F3070030F43D7408803AF100803000
:101D80007102031DC52E06307302031CC82EC92E16
:101D9000B02E080020005908031DCF2ED02EE22EB1
:101DA0003D008E019201163091009F3097007B30EC
:101DB0009200DB2E8E158E1DDE2EDF2EDA2E2000F9
:101DC000D901D90A5903031DE62EE72EF32E3D0053
:101DD0008E1AEB2EEC2EF32E900192011214121695
:101DE00002302000D9003D00101DF72EF82E052FDF
:101DF000121DFB2EFC2E052FFB302000EE006E087E
:101E00003D0090059C3169248E313D008E1C092FC8
:101E10000A2F0D2F20001211EF2F101C102F112F41
:101E2000202F121C142F152F202F953169258E314C
:101E300004302000D900FE30EE006E083D00900511
:101E4000101E232F242F2B2F121E272F282F2B2F2E
:101E50009C3131248E313D00101F2F2F302F5D2FEC
:101E6000121F332F342F442F73302000DD00003039
:101E7000DE000030DF000030E0000130E100003023
:101E8000E2009E3126268E31BF302000EE006E0823
:101E90003D0090059C3116248E3122006B080319F9
:101EA000522F532F552F0130EB026B08031D592F72
:101EB0005A2F5D2F903107208E313D00901E612FEB
:101EC000622F692F921E652F662F692F9D31212564
:101ED0008E313D00901C6D2F6E2F842F921C712F20
:101EE000722F842FFF302000DD007F30DE000030B5
:101EF000DF000030E0000130E1000030E2009E3100
:101F000026268E313D00930104302000590203182B
:101F10008A2F8B2F8D2F1211EF2F3D00921D912FA5
:101F2000922FED2F2000EF013D00901D982F992F4B
:101F3000ED2F0F082000DA005A0CEE00EE0C6E0CAC
:101F40000F39D500F730EE006E083D0090052000F7
:101F50005A19AB2FAC2FBC2F5508623E86000130BA
:101F6000870001080139EE000130EE0601086E0617
:101F7000FE396E068100CB2F5508643E8600013085
:101F8000870001080139EE000130EE0601086E06F7
:101F9000FE396E0681005508031DCF2FD02FD42F98
:101FA0009E31ED268E31E22F7230DD000030DE00F2
:101FB0005A30DF000030E0000030E100E2009E31E6
:101FC00026268E3101302000EE006E08EF07043027
:101FD0006F02031CEC2FED2F942F2000121108002C
:101FE000F00070080319F52FF72F0130F82F00309B
:0E1FF0000800640080010131890BFA2F0034D3
:10200E0022006A08031D0C280D2875280130EA00ED
:10201E006908031D1328142875280130E9000230C1
:10202E0020005606031D1C281D282F284D0886004B
:10203E004E088700413181014D0886004E08870009
:10204E00483081004D0886004E088700811775289C
:10205E005603031D3328342875282200EC01200076
:10206E00580A86008701403081004030F000003071
:10207E00F1005808023E860087017008C03F7108C3
:10208E00C13F580886008701043081005808860039
:10209E00870181172200EC01EC0A20005108013E55
:1020AE00F0000030523DF100700886007108870084
:1020BE00403081004030F0000030F10051088600C1
:1020CE005208870042317008C03F7108C13F510865
:1020DE008600520887008030810075280800200095
:1020EE00400E890C0339003A03197E287F28BA283E
:1020FE00E528CA170830D900E5289231B22290316E
:10210E00E52892313D229031E5285C30C800003040
:10211E00C9004A14CB01CB0ACA17E5289F3198276C
:10212E009031E5289631B2269031E52844085B3E81
:10213E00C8000030C9009028CA1744085B3E8600CC
:10214E00870142088100E5280230DD000030DE0004
:10215E000030DF000030E0000030E100E2009E3190
:10216E0026269031E5284108EA00EB016B08003A7B
:10217E000319C228E5286A08003A03199528013A7E
:10218E0003199928023A03199928063A0319802847
:10219E00033A03198428013A0319AB280F3A03199D
:1021AE008C28013A03198828033A03199D28013A0D
:1021BE000319A328073A0319E528E528080040303B
:1021CE00F200003020004C02403003194B0203187D
:1021DE00F128F22803294B08F2005708031DF828AE
:1021EE00F928FC28D701D70A03295703031D002914
:1021FE00012903290230D7007208F000F10170089E
:10220E00CB027108CC3B4D08013EF00000304E3D34
:10221E00F100700886007108870072088100B030E6
:10222E002200EF0020004A181D291E2951293529A8
:10223E0022006F08860087012000480884004908A4
:10224E008500000881000130C8070030C93D01300B
:10225E00F00070082200EF070130F2027208031D31
:10226E0039293A291F29562922006F08860087012D
:10227E0020004808840049088500000881000130CC
:10228E00C8070030C93D0130F00070082200EF078A
:10229E000130F2027208031D552956293B29080008
:1022AE0020000D0E890C890C01398F31F0279131E8
:1022BE00003A031963296429C92920000C0E01393B
:1022CE008F31F0279131003A03196E296F29C929F0
:1022DE000B11053020009500F101F201B1290B1D03
:1022EE0079297A29B1290130F1070030F23D003009
:1022FE007202FA3003197102031C86298729AD294F
:10230E0003102000531D031403188E299129200059
:10231E005315932920005311F101F20120000D0EE7
:10232E00890C890C01398F31F0279131003A03194C
:10233E00A129A229AD2920000C0E01398F31F027D9
:10234E009131003A031DAC29AD2995290B110530A9
:10235E002000950020000D0E890C890C01398F315B
:10236E00F0279131003A0319BD29BE29C929200051
:10237E000C0E01398F31F0279131003A031DC82917
:10238E00C9297629080020004D0886004E088700CE
:10239E000030011B0130F50004304D06CD00003039
:1023AE004E06CE0008305906031DDE29DF29EF291F
:1023BE0042087F393D00960016080319E729E829DF
:1023CE00EC2910302000D900EF2904302000D9006C
:1023DE005603031DF329F429342AB030F3000030DC
:1023EE00F4004D0886004E08870042317308C03F46
:1023FE007408C13F9031E62091310230200057061B
:10240E00031D0A2A0B2A172A4D0886004E0887003C
:10241E00043081004D0886004E08870081173C2A43
:10242E007508031D1B2A1C2A282A4D0886004E08F3
:10243E008700483081004D0886004E0887008117BE
:10244E003C2A4D0886004E088700083081004D0852
:10245E0086004E08870081173C2A2300E21F382A87
:10246E00392A3A2AE2132000D60108002000CA17A2
:10247E000E30E4009930E300E5016308860064083D
:10248E00870081010130E3070030E43D0130FD009B
:10249E007D08E50765080319552A562A442A003097
:1024AE00F000F1002030F2000030F30020309431C3
:1024BE003F2492313D000E172000E6016608643E6F
:1024CE0086000130870081016608623E8600013079
:1024DE00870081010130FD007D08E60702306602AB
:1024EE00031C7A2A7B2A652A0030F000F1000130A5
:1024FE00F2000030F3005B3094313F2492313D0006
:10250E000E1328302000CD000030CE002030D80031
:10251E005808D100FF39031D0030D2004208DC00FC
:10252E005C08031D9B2A9C2A9F2A1030D900B12AD1
:10253E000130DD000030DE005C30DF000030E000F6
:10254E000130E1000030E2009E312626923120302B
:10255E002000D9000800803020004006031DB82A54
:10256E00B92A2C2BC030CA00192B9F30C8009830C6
:10257E00C9001230CB000030CC002C2B4208031DBA
:10258E00C92ACA2AF52A4208F000F101F035F10DE8
:10259E00E730700784001830713D80388500003FA9
:1025AE00C800013FC9004908F1004808F000023098
:1025BE007007840071080318710A85000008CB00AB
:1025CE004908F1004808F0000330700784007108D4
:1025DE000318710A85000008CC002C2BCA012C2B85
:1025EE00033042020318FC2AFD2AF52A4208F000A5
:1025FE00F101F035F10DDB30700784001830713DBC
:10260E0080388500003FC800013FC900480884009B
:10261E00490885000008F000F1017008CB00710830
:10262E00CC002C2B4308F000F1017108003A03197D
:10263E00212BF52A7008013A0319BC2A033A031913
:10264E00C52A013A0319F72AF52A0800F70070087F
:10265E000319322B332B3C2B77354D3E86008701E9
:10266E00403FF800413FF900452B7735EB3E8600A1
:10267E0001308700403FF800413FF90078087904A7
:10268E00031D4A2B4B2B4E2BF001F101B12B710880
:10269E00F3000030F4007808860079088700423194
:1026AE007308C03F7408C13F7808013EF300003044
:1026BE00793DF40073088600740887007208810063
:1026CE004030F3007808860079088700730881058A
:1026DE0078088600790887008115780886007908C1
:1026EE0087008117700803197D2B7E2B952B77356C
:1026FE004D3E86008701403FF300413FF400043019
:10270E007306F50000307406F60077354D3E8600F0
:10271E0087017508C03F7608C13FAD2B7735EB3E7C
:10272E00860001308700403FF300413FF400043043
:10273E007306F50000307406F6007735EB3E860022
:10274E00013087007508C03F7608C13F7908F10057
:10275E007808F000080020000D0E890C890C013954
:10276E008F31F0279331003A0319BE2BBF2B3E2C2D
:10277E0020000E0C890C01398F31F0279331003A6D
:10278E000319CA2BCB2B3E2C0B11053020009500C4
:10279E00F301F401252C0B1DD52BD62B252C013046
:1027AE00F3070030F43D00307402FA30031973025F
:1027BE00031CE22BE32B212CF12B5308FC3901389F
:1027CE00D300062C5308FC390238D300062CFC30FB
:1027DE00D305062C200053080339F100F2017208CC
:1027EE00003A0319FB2B062C7108003A0319E42B4F
:1027FE00013A0319E92B033A0319EE2B062CF301C8
:10280E00F40120000D0E890C890C01398F31F0274F
:10281E009331003A0319142C152C212C20000E0C88
:10282E00890C01398F31F0279331003A031D202C8A
:10283E00212C082C0B1105302000950020000D0EC8
:10284E00890C890C01398F31F0279331003A031925
:10285E00312C322C3E2C20000E0C890C01398F317C
:10286E00F0279331003A031D3D2C3E2CD22B08004D
:10287E00F8007808F90072087304031D472C482CE1
:10288E00492CCE2C790886008701700881007208C9
:10289E007907F4007408FF3E8600870170088100F6
:1028AE000030730203300319720203185F2C602C80
:1028BE00612CCE2C790A8600870170088100790878
:1028CE00023E860087017008810072087907F400C5
:1028DE007408FE3E86008701700881007208790731
:1028EE00F4007408FD3E86008701700881000030F8
:1028FE0073020730031972020318862C872C882C5A
:10290E00CE2C7908033E860087017008810072087C
:10291E007907F4007408FC3E860087017008810078
:10292E000030730209300319720203189F2CA02C79
:10293E00A12CCE2C7909F4007A09F500F40A0319BA
:10294E00F50A03307405F60000307505F7007608B9
:10295E00F4007408F9077608F2027708F33BFC30AE
:10296E00F205FF30F305C82C790886008701700840
:10297E0081000130F2020030F33B0130F4007408A4
:10298E00F90772087304031DCD2CCE2CBB2C080046
:10299E003D000E122000CA1BD52CD62C1C2D230058
:1029AE00E21FDA2CDB2CEB2C02302000D6002200AA
:1029BE006708031DE32CE42CE72C9F313E2794314E
:1029CE002200E901EA01682D20005108013EF500C0
:1029DE000030523DF60075088600760887004030BC
:1029EE0081004030F5000030F60051088600520894
:1029FE00870042317508C03F7608C13F51088600F6
:102A0E00520887000C30810051088600520887005A
:102A1E0081174D0886004E088700043081004D084E
:102A2E0086004E0887008117682DC01F1F2D202D90
:102A3E00382DD601D60A22006808031D272D282D11
:102A4E002B2D9F313E2794312200E901EA0120000F
:102A5E005408031D332D342D682D903107209431E9
:102A6E00682D0230D6005108013EF5000030523D6F
:102A7E00F6007508860076088700403081004030E9
:102A8E00F5000030F60051088600520887004231EA
:102A9E007508C03F7608C13F51088600520887006E
:102AAE0004308100510886005208870081172200E9
:102ABE00E901EA0120005408031D662D672D682DDB
:102ACE00342D0800210012113D0093019001980150
:102ADE000E30F2009930F100F30171088600720891
:102AEE00870081010130F1070030F23D0130F00026
:102AFE007008F30773080319852D862D742D163073
:102B0E003D0091009F3097007B309200F4017408D5
:102B1E00F0000130F035FF3E031D912D7035203E43
:102B2E00860087010030C03F0030C13FC23FC33F27
:102B3E000130F0007008F40708307402031CA82D51
:102B4E00A92D8E2D3D000E1796010E120E13F73085
:102B5E00F000700890052000CA012300E201E30195
:102B6E00E4013D009019BC2DBD2DAE2D013022008B
:102B7E00EA000130E900E801E701ED01F4017435E6
:102B8E004D3E860087010030C03FC13F7435EB3E9D
:102B9E008600013087000030C03FC13F7408643E9C
:102BAE0086000130870081017408623E8600013084
:102BBE00870081010130F0007008F40702307402C2
:102BCE00031CEA2DEB2DC62D28302000CD00003041
:102BDE00CE0016303D00980000302000A30040309B
:102BEE00A2004030A1000430A000A017DC0100308C
:102BFE002300EA000030E9000030E8000030E70072
:102C0E002200E6012000D9010800200058088600A5
:102C1E008701413FF5007508F200F30173082300A8
:102C2E006402031D1C2E7208630203181F2E202E31
:102C3E00222E6308F5007508F200F3017208E30214
:102C4E007308E43BF4013C2E60088600870174088B
:102C5E00B03E84008501000881000130F200720848
:102C6E00E0070130F2007208F40775087402031CC5
:102C7E00412E422E2B2E630864040319472E482E34
:102C8E00812E20005108013EF2000030523DF3002B
:102C9E00720886007308870040308100B030F20061
:102CAE000030F30051088600520887004231720846
:102CBE00C03F7308C13F580886008701011B682E6C
:102CCE00692E752E51088600520887004830810003
:102CDE0051088600520887008117B12E51088600D0
:102CEE00520887000830810051088600520887007C
:102CFE008117B12E20005108013EF2000030523DE6
:102D0E00F30072088600730887004030810040305F
:102D1E00F2000030F300510886005208870042315D
:102D2E007208C03F7308C13F5108860052088700E1
:102D3E000430810051088600520887008117230055
:102D4E00E21320005408031DAD2EAE2EB12E90318D
:102D5E0007209631080020004203031DB72EB82E1F
:102D6E00CC2E40081F39003A031DBE2EBF2ECC2E8E
:102D7E00CA1703304106031DC52EC62ECA2E2200C9
:102D8E00EE01EE0ACC2E2200EE0120004208031DB9
:102D9E00D12ED22EFF2F40081F39023A031DD82EF6
:102DAE00D92EFF2F44080F39003A0319DF2EE02EDB
:102DBE00FF2F44080F39E300023063020318E82E98
:102DCE00E92EFF2F20305906031DEE2EEF2EFF2F7A
:102DDE00CA17C41BF32EF42E082F44080F39090707
:102DEE00EB3E860001308700403FE800413FE9009E
:102DFE0044080F39623E8600013087000108E70063
:102E0E001A2F44080F3909074D3E86008701403FAF
:102E1E00E800413FE90044080F39643E8600013066
:102E2E0087000108E70067181D2F1E2F292FFB3082
:102E3E00E300FF30E40068086305E80069086405F4
:102E4E00E9002F2F04306804E80000306904E9001F
:102E5E00C41B322F332F3F2F44080F390907EB3E87
:102E6E008600013087006808C03F6908C13F492FBE
:102E7E0044080F3909074D3E860087016808C03F98
:102E8E006908C13F03304106031D4E2F4F2F752F8A
:102E9E006808860069088700811F562F572F6A2FF2
:102EAE00C41B5A2F5B2F632F44080F39623E8600D6
:102EBE000130870081146A2F44080F39643E860062
:102ECE0001308700811468088600690887000115A3
:102EDE0068088600690887008117FF2F043068068E
:102EEE00E80000306906E900680886006908870076
:102EFE00811F822F832FA02F7F30E300680886006A
:102F0E0069088700630881056808860069088700DC
:102F1E0001170530DD000030DE006908E0006808AA
:102F2E00DF000230E1000030E2009E3126269631AD
:102F3E00A52F680886006908870001170430200055
:102F4E006806E80000306906E900E718AF2FB02FD9
:102F5E00B82F6808860069088700811FB72FB82F21
:102F6E00E32FC41BBB2FBC2FC42F44080F39623E66
:102F7E008600013087008110CB2F44080F39643E44
:102F8E0086000130870081103B30E3006808860020
:102F9E0069088700630881050530DD000030DE001A
:102FAE006908E0006808DF000230E1000030E2004E
:102FBE009E3126269631EB2F3B30E30068088600C3
:102FCE006908870063088105200044080F39983E80
:102FDE00E300E4010E30E43D6308E5006408E6001A
:102FEE00FE30E300650886006608870063088105E9
:102FFE000800093402348B340034043401340034B4
:10300E00A034FA3409340434003400340234FF346A
:10301E005D34013400341134213410340134013460
:10302E002534813414340334033403340434133418
:10303E000234083403340334073405348134033442
:10304E00203400340434073405340234033420347D
:10305E000034083409340434013400340234FF34AB
:10306E005D34033400341B34213400340134013414
:10307E00013483344034013404342034163485341E
:10308E000034003400340034003400341634053477
:10309E000034003400340034003400340734053476
:1030AE0083340334203400340234073405340434BA
:1030BE00033420340034043409340434023400342C
:1030CE000134FF345D3402340034093421340034C9
:1030DE000134013422348634073400340734053485
:1030EE008634033420340034103409340434033469
:1030FE0000340034FF34FD341334043406344134C8
:10310E00003401340134033400341434FF34F73402
:10311E00FF34FF34C034FF34C034FF34C034FF34C6
:10312E00C034FF3400340034003400340034003432
:10313E001234013400340234FF34FF34FF3440348F
:10314E005E3404348E3402341434013401340234C7
:10315E00033401340E340334583400342034003434
:10316E005434003445340034533400345434003471
:10317E000E340334583400342034003454340034C4
:10318E004534003453340034543400340E34033494
:10319E005834003420340034543400344534003470
:1031AE005334003454340034E3349834CD349834EA
:1031BE00BF349834B13498340434033409340434AD
:0431CE0000349834FD
:10382C0001302300E7070030E83D0030E93D00306F
:10383C00EA3D22006D08031D242C252C302C013070
:10384C00F0007008E6076608031D2D2C2E2C302C7A
:10385C00FF30E60008003D001215EF30FD007D083A
:10386C0090058E142200ED01ED0AE6017530200062
:10387C00DD000030DE000030DF000030E000003002
:10388C00E100E2009E3126269C310800F200552C06
:10389C00FC3021009900903027009B00682C7208A6
:1038AC00F000F1017108003A03195D2C682C7008C6
:1038BC00003A03194E2C013A0319682C033A0319E8
:1038CC00682C682C08002200ED0174302000DD000B
:1038DC000030DE000030DF000030E0000030E1009E
:1038EC00E2009E3126269C313D008E101211822C56
:1038FC00FB30FD007D0890051019852C862C7E2C44
:10390C002200E6010800F100FC302000D305531121
:10391C00F201F30172087107F0007008860087014C
:10392C0081010130F2070030F33D7308803AF0005A
:10393C0080307002031DA42C15307202031CA72CBE
:10394C00A82C902C710A8600870114308100080085
:10395C00FC00771DB22CB32CB82CF0017C089E31E6
:10396C0062269C31F71CBB2CBC2CC22CF001F00A3B
:10397C007C089E3162269C317C08983EF800F90147
:10398C000E30F93D7808FA007908FB007A088600B9
:10399C007B088700770881000800A0309C318924BF
:1039AC009C312200E001E1011E30F70001309C3116
:1039BC00AE249C311E30F70002309C31AE249C3179
:1039CC001E30F70003309C31AE249C311E30F700C2
:1039DC0004309C31AE249C311E30F70006309C31F3
:1039EC00AE249C310800F8007108F6007008F50050
:1039FC007808F900142D75088600760887000108F0
:103A0C00F7000130F5070030F63D79088600870194
:103A1C00770881000130F4007408F9070130F202D4
:103A2C000030F33B720A031D1F2D730A031D1F2D5B
:103A3C00202D012D08003D00181C252D262D452D6F
:103A4C00200058088600870180300106031D2F2DA9
:103A5C00302D432D4D0886004E088700843001061A
:103A6C00031D392D3A2D432D5808860087010C3043
:103A7C00810058088600870181173D001810DF303F
:103A8C00F000700890050800FE3020004005F000A2
:103A9C00C0307006031D532D542D7A2D4103031D88
:103AAC00582D592D7A2D44084504031D5E2D5F2D8C
:103ABC007A2D1430F1000030F2000030470214303F
:103ACC000319460203186B2D6C2D702D4708F2005C
:103ADC004608F1008B30C8009830C9007208CC0041
:103AEC007108CB00C030CA000800203020005902F9
:103AFC000318812D822D832DB12D3D008E1C872D19
:103B0C00882D892DB12D22006008610403198F2D99
:103B1C00902D982D6008860061088700811B972DD9
:103B2C00982DB12DA0308C312B249D31F001F00A51
:103B3C00A030F1001430F200013093312D239D316F
:103B4C0071082200E1007008E0009331B2239D312E
:103B5C00913157219D310800023020005606031D7B
:103B6C00B82DB92DBD2D96310C269D31EB2DD601DE
:103B7C0022006C08031DC32DC42DEA2D2000510812
:103B8C00013EF6000030523DF700760886007708BB
:103B9C008700403081004030F6000030F7005108BB
:103BAC0086005208870042317608C03F7708C13F33
:103BBC0051088600520887000C308100510886009D
:103BCC00520887008117EB2DEC01080000309C3166
:103BDC004C249D31953169259D31303021008C006C
:103BEC00F0308D00FF308E009513303024008C00A7
:103BFC00D0308D0023008C018D018E010730210007
:103C0C00950495111512951215178B170530200078
:103C1C0095008E31CA269D312030200059020318A0
:103C2C00182E192E1A2E0F2E3D008E1C1E2E1F2EF6
:103C3C00202E0F2E9D317B259D310F2E8C310C2C7F
:103C4C00392E01309C314C249E31612E02309C3136
:103C5C004C249E31612E9C31D3249E31612E9D319A
:103C6C004A259E31612E20005E08003A0319422E2F
:103C7C007F3A03195C2E612E5D08013A0319312E2F
:103C8C00033A0319612E013A0319352E063A03192A
:103C9C00612E773A0319612E013A0319612E073A06
:103CAC0003192C2E013A0319272E612E5D08FF3AB9
:103CBC000319612E612E0800F5002030F600700803
:103CCC00F1000130F135890B682E7508F2000130D6
:103CDC00F235FF3E031D6E2E72357107F300013075
:103CEC00F335FF3E031D762E7335F4007408F6078A
:103CFC0076088600870181137008031D862E872E97
:103D0C00912E7535EB3E8600013087007608C03F5A
:103D1C000030C13F992E75354D3E860087017608DF
:103D2C00C03F0030C13F760886008701011376083A
:103D3C00043E86008701011708002000D701D4013A
:103D4C002200E801E701EC012000D6017F30EC00F5
:103D5C004D0886004E0887006C08810504304D061E
:103D6C00CD0000304E06CE007F30EC004D088600B2
:103D7C004E0887006C08810504304D06CD000030DC
:103D8C004E06CE007F30EC005108860052088700AA
:103D9C006C088105CA01CB01CC012300E201E301CF
:103DAC00E401903176209E3103302000DD0000309C
:103DBC00DE000030DF000030E0000030E100E20007
:103DCC009E3126269E319431CF249E3108002D3011
:103DDC002200EB0020005A08FD39031DF62EF72EA9
:103DEC00312F5A363F39ED000130ED35FF3E031DC2
:103DFC00FB2E6D35203ED8005808D100FF39031D2D
:103E0C000030D20004305106D10000305206D200EE
:103E1C00580886008701010C890C0F390D3A031DD7
:103E2C00182F192F2D2F5808023E86008701403F6E
:103E3C00F000413FF1000830F2000030F300403058
:103E4C009C31F9249E319E31A3269E313D2F9D310C
:103E5C00B2259E313D2FFD305A05ED0004306D0624
:103E6C00031D392F3A2F3D2F9131CA219E31080065
:103E7C002200E801E701023020005606031D472FFF
:103E8C00482F6D2F5108013EF3000030523DF400D5
:103E9C00730886007408870040308100B030F3004E
:103EAC000030F40051088600520887004231730834
:103EBC00C03F7408C13F5108860052088700483043
:103ECC00810051088600520887008117972F4C08F3
:103EDC004702031D732F4B0846020318762F772FCA
:103EEC007B2F4708CC004608CB009031E6209F3151
:103EFC00B030F3000030F40020004D0886004E086E
:103F0C00870042317308C03F7408C13F4D088600DA
:103F1C004E088700483081004D0886004E08870007
:103F2C00811708002100B001B101DE2FCA17220051
:103F3C006E03031DA22FA32FF32F2100B014F32F18
:103F4C00CA17F32FCA1744080F39003A0319AF2FB9
:103F5C00B02FF32FC41BB32FB42FC02F44080F392D
:103F6C000907EB3E860001308700403FF200413FDD
:103F7C00F300CA2F44080F3909074D3E860087010C
:103F8C00403FF200413FF30072088600730887003F
:103F9C00811FD12FD22FF32F720886007308870050
:103FAC00011DD92FDA2FF32F01302100B000F32F90
:103FBC00200040081F39F000F1017108003A031984
:103FCC00E82FF32F7008003A03199C2F013A0319BC
:103FDC00A62F033A0319A82FF32F2000CA1FF72F7F
:103FEC00F82FFF2FB030C8000030C9004A1402303F
:043FFC00CB000800EE
:020000040001F9
:08000000FF3FFF3FFF3FFF3F00
:04000E00A40FCF1F4D
:00000001FF
