:041808008C310C2CE7
:101810007E148C317E10090020008C310F2CFC01CD
:10182000FD01A83084000030850037309031002061
:101830008C31203084000130850040309031002010
:101840008C31A03084000130850040309031002080
:101850008C312030840002308500403090310020EF
:101860008C31A0308400023085004030903100205F
:101870008C317E1020009C31B62C7908F10078085C
:10188000F0000030F200F3000830F4000030F50002
:101890009A3176228C3120000D0D0D0D01399931D0
:1018A000DF218C312000DC000E0D0E0D0139993145
:1018B000DF218C312000DD000E0E890C890C0139EE
:1018C0009931DF218C312000DE000D0E0139993174
:1018D000DF218C312000DF00DB015B089D31F62524
:1018E0008C31003A031D752C762C772CA92C0030F6
:1018F000210048190130F00020005B089A31ED22E8
:101900008C312000DA005A080319872C882CA92C66
:101910000F305A02031C8D2C8E2C8F2CA92C5A08A8
:10192000FE3E840098300318013E85000008D00078
:101930005A08EF3E840098300318013E85000008E5
:10194000D1005008780786000030793D87005108A3
:10195000810401302000DB0708305B02031CB12C3E
:10196000B22C6D2C78088600870142310108F039CD
:101970000838810078088600870143318030810073
:10198000780886008701443180308100780886001D
:101990008701453180308100780886008701463113
:1019A00080308100CF2D20005E080319D82CD92C5F
:1019B000DF2C78088600870143318101EA2C5F081B
:1019C0000319E32CE42CEA2C7808860087014331C4
:1019D000FF3081005C080319EE2CEF2CF52C780801
:1019E0008600870144318101DC2D5D080319F92C43
:1019F000FA2CDC2D7808860087014431FF30810005
:101A0000DC2D20005C080319062D072D152D5E081E
:101A100003190B2D0C2D152D7808860087014231F6
:101A20000108F03907388100DC2D5C080319192DF5
:101A30001A2D282D5F0803191E2D1F2D282D78081B
:101A40008600870142310108F03901388100DC2D20
:101A50005D0803192C2D2D2D3B2D5E080319312D0A
:101A6000322D3B2D78088600870142310108F0397C
:101A700005388100DC2D5D0803193F2D402D4E2DCA
:101A80005F080319442D452D4E2D780886008701E7
:101A900042310108F03903388100DC2D5C0803195C
:101AA000522D532D5A2D7808860087014231F0308F
:101AB0008105DC2D5F0803195E2D5F2D682D7808E8
:101AC0008600870142310108F03902388100DC2D9F
:101AD0005D0803196C2D6D2D762D78088600870121
:101AE00042310108F03904388100DC2D5E08031909
:101AF0007A2D7B2D842D78088600870142310108DC
:101B0000F03906388100DC2D7808860087014231E3
:101B10000108F03908388100DC2D20005E08031D23
:101B2000922D932DA62D5F08031D972D982D9D2D89
:101B30008030D4000030D500A12DFF30D40000301B
:101B4000D5005508D3005408D200A82DD201D301E6
:101B50007808860087014531520881005C08031D22
:101B6000B22DB32DC62D5D08031DB72DB82DBD2D8B
:101B70008030D8000030D900C12DFF30D8000030AF
:101B8000D9005908D7005808D600C82DD601D7016A
:101B9000780886008701463156088100DC2D210037
:101BA00048080339003A0319D32C013A0319012DCF
:101BB000033A03198D2DDC2D080020004203031D7C
:101BC000E22DE32DF92D40081F39003A031DE92DC0
:101BD000EA2DF92D2100B117033020004106031D25
:101BE000F22DF32DF72D01302100D300F92D210026
:101BF000D30120004208031DFE2DFF2D2B2F40088E
:101C00001F39023A031D052E062E2B2F44080F39CB
:101C1000003A03190C2E0D2E2B2F44080F39D70034
:101C2000023057020318152E162E2B2F20302100BC
:101C30005806031D1C2E1D2E2B2FB1172000C41B70
:101C4000222E232E3A2E44080F39D7000130D735E3
:101C5000890B272E5708BC3E86008701403FDB00DA
:101C6000413FDC0044080F39C23E8600870101086D
:101C7000DA00502E44080F39D7000130D735890BD0
:101C80003E2E5708B83E86008701403FDB00413FAB
:101C9000DC0044080F39C43E860087010108DA00E1
:101CA0005A18532E542E5F2EFB30D700FF30D80029
:101CB0005B085705DB005C085805DC00652E043026
:101CC0005B04DB0000305C04DC00C41B682E692E62
:101CD000792E44080F39D7000130D735890B6D2E86
:101CE0005708BC3E860087015B08C03F5C08C13FC7
:101CF000882E44080F39D7000130D735890B7D2E47
:101D00005708B83E860087015B08C03F5C08C13FAA
:101D100003304106031D8D2E8E2EB22E5B088600E9
:101D20005C088700811F952E962EA72EC41B992E26
:101D30009A2EA12E44080F39C23E860087018114D5
:101D4000A72E44080F39C43E8600870181145B0822
:101D500086005C08870001155B0886005C08870028
:101D600081172B2F04305B06DB0000305C06DC00A3
:101D70005B0886005C088700811FBF2EC02EDB2E0B
:101D80005B0886005C0887007F3081055B08860061
:101D90005C08870001170530D1000030D2005C08D4
:101DA000D4005B08D3000230D5000030D6009C314F
:101DB0007A248D31E02E5B0886005C0887000117CD
:101DC000043020005B06DB0000305C06DC00DA1823
:101DD000EA2EEB2EF32E5B0886005C088700811F3D
:101DE000F22EF32E1A2FC41BF62EF72EFE2E4408C9
:101DF0000F39C23E860087018110042F44080F3935
:101E0000C43E8600870181105B0886005C0887005D
:101E10003B3081050530D1000030D2005C08D40091
:101E20005B08D3000230D5000030D6009C317A2404
:101E30008D31202F5B0886005C0887003B308105D0
:101E4000200044080F39983ED900590886000E300A
:101E50008700FE30810508002100570A86008701AF
:101E600001082000ED006D08E800E9016908210083
:101E70002C02031D3F2F2000680821002B020318AD
:101E8000422F432F462F2B082000ED0020006D0825
:101E9000E800E90168082100AB0220006908210080
:101EA000AC3B2000EC01682F21002808860029089F
:101EB000870020006C08483E8400850100088100EE
:101EC00001302100A8070030A93D01302000EC07B7
:101ED0006D086C02031C6D2F6E2F542F21002B08F0
:101EE0002C040319742F752FB22F4608860047085B
:101EF000870041310830810048302000E800003080
:101F0000E900FF306805EA007F306905EB00210039
:101F10004608860047088700423120006A08C03F13
:101F20006B08C13F2100570886008701011B992FCC
:101F30009A2FA62F46088600470887004830810060
:101F400046088600470887008117EE2F460886005E
:101F50004708870008308100460886004708870048
:101F60008117EE2F46088600470887004131083068
:101F7000810040302000E8000030E90021004608E0
:101F8000860047088700423120006808C03F690882
:101F9000C13F2100460886004708870004308100C1
:101FA000460886004708870081172D082E0403196C
:101FB000DA2FDB2FE42F0530A83E86008701413F52
:101FC0008A00403F0A008F312100AA134E08031DEA
:101FD000EA2FEB2FEE2F9F311B278F3108000130A6
:101FE000F00023009518F52FF62FFB2F1518F92F69
:101FF000FA2FFB2FF001700808002300951108004C
:10200000640080010131890B012800342D3021004A
:10201000CF005D08FD39031D0E280F284E285D08EE
:10202000DF000130DF36890B12285F083F39E000FE
:102030000230E035890B19286008203ED700570888
:10204000C600C70104304606C60000304706C70078
:10205000570886008701010C890C0F390D3A031DC2
:10206000322833284A284030F0000030F100570869
:10207000023E86008701403FF200413FF3000830F6
:10208000F4000030F5009B313A2390319D31332527
:1020900090315A289B31CB2390315A28FD305D0571
:1020A000DF0004305F06031D562857285A28953153
:1020B0000A25903108002100CB01CA0102305506E3
:1020C000031D632864288A2846088600470887007D
:1020D0004131083081004830F3000030F400FF3017
:1020E0007305F5007F307405F60046088600470842
:1020F000870042317508C03F7608C13F4608860018
:102100004708870048308100460886004708870056
:102110008117C028330820004702031D932821009F
:102120003208200046020318962897289E28470860
:102130002100B300200046082100B2009E3156263F
:1021400090314830F3000030F400FF307305F500A3
:102150007F307405F60021003808860039088700B2
:1021600042317508C03F7608C13F380886003908FB
:1021700087004830810038088600390887008117B9
:1021800008002000C801C90112292100B11753031A
:10219000031DCB28CC281E292000C8141E2921008D
:1021A000B1171E292100B117200044080F39003A49
:1021B0000319DB28DC281E29C41BDF28E028F028AF
:1021C00044080F39F0000130F035890BE42870081D
:1021D000BC3E86008701403FF100413FF200FF28EE
:1021E00044080F39F0000130F035890BF4287008ED
:1021F000B83E86008701403FF100413FF200710880
:10220000860072088700811F062907291E29710888
:10221000860072088700011D0E290F291E29013032
:10222000C8001E2940081F39003A0319C528013A81
:102230000319CF28033A0319D2281E292100B11F00
:10224000222923292A294830AF000030B000311458
:102250000230B20008002000400E890C0339003A19
:10226000031933293429732996292100B11708301D
:10227000D8009629913197219131962992310822DF
:1022800091319629DE302100AF000030B0003114CA
:102290000130B200B11796299031C12091319629B1
:1022A0008D31DD25913196294408D93E2100AF00BA
:1022B0000030B00047292100B11720004408D93E62
:1022C000860087014208810096290230D100003043
:1022D000D2000030D300D4000030D500D6009C31AD
:1022E0007A24913196294108003A03194C29013A80
:1022F00003195029023A03195029063A03193529BE
:10230000033A03193A29013A031965290F3A0319C7
:102310004229013A03193E29033A03195429013A83
:1023200003195B29073A031996299629080080307A
:1023300020004006031D9D299E29072AC030210048
:10234000B100FB29DD302100AF009830B000123021
:10235000B2000030B300072A4208031DB029B1299A
:10236000D5294208F000F101F035F10D1730700762
:1023700084001930713D80388500003F2100AF0096
:10238000013FB00002302F07840030080318013EDF
:1023900085000008B20003302F07840030080318BE
:1023A000013E85000008B300072A2100B101072A79
:1023B000033042020318DD29DE29D5294208F00046
:1023C000F101F035F10D0D30700784001930713DC9
:1023D00080388500003F2100AF00013FB0002F088A
:1023E0008400300885000008F000F1017008B20098
:1023F0007108B300072A20004308013A0319A229F3
:10240000033A0319AC29013A0319D829D529080040
:102410002100B11799302000D700D8015708860055
:102420000E30870081010130D7070130D8075808E6
:1024300003191B2A1C2A0E2A2030F0000030F1005C
:102440000030F200F3002030F4000030F5009A3143
:10245000762292313D000E172000D9015908C43E62
:102460008600870181015908C23E860087018101EB
:102470000130D90702305902031C3F2A402A2E2A74
:10248000D930F0000030F1000030F200F3000230EB
:10249000F4000030F5009A31762292313D000E139F
:1024A00028302100B8000030B9002030D70057088C
:1024B000C600C701200042082100DE005E08031D9F
:1024C000622A632A662A1030D800792A0130200057
:1024D000D1000030D200DE30D3000030D400013013
:1024E000D5000030D6009C317A2492312030210072
:1024F000D800080020000D0E890C890C0139993193
:10250000DF219231003A0319862A872AEC2A20001B
:102510000C0E01399931DF219231003A0319912AC9
:10252000922AEC2A0B11053020009500F101F201EE
:10253000D42A0B1D9C2A9D2AD42A0130F107003091
:10254000F23D00307202FA3003197102031CA92A0D
:10255000AA2AD02A03102100481D03140318B12A07
:10256000B42A21004815B62A21004811F101F201D0
:1025700020000D0E890C890C01399931DF2192312F
:10258000003A0319C42AC52AD02A20000C0E0139AA
:102590009931DF219231003A031DCF2AD02AB82A7F
:1025A0000B1105302000950020000D0E890C890CC0
:1025B00001399931DF219231003A0319E02AE12AE9
:1025C000EC2A20000C0E01399931DF219231003ABA
:1025D000031DEB2AEC2A992A0800F8007008031959
:1025E000F22AF32AFC2A7835B83E86008701403F5C
:1025F000F900413FFA00042B7835BC3E8600870184
:10260000403FF900413FFA0079087A04031D092B85
:102610000A2B0D2BF001F101692BFF307105F4003D
:102620007F307205F500790886007A08870042310C
:102630007408C03F7508C13F790886007A08870092
:10264000413173088100790886007A08870040309C
:102650008105790886007A08870081157908860047
:102660007A088700811770080319372B382B4F2BF6
:102670007835B83E86008701403FF400413FF500C1
:1026800004307406F60000307506F7007835B83E61
:10269000860087017608C03F7708C13F652B7835F3
:1026A000BC3E86008701403FF400413FF500043006
:1026B0007406F60000307506F7007835BC3E8600DB
:1026C00087017608C03F7708C13F7A08F100790892
:1026D000F000080020000D0E890C890C0139993199
:1026E000DF219331003A0319762B772BEE2B200054
:1026F0000E0C890C01399931DF219331003A03190D
:10270000822B832BEE2B0B11053020009500F1015D
:10271000F201D52B0B1D8D2B8E2BD52B0130F10704
:102720000030F23D00307202FA3003197102031CCE
:102730009A2B9B2BD12BA92B4808FC390138C800B8
:10274000B62B4808FC390238C800B62BFC30C80547
:10275000B62B210048080339003A03199C2B013A93
:102760000319A12B033A0319A62BB62BF101F20191
:1027700020000D0E890C890C01399931DF2193312C
:10278000003A0319C42BC52BD12B20000E0C890C49
:1027900001399931DF219331003A031DD02BD12B20
:1027A000B82B0B1105302000950020000D0E890C70
:1027B000890C01399931DF219331003A0319E12B5A
:1027C000E22BEE2B20000E0C890C01399931DF2110
:1027D0009331003A031DED2BEE2B8A2B08003D00B0
:1027E0000E122100B11BF52BF62B332CAA1FF92B4F
:1027F000FA2B082C0230D5004A08031D002C012CAE
:10280000042C90315B2093312100CC01CD01792C37
:102810004608860047088700413108308100403073
:10282000F7000030F800460886004708870042316C
:102830007708C03F7808C13F4608860047088700F0
:102840000C30810046088600470887008117380849
:10285000860039088700043081003808860039086E
:1028600087008117792C2000C01F372C382C4F2C63
:1028700001302100D5004B08031D3F2C402C432C78
:1028800090315B2093312100CC01CD014E08031D16
:102890004A2C4B2C792C9F311B279331792C0230F9
:1028A0002100D500460886004708870041310830DE
:1028B00081004030F7000030F800460886004708E5
:1028C000870042317708C03F7808C13F460886003C
:1028D00047088700043081004608860047088700C3
:1028E0008117CC01CD014E08031D772C782C792C53
:1028F0004B2C0800210012113D009301900198011A
:102900009930F100F201710886000E3087008101D4
:102910000130F1070130F20772080319902C912C55
:10292000832C16303D0091009F3097007B30920041
:10293000F3017308F0000230F035890B9C2C70080D
:10294000203E860087010030C03F0030C13FC23FBB
:10295000C33F0130F30708307302031CB02CB12CC5
:10296000992C3D000E1796010E120E13F7309005AC
:102970002100B101AA01AB01AC013D009019C12CAD
:10298000C22CB62C01302100CD000130CC00CB018F
:10299000CA01D201F3017335B83E860087010030C9
:1029A000C03FC13F7335BC3E860087010030C03F49
:1029B000C13F7308C43E8600870181017308C23E8F
:1029C0008600870181010130F30702307302031C86
:1029D000EA2CEB2CCB2C28302100B8000030B900B9
:1029E00016303D00980000302000A3004030A200C7
:1029F0000830A1000430A000A0172100DE01003043
:102A0000B7000030B6000030B5000030B400C90196
:102A1000D801080021003808860039088700010E17
:102A2000890C890C01392000EC00043021003806A3
:102A3000B80000303906B90008305806031D212DB2
:102A4000222D332D200042087F393D0096001608C4
:102A500003192B2D2C2D302D10302100D800332DB3
:102A600004302100D8005503031D372D382D842D47
:102A700048302000E8000030E900FF306805EA0037
:102A80007F306905EB00210038088600390887008F
:102A9000423120006A08C03F6B08C13F9E31562674
:102AA0009531023021005606031D572D582D642DF7
:102AB000380886003908870004308100380886000D
:102AC0003908870081179A2D20006C08031D692D95
:102AD0006A2D772D21003808860039088700483094
:102AE0008100380886003908870081179A2D210057
:102AF00038088600390887000830810038088600C9
:102B00003908870081179A2DAA1F872D882D992DA6
:102B10002D082E0403198D2D8E2D972D0530A83EDE
:102B200086008701413F8A00403F0A00953121001D
:102B3000AA13D5010800FB017B08803EF0001F307E
:102B400003182030F1009A31432295317108FA00C0
:102B50007008F9007B08203E860087010130873D20
:102B6000790881000130FB0740307B02031CB92D3E
:102B7000BA2D9C2D22002103031DBF2DC02DCF2D6A
:102B80002030F0000130F1003F30F2009B319423FF
:102B90009531220022060319CE2DCF2D362E03307B
:102BA000A8000230A9000430AA000130AB000530B3
:102BB000AC000630AD000930AE000A30AF00033083
:102BC000B8000D30B9000C30BA000B30BB00073034
:102BD000BC000830BD000E30BE000A30BF00A001AE
:102BE0002330F0000130F1000030F200F300053036
:102BF000F4000030F5009A31762295313030F00043
:102C00000130F1000030F200F3000830F400003031
:102C1000F5009A31762295314030F0000130F10014
:102C20000030F200F3000830F4000030F5009A3173
:102C3000762295314830F0000130F1000030F2008A
:102C4000F3001830F4000030F5009A317622953107
:102C500001302200A1002030F0000130F1003F30AF
:102C6000F2009B31942395312200A200080020003D
:102C700040081F39013A03193E2E3F2E402EE82E00
:102C800002304402031C452E462E472EE82E063005
:102C90004106031D4C2E4D2E9E2E932E21005E03C9
:102CA000031D532E542E9E2E20004408031D592E22
:102CB0005A2E662E68302100AF009830B0000930DF
:102CC000B2000030B300C030B1009E2E4403031D9B
:102CD0006A2E6B2E9E2E83302100AF009830B000FC
:102CE0000930B2000030B300632E4408031D792E72
:102CF0007A2E842E00302100AF009830B00056307C
:102D0000B2000030B300632E4403031D882E892EC9
:102D10009E2EC8302100AF009830B0001530B200B0
:102D20000030B300632E4308213A03194E2E033AB4
:102D30000319752E013A03199E2E9E2E2000400E77
:102D4000890C0339013A0319A62EA72ED42EE82E9A
:102D50009D31B4259631E82EDC302100AF000030E3
:102D6000B0000130B2000030B300C130B100E82E35
:102D700080302100B100200043082100DC00E82E53
:102D8000DB302100AF000030B0000130B200003075
:102D9000B3008130B100E82E80302100B100200066
:102DA00042082100DB00E82E4108013A0319A82E51
:102DB000033A0319AC2E013A0319C02E0A3A03193B
:102DC000A82E033A0319B82E013A0319CC2EE82E87
:102DD000080021005808031DEE2EEF2E012F3D00A4
:102DE0008E019201163091009F3097007B30920047
:102DF000FA2E8E158E1DFD2EFE2EF92E013021008D
:102E0000D8005803031D052F062F122F3D008E1AE0
:102E10000A2F0B2F122F900192011214121602305A
:102E20002100D8003D00101D162F172F202F121D36
:102E30001A2F1B2F202FFB3090059A3192229631AA
:102E40003D008E1C242F252F282F20001211FF2F2C
:102E5000101C2B2F2C2F392F121C2F2F302F392FD6
:102E600094317A24963104302100D800FE303D00A0
:102E70009005101E3C2F3D2F442F121E402F412F36
:102E8000442F9A312B2296313D00101F482F492F95
:102E9000722F121F4C2F4D2F5C2F73302000D1004A
:102EA0000030D2000030D300D4000130D500003013
:102EB000D6009C317A249631BF303D0090059A317E
:102EC0001522963121004F080319672F682F6A2FAA
:102ED0000130CF024F08031D6E2F6F2F722F9F31CD
:102EE0001B2796313D00901E762F772F7E2F921E46
:102EF0007A2F7B2F7E2F9B31132396313D00901C20
:102F0000822F832F982F921C862F872F982FFF3088
:102F10002000D1007F30D2000030D300D400013037
:102F2000D5000030D6009C317A2496313D009301C3
:102F300004302100580203189E2F9F2FA22F20003B
:102F40001211FF2F3D00921DA62FA72FFD2F21004C
:102F5000E2013D00901DAD2FAE2FFD2F0F08210087
:102F6000DD005D0CE100E10C610C0F39D100F730A0
:102F70003D00900521005D19BE2FBF2FCE2F5108B7
:102F8000C23E8600870101080139E1000130E106F7
:102F900001086106FE3961068100DC2F5108C43E3C
:102FA0008600870101080139E1000130E1060108CE
:102FB0006106FE39610681005108031DE02FE12FF3
:102FC000E52F903106209631F42F72302000D10089
:102FD0000030D200DD30D3000030D4000030D50006
:102FE000D6009C317A24963101302100E20704306A
:102FF0006202031CFC2FFD2FA92F200012110800D4
:103000000534013409340534A13401341534003455
:1030100025340134353400344534013475340134F9
:1030200095341034053409341934013429341034FA
:1030300081340234053401342534073446343B34BA
:10304000013475340434953401346534143409344E
:103050003934813442346534003495340134813458
:1030600001342634FF3400344634FF34003409344C
:103070003034093431340934323409343534753458
:103080000834953404348134023406340034FF3477
:103090000934203495340134813402340A34213423
:1030A00026349534083491340234C034093402345F
:1030B00034340034023401340034C034323409343E
:1030C0000434003400340134033400340034003458
:1030D000093421341134013400340134223456349B
:1030E00000340734053481340334403400340A3466
:1030F000093404340134003400340334FF34FF3421
:1031000000340934213411340134003401342234C0
:1031100015340034243403344E3400345334003432
:103120002034003453340034463400344334003403
:1031300020340034433400344F3400344E340034EF
:1031400054340034523400344F3400344C3400349E
:103150004C34003445340034523400341A340334CF
:103160005334003457340034493400345434003478
:1031700043340034483400342034003454340034B0
:103180004534003453340034543400342034003493
:1031900006340034FF3409340134A13401341534C9
:1031A00000342634FF340034753408349534403408
:1031B00009340134B1340234C034123401340034DF
:1031C000023400340034003408340D340F349234A7
:1031D0000034003401340134023403340134003447
:1031E0000134023404340834103420344034803440
:1031F00001340234043408341034203400340034F0
:10320000003400340034003400340034003401341D
:103210000134013401340134013413349934AE34AF
:1032200098348A34983404340334093404345634DA
:023230009834D0
:10339C00FC01FD0108008F31FD27993108007108EF
:1033AC00FC007008FD000800FC302100C805481125
:1033BC000800F00070080319E429E6290130E72918
:1033CC000030080020302000D2004030D300003004
:1033DC00D4009D317325993108002100C001C10131
:1033EC001A30F60001309A31AF2299319931DA2135
:1033FC00993108007B08F0000230F1002030F20017
:10340C000130F3004030F4000030F5009B313A23DA
:10341C009A317B0886000230870081010800013058
:10342C002100B4070030B53DB63DB73D5208031D31
:10343C00202A212A2A2A0130C9074908031D272AD4
:10344C00282A2A2AFF30C90008003D001215EF3047
:10345C0090058E1401302100D200C9017530200076
:10346C00D1000030D2000030D300D4000030D500A1
:10347C00D6009C317A249A3108000B0D0B0D0139C2
:10348C00F2008B1323001513710892007008910041
:10349C00151400000000720C031C8B1303188B17FF
:1034AC0023001408F1001308F00008000B0D0B0D9D
:1034BC000139F2008B132300151371089200700868
:1034CC009100151615157D0896007C08960095142C
:1034DC00720C031C8B1303188B171511150808009D
:1034EC007108F7007008F600852A760886007708C0
:1034FC008700720881000130F6070030F73D01307B
:10350C00F4020030F53B740A031D902A750A031D62
:10351C00902A912A7B2A08002100D20174302000C5
:10352C00D1000030D2000030D300D4000030D500E0
:10353C00D6009C317A249A313D008E101211A82AA3
:10354C00FB3090051019AB2AAC2AA62A2100C90120
:10355C000800F800761DB32AB42AB92AF0017808BD
:10356C009C313E249A31F61CBC2ABD2AC32AF00198
:10357C00F00A78089C313E249A317808983EF7007E
:10358C00770886000E308700760881000800F2006C
:10359C009931D1219A31D92AFC30210099009030EF
:1035AC0027009B00EC2A7208F000F1017108003A28
:1035BC000319E12AEC2A7008003A0319D22A013ABD
:1035CC000319EC2A033A0319EC2AEC2A0800F3003D
:1035DC0008307302031CF32AF42AF62A0030122B4B
:1035EC007008031DFA2AFB2A072B2830F100013042
:1035FC00F2007308710786000030723D87000108E5
:10360C00122B3830F1000130F2007308710786007C
:10361C000030723D8700010808003D00181C172B74
:10362C00182B372B210057088600870180300106A4
:10363C00031D212B222B352B3808860039088700D7
:10364C0084300106031D2B2B2C2B352B57088600A1
:10365C0087010C30810057088600870181173D00D7
:10366C001810DF30900508007308FA007208F90092
:10367C007108F8007008F700572B790886007A0853
:10368C0087000108F6000130F9070030FA3D770891
:10369C00860078088700760881000130F707003033
:1036AC00F83D0130F4020030F53B740A031D622B27
:1036BC00750A031D622B632B432B0800F201723534
:1036CC00A03E860001308700FF30C03F3F30C13F35
:1036DC000130F20720307202031C752B762B652B00
:1036EC00F3017308203E860087010130873D0030CE
:1036FC000104F0003F30F1007335A03E860001302C
:10370C0087007008C03F7108C13F0130F30740309B
:10371C007302031C922B932B772B0800F801C22BFE
:10372C0070088600710887000108F8060130F00760
:10373C000030F13DF701F81BA42BA52BAD2B78081D
:10374C00F300F4017335F500740DF600B82B78080E
:10375C00F300F401F335F40D07307306F500003077
:10376C007406F6007508F8000130F7070830770288
:10377C00031CC12BC22BA12B0130F202720A031DB8
:10378C00C82BC92B962B780808000230210055064F
:10379C00031DD12BD22BD62B8F312C279B31012CF7
:1037AC00D5015008031DDB2BDC2B002C46088600B2
:1037BC004708870041310830810040302000EE007E
:1037CC000030EF0021004608860047088700423190
:1037DC0020006E08C03F6F08C13F210046088600DC
:1037EC00470887000C308100460886004708870090
:1037FC008117012CD0010800203021005802031839
:10380C00082C092C0A2C3D2C3D008E1C0E2C0F2C48
:10381C00102C3D2C2100400841040319162C172CA8
:10382C001F2C4008860041088700811B1E2C1F2C72
:10383C003D2CA030F8000030F9008C313D249C3137
:10384C00F001F00AA030F1000030F2000830F30073
:10385C0001309231ED229C3171082100C1007008B9
:10386C00C00093316A239C3192317A229C3108003A
:10387C00F4002030F5007008F1000130F135890BAF
:10388C00442C7408F2000230F235890B4A2C720871
:10389C007107F3000230F335890B512C7308F507CF
:1038AC0075088600870181137008031D5E2C5F2C40
:1038BC00682C7435BC3E860087017508C03F00300B
:1038CC00C13F702C7435B83E860087017508C03F27
:1038DC000030C13F75088600870101137508043E4E
:1038EC0086008701011708008D2C01309A31CD22FA
:1038FC009C31B52C02309A31CD229C31B52C9931AA
:10390C00F3219C31B52C963137269C31B52C2000F7
:10391C005208003A0319962C7F3A0319B02CB52C97
:10392C005108013A0319852C033A0319B52C013AB5
:10393C000319892C063A0319B52C773A0319B52CBF
:10394C00013A0319B52C073A0319802C013A0319D3
:10395C007B2CB52C5108FF3A0319B52CB52C08005B
:10396C0000309A31CD229C3194317A249C3195319E
:10397C009B259C31303021008C00F0308D00FF30C5
:10398C008E009513303024008C00D0308D00230035
:10399C008C018D018E0107302100950495111512B3
:1039AC00951215178B170530200095009631E926D6
:1039BC009C312030210058020318E52CE62CE72C12
:1039CC00DC2C3D008E1CEB2CEC2CED2CDC2C9C31DF
:1039DC0002249C31DC2C8C310C2C2030F6000B0D8D
:1039EC000B0D0139F5002300151315159516292D0E
:1039FC0071089200700891000130F0070030F13D21
:103A0C007208860001308700403FF300413FF4000C
:103A1C007408940072088600013087000108930036
:103A2C000230F2077608031D1C2D1D2D1E2D95123C
:103A3C008B137D0896007C0896009514750C031C5E
:103A4C008B1303188B170130F602760A031D2F2DEA
:103A5C00302DFE2C1511150808002100D601CE01C1
:103A6C00CB01CA01D001D50138088600390887007E
:103A7C007F30810504303806B80000303906B900B3
:103A8C0038088600390887007F30810504303806F5
:103A9C00B80000303906B900460886004708870090
:103AAC007F308105B101B201B301AA01AB01AC01B8
:103ABC0091312B219D3103302000D1000030D200F8
:103ACC000030D300D4000030D500D6009C317A24CD
:103ADC009D319331EF239D310800003020005402BA
:103AEC0040300319530203187C2D7D2D7E2DB32DF0
:103AFC00E6016608563E8600870166085207D50027
:103B0C005508083E84000230850000088100013011
:103B1C00E60708306602031C942D952D7F2DE701D6
:103B2C0067085E3E8600870167085207D500550876
:103B3C00183E840002308500000881000130E70740
:103B4C0008306702031CAB2DAC2D962D5630D000DF
:103B5C005E30D1009E31B6269D310800200042080F
:103B6C004408D0005003031DBC2DBD2DF52D09308C
:103B7C004106031DC22DC32DD22D20302100A800DB
:103B8C000230A9004030AB000030AC00E830AD0092
:103B9C001930AE00AA17F52D4103031DD62DD72DD4
:103BAC00F52D2030F0000230F1000030F200F3006F
:103BBC004030F4000030F5009A3176229D312030EF
:103BCC00FB009A3100229D3120302100AF000230E1
:103BDC00B0004030B2000030B300C130B10008007A
:103BEC00F2003B2E20000E0E01399931DF219D3160
:103BFC00552E20000E0CF100F10C710C013999318D
:103C0C00DF219D31552E20000E0E890C0139993182
:103C1C00DF219D31552E20000C0E890C0139993174
:103C2C00DF219D31552E20000E0C890C0139993164
:103C3C00DF219D31552E20000C0E01399931DF21E9
:103C4C009D31552E20000D0E890C890C01399931AE
:103C5C00DF219D31552E20000D0E890C0139993133
:103C6C00DF219D31552E0030552E7208003A031974
:103C7C00F82D013A0319FF2D033A0319092E013AC5
:103C8C000319112E073A0319192E013A0319212E83
:103C9C00033A0319312E013A0319282E392E080044
:103CAC000830F200003021003302083003193202D0
:103CBC000318612E622E732E3208F2005608031D73
:103CCC00682E692E6C2E0130D600732E5603031D00
:103CDC00702E712E732E0230D6007208F000F10196
:103CEC007008B2027108B33B3808860039088700A7
:103CFC004131720881004830D4003118862E872E4D
:103D0C00B02E992E5408860087012F0884003008A5
:103D1C008500000881000130AF070030B03D013054
:103D2C00D4070130F2027208031D9D2E9E2E882EA0
:103D3C00B52E5408860087012F08840030088500B2
:103D4C00000881000130AF070030B03D0130D407CE
:103D5C000130F2027208031DB42EB52E9F2E0800FE
:103D6C002830F0000130F10020005008F200F3017F
:103D7C000830F4000030F5009B313A239E31383086
:103D8C00F0000130F10020005108F200F30108307E
:103D9C00F4000030F5009B313A239E312200A00143
:103DAC000130A1002030F0000130F1003F30F20072
:103DBC009B3194239E312200A2009B3164239E31BF
:103DCC000B0D0B0D0139FB008B135530F000AA3095
:103DDC00F1009931D5219E318030F0001F30F10077
:103DEC009A315C229E318F31EF279E31003A031DB0
:103DFC00002F012FF92E8030F0001F30F100A03081
:103E0C00F2009C31F3249E318F31EF279E31003A22
:103E1C00031D112F122F0A2F9931CE219E317B0CAD
:103E2C00031C8B1303188B17080021004D08031D6E
:103E3C00202F212F7F2F0130CD004C08031D272F61
:103E4C00282F7F2F0130CC0002305506031D2F2F59
:103E5C00302F422F38088600390887004131810104
:103E6C0038088600390887004830810038088600F9
:103E7C003908870081177F2F5503031D462F472FC5
:103E8C007F2FD001570A860087010830810040300F
:103E9C00F0000030F1005708023E860087017008E0
:103EAC00C03F7108C13F570886008701043081006C
:103EBC0057088600870181170130D000460886001C
:103ECC00470887004131083081004030F000003055
:103EDC00F100460886004708870042317008C03F51
:103EEC007108C13F46088600470887008030810072
:043EFC007F2F08000C
:020000040001F9
:08000000FF3FFF3FFF3FFF3F00
:04000E00A40FCF1F4D
:00000001FF
