:0618080000008C310C2CE5
:101810007E148C317E10090020008C310F2C653035
:101820008400003085000B309B3119238C31A830A7
:101830008400003085002B309B3119238C317E10C1
:1018400020009C31672CF3007308073E8600870157
:101850008101730A860087013F30810520000D0E4B
:10186000890C890C01399B311F238C31F100730ADB
:1018700086008701F10D01087106FD3971068100AE
:1018800021004219442C452CD72C20000D0E890C28
:1018900001399B311F238C31F100730A86008701C7
:1018A00001087106FE397106810020000E0CF1005E
:1018B000F10C710C01399B311F238C31F20073083C
:1018C00086008701F20D01087206FD39720681005B
:1018D00020000C0E890C01399B311F238C31F10043
:1018E00073088600870101087106FE3971068100C0
:1018F00020000E0E01399B311F238C31F10073083B
:1019000086008701F10DF10D01087106FB397106A2
:10191000810020000E0E890C01399B311F238C3170
:10192000F100730886008701F10DF10DF10D01083A
:101930007106F7397106810020000E0C890C0139FF
:101940009B311F238C31F100730886008701F10E53
:1019500001087106EF397106810020000C0E013973
:101960009B311F238C31F100730886008701F10E33
:10197000F10D01087106DF3971068100730A8600D6
:10198000870181127308860087010113730886009E
:1019900087018113730A860087010111730A86008B
:1019A00087018111730A860087010112722D421D81
:1019B000DA2CDB2C722D730A860087010110730864
:1019C00086008701811073088600870101102000BE
:1019D0000E0E01399B311F238C31F10073088600F4
:1019E0008701F10DF10D01087106FB3971068100C7
:1019F0007308860087018111730886008701011230
:101A0000730886008701811220000D0E890C0139B0
:101A10009B311F238C31F100730A86008701F10E80
:101A2000F10D01087106DF397106810020000E0CEE
:101A3000890C01399B311F238C31F100730886001A
:101A40008701F10EF10DF10D01087106BF39710624
:101A5000810020000C0E01399B311F238C31F100D5
:101A6000730886008701F10CF10C010871067F39BB
:101A70007106810020000C0E890C01399B311F2357
:101A80008C31F100730A86008701F10DF10D010818
:101A90007106FB397106810020000E0E890C013998
:101AA0009B311F238C31F100730A86008701F10DF1
:101AB000F10DF10D01087106F73971068100200062
:101AC0000E0CF100F10C710C01399B311F238C318C
:101AD000F200730A86008701F20E01087206EF39E0
:101AE0007206810020000E0E890C890C01399B3191
:101AF0001F238C31003A03197E2D7F2D852D73080D
:101B0000033E860087018101A12D20000D0E0139C1
:101B10009B311F238C31003A03198F2D902D992D65
:101B2000FF30F1007308033E8600870171088100D1
:101B3000A12D8030F1007308033E860087017108F3
:101B4000810020000D0D0D0D01399B311F238C31BB
:101B5000003A0319AC2DAD2DB32D7308043E860059
:101B600087018101D02D20000E0D0E0D01399B3112
:101B70001F238C31003A0319BE2DBF2DC82DFF3015
:101B8000F1007308043E8600870171088100D02DA2
:101B90008030F1007308043E8600870171088100DF
:101BA0000830F1007308023E860087017108810049
:101BB0008030F1007308053E8600870171088100BE
:101BC0008030F1007308063E8600870171088100AD
:101BD000FD2E7308033E860087010108031DF12DC9
:101BE000F22D052E7308043E860087018030010621
:101BF000031DFB2DFC2D052E7308023E8600870178
:101C00000108F03906388100C32E7308033E8600B0
:101C100087010108031D0D2E0E2E202E7308043E91
:101C2000860087010108031D162E172E202E73082B
:101C3000023E860087010108F03907388100C32E73
:101C40007308033E8600870180300106031D292E9C
:101C50002A2E3A2E7308043E860087010108031DD0
:101C6000322E332E3A2E7308023E86008701F03062
:101C70008105C32E7308033E86008701010A031DF8
:101C8000422E432E552E7308043E8600870101081C
:101C9000031D4B2E4C2E552E7308023E86008701E5
:101CA0000108F03901388100C32E7308033E860015
:101CB0008701010A031D5D2E5E2E712E7308043EFE
:101CC0008600870180300106031D672E682E712E65
:101CD0007308023E860087010108F039023881004E
:101CE000C32E7308033E86008701010A031D792E67
:101CF0007A2E8C2E7308043E86008701010A031D8C
:101D0000822E832E8C2E7308023E860087010108E6
:101D1000F03903388100C32E7308033E8600870123
:101D200080300106031D952E962EA82E7308043EC2
:101D300086008701010A031D9E2E9F2EA82E730880
:101D4000023E860087010108F03904388100C32E65
:101D50007308033E860087010108031DB02EB12ED3
:101D6000C32E7308043E86008701010A031DB92EA5
:101D7000BA2EC32E7308023E860087010108F0398F
:101D800005388100C32E8030F1007308033E8600C1
:101D90008701710881008030F1007308043E8600DD
:101DA000870171088100122F7308033E86008701A6
:101DB0000108F1007308053E860087017108810063
:101DC0007308043E860087010108F1007308063E8F
:101DD00086008701710881008030F1007308033E9E
:101DE00086008701710881008030F1007308043E8D
:101DF0008600870171088100122F210042080339F3
:101E0000F100F2017208003A0319072F122F71082E
:101E1000003A0319122F013A0319E92D033A031965
:101E2000D42E122F080020006D0886008701413F44
:101E3000F5007508F200F301730821002C02031D60
:101E4000232F72082B020318262F272F2B2F2B0846
:101E5000F2007208F5007508F200F3017208AB0297
:101E60007308AC3BF401472F7408483E8600870195
:101E70000108F200280886008701720881000130FD
:101E8000F2007208A8070130F2007208F407750822
:101E90007402031C4C2F4D2F342F2B082C040319D4
:101EA000522F532F8C2F20006908013EF200003082
:101EB0006A3DF300720886007308870008308100CD
:101EC0004830F2000030F300690886006A08870095
:101ED00042317208C03F7308C13F6D088600870118
:101EE000011B732F742F802F690886006A088700F2
:101EF00048308100690886006A0887008117BC2F76
:101F0000690886006A088700083081006908860031
:101F10006A0887008117BC2F20006908013EF20083
:101F200000306A3DF30072088600730887000830AD
:101F300081004030F2000030F300690886006A0832
:101F4000870042317208C03F7308C13F69088600AC
:101F50006A08870004308100690886006A088700E3
:101F600081172100AA1320006B08031DB82FB92F79
:101F7000BC2F9F310F278F310800F5002030F10072
:101F80007108F6007008F1000130F135890BC52F9A
:101F90007508F2000130F235FF3E031DCB2F72357C
:101FA0007107F3000130F335FF3E031DD32F733566
:101FB000F4007408F607760886008701811370081C
:101FC000031DE32FE42FED2F7535B83E8600870102
:101FD0007608C03F0030C13FF52F7535653E86005D
:101FE00087017608C03F0030C13F76088600870130
:0E1FF00001137608043E8600870101170800E1
:10200000FC302100C205421108002100C501C401B5
:10201000023020006C06031D0E280F2834286908A2
:10202000013EF30000306A3DF40073088600740836
:102030008700083081004830F3000030F400690860
:1020400086006A08870042317308C03F7408C13FA8
:10205000690886006A0887004830810069088600A0
:102060006A0887008117652821003308200047028D
:10207000031D3E2821003208200046020318412893
:102080004228492847082100B300200046082100C3
:10209000B2009E31982690314830F3000030F400B1
:1020A0002000650886006608870042317308C03F3B
:1020B0007408C13F650886006608870048308100C3
:1020C0006508860066088700811708002000400E1A
:1020D000890C0339003A03196E286F28B428DF28C9
:1020E0002100B11708302000DD005D08EE00DF2878
:1020F0009131E1219031DF289031E0209031DF28CB
:10210000D2302100AF000030B0003114B201B20A69
:10211000B117DF289D31B9259031DF289631B226DD
:102120009031DF284408D13E2100AF000030B000DC
:1021300085282100B11720004208DD004408D13E67
:10214000860087015D088100DF280230D000003062
:10215000D1000030D2000030D3000030D400D500D0
:102160009C31DC249031DF284108DD00DE015E086F
:10217000003A0319BC28DF285D08003A03198A28B1
:10218000013A03198E28023A03198E28063A0319D8
:102190007028033A03197828013A0319A5280F3A41
:1021A00003198028013A03197C28033A031992285D
:1021B000013A03199928073A0319DF28DF28080094
:1021C0002100B1170E302000D8009930D700D90176
:1021D000570886005808870081010130D707003072
:1021E000D83D0130D6005608D90759080319F928F7
:1021F000FA28E8280030F000F1002030F20000302A
:10220000F30020309331912390313D000E172000D0
:10221000DA015A08C03E8600870181015A08BE3E95
:102220008600870181010130D6005608DA070230A6
:102230005A02031C1C291D2909290030F000F10055
:102240000130F2000030F300D1309331912390310E
:102250003D000E1328302000E5000030E60020305D
:10226000D6005608ED006D08E900FF39031D003067
:10227000EA004208D60056082100D2005208031D89
:1022800042294329492910302000D6005608EE0083
:102290005E2901302000D0000030D100D230D200C1
:1022A0000030D3000130D4000030D5009C31DC2454
:1022B000903120302000D6005608EE000800F700CC
:1022C00070080319642965296E297735653E8600F3
:1022D0008701403FF800413FF90076297735B83E45
:1022E00086008701403FF800413FF90078087904F3
:1022F000031D7B297C297F29F001F101E029710868
:10230000F3000030F4007808860079088700423135
:102310007308C03F7408C13F7808013EF3000030E5
:10232000793DF40073088600740887007208810004
:102330004030F3007808860079088700730881052B
:102340007808860079088700811578088600790862
:102350008700811770080319AE29AF29C629773580
:10236000653E86008701403FF300413FF4000430A2
:102370007306F50000307406F6007735653E86007A
:1023800087017508C03F7608C13FDC297735B83E24
:1023900086008701403FF300413FF400043073069C
:1023A000F50000307406F6007735B83E86008701E8
:1023B0007508C03F7608C13F7908F1007808F00041
:1023C0000800803020004006031DE729E829652A1F
:1023D000C030F00070082100B100512AB630210051
:1023E000AF009830B0001230B2000030B300652A60
:1023F0004208031DFC29FD292C2A4208F000F101A6
:10240000F035F10DD230700784009830713D8500B1
:10241000003F2100AF00013FB0003008F1002F085D
:10242000F00002307007840071080318710A8500FB
:102430000008F2007208B2003008F1002F08F00026
:1024400003307007840071080318710A85000008C2
:10245000F2007208B300652A2100B101652A033039
:1024600042020318342A352A2C2A4208F000F101CE
:10247000F035F10DC830700784009830713D85004B
:10248000003F2100AF00013FB0002F08840030085A
:1024900085000008F000F1017008B2007108B30077
:1024A000652A20004308F000F1017108003A031981
:1024B0005A2A2C2A7008013A0319EE29033A031903
:1024C000F829013A03192F2A2C2A080020000D0EA2
:1024D000890C890C01399B311F239231003A031971
:1024E000722A732AF22A20000E0C890C01399B31C2
:1024F0001F239231003A03197E2A7F2AF22A0B11F8
:10250000053020009500F301F401D92A0B1D892A1A
:102510008A2AD92A0130F3070030F43D00307402D2
:10252000FA3003197302031C962A972AD52AA52A82
:102530004208FC390138C200BA2A4208FC39023884
:10254000C200BA2AFC30C205BA2A21004208033967
:10255000F100F2017208003A0319AF2ABA2A710891
:10256000003A0319982A013A03199D2A033A0319DC
:10257000A22ABA2AF301F40120000D0E890C890C5D
:1025800001399B311F239231003A0319C82AC92A05
:10259000D52A20000E0C890C01399B311F23923162
:1025A000003A031DD42AD52ABC2A0B11053020007D
:1025B000950020000D0E890C890C01399B311F23D9
:1025C0009231003A0319E52AE62AF22A20000E0C7D
:1025D000890C01399B311F239231003A031DF12AE6
:1025E000F22A862A08003D000E122100B11BF92AAA
:1025F000FA2A412BAA1FFD2AFE2A102B0230F500D1
:1026000075082000EC0021004408031D082B092B4D
:102610000C2B9031052092312100C601C701902B6F
:1026200020006908013EF50000306A3DF60075089B
:10263000860076088700083081004030F5000030C1
:10264000F600690886006A08870042317508C03FB5
:102650007608C13F690886006A0887000C3081004F
:10266000690886006A088700811765088600660881
:10267000870004308100650886006608870081179E
:10268000902B2000C01F452B462B5E2BEC01EC0A43
:1026900021004508031D4D2B4E2B512B9031052059
:1026A00092312100C601C70120006B08031D592B80
:1026B0005A2B902B9F310F279231902B0230F5002F
:1026C0007508EC006908013EF50000306A3DF6002F
:1026D0007508860076088700083081004030F500D4
:1026E0000030F600690886006A08870042317508E4
:1026F000C03F7608C13F690886006A088700043039
:102700008100690886006A08870081172100C601D8
:10271000C70120006B08031D8E2B8F2B902B5A2B8B
:102720000800F8007808F4007408F90072087304CF
:10273000031D9B2B9C2B9D2B342C7008F4007908D7
:1027400086008701740881007008F4007208790718
:10275000F5007508FF3E860087017408810000308F
:1027600073020330031972020318B72BB82BB92B6D
:10277000342C7008F400790A8600870174088100FF
:102780007008F4007908023E860087017408810011
:102790007008F40072087907F5007508FE3E86009F
:1027A0008701740881007008F40072087907F50049
:1027B0007508FD3E860087017408810000307302B1
:1027C0000730031972020318E62BE72BE82B342C91
:1027D0007008F4007908033E8600870174088100C0
:1027E0007008F40072087907F5007508FC3E860051
:1027F00087017408810000307302093003197202E6
:102800000318032C042C052C342C7909F4007A09C4
:10281000F500F40A0319F50A03307405F6000030D8
:102820007505F7007608F4007408F9077608F202D7
:102830007708F33BFC30F205FF30F3052E2C7008CF
:10284000F400790886008701740881000130F202E3
:102850000030F33B0130F4007408F9077208730488
:10286000031D332C342C1F2C0800210012113D00B5
:102870009301900198010E30F2009930F100F301BC
:10288000710886007208870081010130F10700306D
:10289000F23D0130F0007008F30773080319512C62
:1028A000522C402C16303D0091009F3097007B3019
:1028B0009200F4017408F0000130F035FF3E031D72
:1028C0005D2C7035203E860087010030C03F00300F
:1028D000C13FC23FC33F0130F0007008F407083029
:1028E0007402031C742C752C5A2C3D000E17960193
:1028F0000E120E13F730F000700890052100B101A0
:10290000AA01AB01AC013D009019872C882C7A2CD0
:102910000130F00070082100C7000130F00070089D
:10292000C600C501C401CB01F4017435653E8600C3
:1029300087010030C03FC13F7435B83E8600870133
:102940000030C03FC13F7408C03E8600870181014E
:102950007408BE3E8600870181010130F0007008D6
:10296000F40702307402031CB62CB72C952C2830C7
:102970002000E5000030E60016303D0098000030F1
:102980002000A3004030A2000830A1000430F00075
:102990007008A000A0172100D2010030B70000305D
:1029A000B6000030B5000030B400C3012000EE01D5
:1029B0000800200040081F39013A0319E02CE12CDF
:1029C000E22C7D2D44080319E62CE72CE82C7D2D04
:1029D00006304106031DED2CEE2C232D102D210079
:1029E0005203031DF42CF52C232D8C30AF009830AE
:1029F000B0000930B2000030B300C030F000700801
:102A0000B100232D00302100AF009830B0005630C7
:102A1000B2000030B300C030F0007008B100232DC8
:102A20004308F000F1017108003A0319182D232D15
:102A30007008213A0319EF2C033A0319022D013AC9
:102A40000319232D232D2000400E890C0339013A50
:102A500003192B2D2C2D612D7D2DD0302100AF00A1
:102A60000030B0000130B2000030B300C130F000DF
:102A70007008B1007D2D8030F00070082100B10099
:102A800020004308F00070082100D0007D2DCF30D9
:102A90002100AF000030B0000130B2000030B300C0
:102AA0008130F0007008B1007D2D8030F00070089A
:102AB0002100B10020004208F00070082100CF0082
:102AC0007D2D4108F000F1017108003A0319692DCC
:102AD0007D2D7008013A03197D2D033A03192D2D20
:102AE000013A0319472D0A3A03197D2D033A0319B8
:102AF0003B2D013A0319552D7D2D080020006E084D
:102B0000031D832D842D962D3D008E0192011630DC
:102B100091009F3097007B3092008F2D8E158E1D77
:102B2000922D932D8E2D2000EE01EE0A6E03031DD3
:102B30009A2D9B2DA92D3D008E1A9F2DA02DA92DDC
:102B4000900192011214121602302000E200620875
:102B5000EE003D00101DAD2DAE2DBB2D121DB12D73
:102B6000B22DBB2DFB302000E20062083D00900535
:102B70009B318D2395313D008E1CBF2DC02DC32D63
:102B800020001211B12E101CC62DC72DD82D121CDD
:102B9000CA2DCB2DD82D9431352495310430200009
:102BA000E2006208EE00FE30E20062083D0090059F
:102BB000101EDB2DDC2DE32D121EDF2DE02DE32D6D
:102BC0009B31702395313D00101FE72DE82D152E08
:102BD000121FEB2DEC2DFC2D73302000D0000030A7
:102BE000D1000030D2000030D3000130D4000030DA
:102BF000D5009C31DC249531BF302000E200620812
:102C00003D0090059B313723953121004808031979
:102C10000A2E0B2E0D2E0130C8024808031D112E5E
:102C2000122E152E9F310F2795313D00901E192E23
:102C30001A2E212E921E1D2E1E2E212E9B31D423A4
:102C400095313D00901C252E262E3C2E921C292EBF
:102C50002A2E3C2EFF302000D0007F30D1000030E3
:102C6000D2000030D3000130D4000030D5009C31B8
:102C7000DC2495313D009301043020006E020318DE
:102C8000422E432E452E1211B12E3D00921D492E8B
:102C90004A2EAF2E2000E4013D00901D502E512EF3
:102CA000AF2E0F082000E2006208EF006F0CE20078
:102CB000E20C620C0F39E30063082100CA00F73010
:102CC0002000E20062083D00900520006F19692E87
:102CD0006A2E7B2E21004A08BE3E8600870101082D
:102CE00001392000E2000130E20601086206FE39E7
:102CF000620681008B2E21004A08C03E86008701B3
:102D0000010801392000E2000130E20601086206F4
:102D1000FE396206810021004A08031D902E912E83
:102D2000952E9D3163259531A42E72302000D00060
:102D30000030D1006F30D2000030D3000030D4001A
:102D4000D5009C31DC24953101302000E20062087E
:102D5000E40704306402031CAE2EAF2E4C2E20007C
:102D60001211080020004203031DB72EB82ECE2EEC
:102D700040081F39003A031DBE2EBF2ECE2E210063
:102D8000B117033020004106031DC72EC82ECC2EDC
:102D90002100CC01CC0ACE2E2100CC01200042081B
:102DA000031DD32ED42EFF2F40081F39023A031DD6
:102DB000DA2EDB2EFF2F44080F39003A0319E12EDB
:102DC000E22EFF2F44080F39D600023056020318B6
:102DD000EA2EEB2EFF2F20306E06031DF02EF12E73
:102DE000FF2F2100B1172000C41BF72EF82E0C2F47
:102DF00044080F390907B83E86008701403FDB00D1
:102E0000413FDC0044080F39BE3E860087010108BF
:102E1000D6005608DA001F2F44080F390907653E0F
:102E200086008701403FDB00413FDC0044080F394A
:102E3000C03E860087010108D6005608DA005A18FD
:102E4000222F232F2E2FFB30D600FF30D7005B0818
:102E50005605DB005C085705DC00342F04305B04AA
:102E6000DB0000305C04DC00C41B372F382F432FFD
:102E700044080F390907B83E860087015B08C03F48
:102E80005C08C13F4D2F44080F390907653E860095
:102E900087015B08C03F5C08C13F03304106031D4A
:102EA000522F532F772F5B0886005C088700811F05
:102EB0005A2F5B2F6C2FC41B5E2F5F2F662F440889
:102EC0000F39BE3E8600870181146C2F44080F39EC
:102ED000C03E8600870181145B0886005C0887007D
:102EE00001155B0886005C0887008117FF2F0430FE
:102EF0005B06DB0000305C06DC005B0886005C08DB
:102F00008700811F842F852FA22F7F30D6005B087A
:102F100086005C088700560881055B0886005C080F
:102F2000870001170530D0000030D1005C08D300C5
:102F30005B08D2000230D4000030D5009C31DC2484
:102F40009631A72F5B0886005C08870001170430C4
:102F500020005B06DB0000305C06DC00DA18B12FD5
:102F6000B22FBA2F5B0886005C088700811FB92F3B
:102F7000BA2FE32FC41BBD2FBE2FC52F44080F3916
:102F8000BE3E860087018110CB2F44080F39C03E1A
:102F90008600870181103B30D6005B0886005C0804
:102FA0008700560881050530D0000030D1005C084C
:102FB000D3005B08D2000230D4000030D5009C3131
:102FC000DC249631EB2F3B30D6005B0886005C0892
:102FD000870056088105200044080F39983ED60026
:102FE000D7010E30D73D5608D8005708D900FE301B
:102FF000D600580886005908870056088105080041
:103000000534013409340534A13401341534003455
:1030100025340134353400344534013475340134F9
:1030200095341034053409341934013429341034FA
:1030300081340234053401342534073446343B34BA
:10304000013475340434953401346534143409344E
:103050003934813442346534003495340134813458
:1030600001342634FF3400344634FF34003409344C
:103070003034093431340934323409343534753458
:103080000834953404348134023406340034FF3477
:103090000934203495340134813402340A34213423
:1030A00026349534083491340234C0342434033443
:1030B0005334003457340034493400345434003429
:1030C0004334003448340034203400344334003472
:1030D0004F3400344E34003454340034523400340D
:1030E0004F3400344C3400344C3400344534003414
:1030F00052340034093402342234003401340134AF
:103100000034C0343234093404340034003401341F
:1031100003340034003400340934213411340134D0
:1031200000340134223456340034073405348134F9
:103130000334403400340A341A3403345334003432
:1031400057340034493400345434003443340034A8
:1031500048340034203400345434003445340034CE
:1031600053340034543400342034003412340134E5
:103170000034023400340034003408340D340F3489
:103180009234003400340134013402340334013405
:10319000CE3498349C349834563498340434033400
:0831A000093404347A34983438
:10363200640080010131890B1A2B0034F0007008FC
:103642000319242B262B0130272B003008002100E0
:10365200BC01BD011A30FD007D08F70001309B312D
:10366200AF239B31903100209B31080001302100B3
:10367200B4070030B53D0030B63D0030B73D4B08D1
:10368200031D442B452B522B0130F0007008C30759
:103692004308031D4D2B4E2B522BFF30F0007008B8
:1036A200C3000800F2005C2BFC302100990090302E
:1036B20027009B006F2B7208F000F1017108003A9D
:1036C2000319642B6F2B7008003A0319552B013A2A
:1036D20003196F2B033A03196F2B6F2B08003D0060
:1036E2001215EF302000D60056083D0090058E14CA
:1036F2002100CB01CB0AC30175302000D00000307D
:10370200D1000030D2000030D3000030D400D50008
:103712009C31DC249B3108002100CB017430200055
:10372200D0000030D1000030D2000030D300003091
:10373200D400D5009C31DC249B313D008E10121147
:10374200A82BFB302000D60056083D00900510192A
:10375200AB2BAC2BA22B2100C3010800FC00771D70
:10376200B32BB42BB92BF0017C088F31BD279B31D1
:10377200F71CBC2BBD2BC32BF001F00A7C088F3148
:10378200BD279B317C08983EF800F9010E30F93DC7
:103792007808FA007908FB007A0886007B0887001F
:1037A2007708810008003D00181CD82BD92BFA2B72
:1037B20020006D088600870180300106031DE22B80
:1037C200E32BF82B65088600660887008430010623
:1037D200031DEC2BED2BF82B0C30F0006D0886004E
:1037E2008701700881006D088600870181173D00FE
:1037F2001810DF30F000700890050800F80071081A
:10380200F6007008F5007808F4007408F900202C1E
:1038120075088600760887000108F4007408F7002E
:103822000130F5070030F63D7708F400790886008C
:103832008701740881000130F4007408F90701302F
:10384200F2020030F33B720A031D2B2C730A031D94
:103852002B2C2C2C092C0800023020006C06031D96
:10386200332C342C382C8F3113279C31662CEC01ED
:1038720021004908031D3E2C3F2C652C20006908BD
:10388200013EF60000306A3DF700760886007708B0
:103892008700083081004030F6000030F7006908E8
:1038A20086006A08870042317608C03F7708C13F28
:1038B200690886006A0887000C3081006908860062
:1038C2006A0887008117662CC901080000309B3105
:1038D20053239C31943135249C31303021008C00AB
:1038E200F0308D00FF308E009513303024008C00B4
:1038F200D0308D0023008C018D018E010730210014
:10390200950495111512951215178B170530200085
:10391200950095317E259C31203020006E020318DF
:10392200932C942C952C8A2C3D008E1C992C9A2C2D
:103932009B2C8A2C9C31A1249C318A2C8C310C2CFE
:10394200203020006E020318A72CA82CA92CDB2CF7
:103952003D008E1CAD2CAE2CAF2CDB2C21003C0884
:103962003D040319B52CB62CBE2C3C0886003D083C
:103972008700811BBD2CBE2CDB2CA0308C31232474
:103982009C31F001F00AA030FA007A08F100083008
:10399200FB007B08F200013091315F219C317108FC
:1039A2002100BD007008BC00923166229C319E311C
:1039B20025269C310800EF2C01309B3153239C318A
:1039C200172D02309B3153239C31172D9B31282315
:1039D2009C31172D9431D9249C31172D2000510888
:1039E200003A0319F82C7F3A0319122D172D5008AB
:1039F200013A0319E72C033A0319172D013A031967
:103A0200EB2C063A0319172D773A0319172D013AB1
:103A12000319172D073A0319E22C013A0319DD2C79
:103A2200172D5008FF3A0319172D172D08002100F2
:103A3200CE012000EB012100C501C401C901200013
:103A4200EC017F30DF0065088600660887005F08AA
:103A5200810504306506E50000306606E6007F3029
:103A6200DF0065088600660887005F08810504306C
:103A72006506E50000306606E6007F30DF00690873
:103A820086006A0887005F0881052100B101B20142
:103A9200B301AA01AB01AC01903166209D31033024
:103AA2002000D0000030D1000030D2000030D3001E
:103AB2000030D400D5009C31DC249D319231F322B8
:103AC2009D3108002D302000E00060082100C80070
:103AD20020006F08FD39031D6F2D702DAC2D6F3640
:103AE2003F39E0000130E035FF3E031D742D6035A3
:103AF200203EE1006108ED006D08E900FF39031D79
:103B02000030EA0004306906E90000306A06EA0083
:103B12006D0886008701010C890C0F390D3A031DCF
:103B2200932D942DA82D6D08023E86008701403FFB
:103B3200F000413FF1000830F2000030F300403065
:103B42009B31FF239D319D3118259D31B82D9C312C
:103B52002D249D31B82DFD306F05E0000430600644
:103B6200031DB42DB52DB82D9F3186279D31080038
:103B72002000C801C901022E2100B1174C03031D08
:103B8200C32DC42D162E2000C814162E2100B117E5
:103B9200162E2100B117200044080F39003A0319EC
:103BA200D32DD42D162EC41BD72DD82DE32D44088A
:103BB2000F390907B83E86008701403FF200413FB6
:103BC200F300ED2D44080F390907653E8600870191
:103BD200403FF200413FF3007208860073088700FD
:103BE200811FF42DF52D162E7208860073088700AA
:103BF200011DFC2DFD2D162E0130F0007008C800AD
:103C0200162E40081F39F000F1017108003A03191D
:103C12000B2E162E7008003A0319BD2D013A031916
:103C2200C72D033A0319CA2D162E2100B11F1A2ED1
:103C32001B2E242E4830AF000030B0003114023069
:103C4200F0007008B200080020000D0E890C890CEB
:103C520001399B311F239E31003A0319312E322E36
:103C6200972E20000C0E01399B311F239E31003A02
:103C720003193C2E3D2E972E0B1105302000950086
:103C8200F101F2017F2E0B1D472E482E7F2E0130AF
:103C9200F1070030F23D00307202FA30031971026E
:103CA200031C542E552E7B2E03102100421D03149B
:103CB20003185C2E5F2E21004215612E2100421155
:103CC200F101F20120000D0E890C890C01399B31A2
:103CD2001F239E31003A03196F2E702E7B2E200077
:103CE2000C0E01399B311F239E31003A031D7A2E9F
:103CF2007B2E632E0B1105302000950020000D0E47
:103D0200890C890C01399B311F239E31003A03191A
:103D12008B2E8C2E972E20000C0E01399B311F23E7
:103D22009E31003A031D962E972E442E080008302D
:103D3200F0007008F200003021003302083003194D
:103D420032020318A52EA62EBB2E3208F0007008F0
:103D5200F2004E08031DAE2EAF2EB22ECE01CE0AB9
:103D6200BB2E4E03031DB62EB72EBB2E0230F00023
:103D72007008CE007208F000F1017008B2027108FA
:103D8200B33B20006508013EF0000030663DF100C3
:103D92007008860071088700720881004830F000C0
:103DA20070082100CD003118D72ED82E092FEE2E03
:103DB2002F088400300885000008F0004D088600B6
:103DC2008701700881000130AF070030B03D01303B
:103DD200F0007008CD070130F2027208031DF22EC6
:103DE200F32ED92E0E2F2F088400300885000008EC
:103DF200F0004D0886008701700881000130AF078E
:103E02000030B03D0130F0007008CD070130F20201
:103E12007208031D0D2F0E2FF42E080021004708F3
:103E2200031D142F152F852F0130F0007008C700D5
:103E32004608031D1D2F1E2F852F0130F00070082C
:103E4200C600023020006C06031D282F292F3B2FAD
:103E52006508860066088700413181016508860091
:103E6200660887004830810065088600660887007A
:103E72008117852F6C03031D3F2F402F852F2100B3
:103E8200C9010830F00020006D0A86008701700821
:103E920081004030F0000030F1006D08023E8600E3
:103EA20087017008C03F7108C13F0430F0006D08FF
:103EB20086008701700881006D08860087018117DE
:103EC2002100C901C90A20006908013EF000003042
:103ED2006A3DF10070088600710887000830810091
:103EE2004030F0000030F100690886006A0887005F
:103EF20042317008C03F7108C13F690886006A08F4
:103F0200870080308100852F080020006508860028
:103F1200660887000030011B0130F5000430650699
:103F2200E50000306606E60008306E06031D9A2F93
:103F32009B2FAF2F42087F393D00960016080319C8
:103F4200A32FA42FAA2F1030F30073082000EE0035
:103F5200AF2F0430F30073082000EE006C03031D42
:103F6200B32FB42FF72F4830F3000030F400650868
:103F720086006608870042317308C03F7408C13F5B
:103F82009E3198269F31023021004E06031DCA2F12
:103F9200CB2FD82F200065088600660887000430E2
:103FA200810065088600660887008117FF2F750863
:103FB200031DDC2FDD2FEA2F20006508860066082E
:103FC20087004830810065088600660887008117EF
:103FD200FF2F2000650886006608870008308100F0
:103FE20065088600660887008117FF2F2100AA1F37
:0E3FF200FB2FFC2FFD2FAA132000EC0108006E
:020000040001F9
:08000000FF3FFF3FFF3FFF3F00
:04000E00A40FCF1F4D
:00000001FF
