:041808008C310C2CE7
:101810007E148C317E10090020008C310F2C483052
:1018200084000030850015308F31F9278C3160300D
:1018300084000130850010308F31F9278C31E03081
:101840008400013085000F308F31F9278C317E10F4
:1018500020009E31022EF50020000D0E890C890C0F
:1018600001398F31F0278C31F1007508023E860076
:101870008701F10E01087106EF3971068100200021
:101880000D0E890C01398F31F0278C31F10075086C
:10189000023E86008701F10EF10D01087106DF3965
:1018A0007106810020000E0E01398F31F0278C3136
:1018B000F1007508033E86008701F10EF10D010865
:1018C0007106DF397106810020005319682C692CDC
:1018D000DF2C0E0CF100F10C710C01398F31F02767
:1018E0008C31F2007508033E86008701F20E010874
:1018F0007206EF397206810020000E0E890C013944
:101900008F31F0278C31F1007508033E8600870186
:10191000F10CF10C010871067F397106810020007D
:101920000C0E890C01398F31F0278C31F1007508CC
:10193000033E86008701F10EF10DF10D01087106DD
:10194000BF397106810020000E0C890C01398F31DE
:10195000F0278C31F1007508033E860087010108ED
:101960007106FE397106810020000C0E01398F319D
:10197000F0278C31F1007508033E86008701F10DD8
:1019800001087106FD39710681007508023E860066
:10199000870181137508023E8600870101137508CF
:1019A000033E8600870101117508043E8600870109
:1019B00081017508053E860087018101662D531D52
:1019C000E22CE32C662D7508033E86008701011288
:1019D0007508033E8600870181137508033E860063
:1019E000870101137508033E860087010110750801
:1019F000033E8600870181100C0E890C01398F315E
:101A0000F0278C31F1007508023E86008701F10C49
:101A1000F10C010871067F397106810020000E0C5F
:101A2000F100F10C710C01398F31F0278C31F2008B
:101A30007508023E86008701F20EF20DF20D0108D4
:101A40007206BF397206810020000E0E890C013922
:101A50008F31F0278C31F1007508033E8600870135
:101A6000F10DF10D01087106FB39710681002000AE
:101A70000E0C890C01398F31F0278C31003A031993
:101A8000422D432D4A2D7508043E86008701FF3004
:101A900081004F2D7508043E8600870181012000DA
:101AA0000C0E01398F31F0278C31003A0319592D72
:101AB0005A2D612D7508053E86008701FF30810093
:101AC000662D7508053E8600870181017508023E76
:101AD0008600870101117508023E86008701811189
:101AE0007508023E8600870101107508023E8600D7
:101AF000870181107508073E8600870181017508FE
:101B0000063E8600870181017508083E8600870130
:101B100081017508093E86008701810175080B3E29
:101B200086008701810175080A3E860087018101D0
:101B300075080C3E86008701810175080D3E860000
:101B400087018101992E0E0E890C890C01398F3184
:101B5000F0278C31003A0319AE2DAF2DB62D750844
:101B6000073E8600870180308100CD2D20000D0EBC
:101B700001398F31F0278C31003A0319C02DC12D66
:101B8000CD2D7508073E860087017F3081007508DE
:101B9000063E86008701FF30810020000E0D0E0DED
:101BA00001398F31F0278C31003A0319D82DD92D06
:101BB000E02D7508093E8600870180308100AE2E39
:101BC00020000D0D0D0D01398F31F0278C31003AB9
:101BD0000319EB2DEC2DAE2E7508093E860087010A
:101BE0007F3081007508083E86008701FF30810044
:101BF000AE2E0E0E890C890C01398F31F0278C31F5
:101C0000F1007508023E86008701F10DF10D010813
:101C10007106FB397106810020000D0E01398F31EC
:101C2000F0278C31F1007508023E86008701F10D26
:101C3000F10DF10D01087106F739710681002000E0
:101C40000D0D0D0D01398F31F0278C31F100750824
:101C5000023E8600870101087106FE397106810087
:101C600020000E0D0E0D01398F31F0278C31F1005F
:101C70007508023E86008701F10D01087106FD39E5
:101C800071068100AE2E0E0E890C890C01398F3140
:101C9000F0278C31003A03194E2E4F2E562E750820
:101CA0000B3E86008701803081006D2E20000D0ED6
:101CB00001398F31F0278C31003A0319602E612EE3
:101CC0006D2E75080B3E860087017F3081007508F8
:101CD0000A3E86008701FF30810020000E0D0E0DA8
:101CE00001398F31F0278C31003A0319782E792E83
:101CF000802E75080D3E8600870180308100AE2E53
:101D000020000D0D0D0D01398F31F0278C31003A77
:101D100003198B2E8C2EAE2E75080D3E8600870182
:101D20007F30810075080C3E86008701FF308100FE
:101D3000AE2E200053080339F100F2017208003A78
:101D40000319A32EAE2E7108003A0319A32D013AF0
:101D50000319F92D033A0319432EAE2EF301F401B2
:101D600073087507F10071080E3E86008701810136
:101D70000130F3070030F43D7408803AF100803000
:101D80007102031DC52E06307302031CC82EC92E16
:101D9000B02E080020005908031DCF2ED02EE22EB1
:101DA0003D008E019201163091009F3097007B30EC
:101DB0009200DB2E8E158E1DDE2EDF2EDA2E2000F9
:101DC000D901D90A5903031DE62EE72EF32E3D0053
:101DD0008E1AEB2EEC2EF32E900192011214121695
:101DE00002302000D9003D00101DF72EF82E052FDF
:101DF000121DFB2EFC2E052FFB302000EE006E087E
:101E00003D0090059C31B6248E313D008E1C092F7B
:101E10000A2F0D2F20001211EF2F101C102F112F41
:101E2000202F121C142F152F202F953169258E314C
:101E300004302000D900FE30EE006E083D00900511
:101E4000101E232F242F2B2F121E272F282F2B2F2E
:101E50009C317E248E313D00101F2F2F302F5D2F9F
:101E6000121F332F342F442F73302000DD00003039
:101E7000DE000030DF000030E0000130E100003023
:101E8000E2009E313C268E31BF302000EE006E080D
:101E90003D0090059C3163248E3122006B080319AC
:101EA000522F532F552F0130EB026B08031D592F72
:101EB0005A2F5D2F913107218E313D00901E612FE9
:101EC000622F692F921E652F662F692F9D316E2517
:101ED0008E313D00901C6D2F6E2F842F921C712F20
:101EE000722F842FFF302000DD007F30DE000030B5
:101EF000DF000030E0000130E1000030E2009E3100
:101F00003C268E313D009301043020005902031815
:101F10008A2F8B2F8D2F1211EF2F3D00921D912FA5
:101F2000922FED2F2000EF013D00901D982F992F4B
:101F3000ED2F0F082000DA005A0CEE00EE0C6E0CAC
:101F40000F39D500F730EE006E083D0090052000F7
:101F50005A19AB2FAC2FBC2F5508623E86000130BA
:101F6000870001080139EE000130EE0601086E0617
:101F7000FE396E068100CB2F5508643E8600013085
:101F8000870001080139EE000130EE0601086E06F7
:101F9000FE396E0681005508031DCF2FD02FD42F98
:101FA0009F3103278E31E22F7230DD000030DE00DA
:101FB0005A30DF000030E0000030E100E2009E31E6
:101FC0003C268E3101302000EE006E08EF07043011
:101FD0006F02031CEC2FED2F942F2000121108002C
:101FE000F00070080319F52FF72F0130F82F00309B
:0E1FF0000800640080010131890BFA2F0034D3
:102004002030200059020318082809280A283828F3
:102014003D008E1C0E280F28102838282200600846
:1020240061040319162817281F2860088600610810
:102034008700811B1E281F283828A0308C312B24B0
:102044009031F001F00AA030F1001430F2000130B8
:102054009331BA23903171082200E1007008E00046
:102064009031392090319F3154279031080020005D
:102074000D0E890C01398F31F0279031003A031984
:10208400442845289E280B11053020009500F301B3
:10209400F40192280B1D4F28502892280130F30791
:1020A4000030F43D00307402FA3003197302031C4B
:1020B4005C285D288E286B285308FC390138D3002E
:1020C40080285308FC390238D3008028FC30D3051B
:1020D4008028200053080339F100F2017208003A05
:1020E4000319752880287108003A03195E28013AFB
:1020F40003196328033A031968288028F301F401BB
:1021040020000D0E890C01398F31F0279031003AEF
:10211400031D8D288E2882280B1105302000950080
:1021240020000D0E890C01398F31F0279031003ACF
:10213400031D9D289E284C2808002100B001B101F0
:10214400E528CA1722006E03031DA928AA28FA2825
:102154002100B014FA28CA17FA28CA1744080F39FC
:10216400003A0319B628B728FA28C41BBA28BB2892
:10217400C72844080F390907EB3E86000130870061
:10218400403FF200413FF300D12844080F390907CA
:102194004D3E86008701403FF200413FF300720844
:1021A400860073088700811FD828D928FA28720866
:1021B400860073088700011DE028E128FA28013011
:1021C4002100B000FA28200040081F39F000F10176
:1021D4007108003A0319EF28FA287008003A031925
:1021E400A328013A0319AD28033A0319AF28FA28A2
:1021F4002000CA1FFE28FF280629B030C80000307E
:10220400C9004A140230CB00080022006A08031DEA
:102214000C290D2975290130EA006908031D1329C9
:10222400142975290130E900023020005606031DE7
:102234001C291D292F294D0886004E08870041318D
:1022440081014D0886004E088700483081004D0802
:1022540086004E088700811775295603031D33290C
:10226400342975292200EC012000580A86008701D0
:10227400403081004030F0000030F1005808023E48
:10228400860087017008C03F7108C13F5808860066
:1022940087010430810058088600870181172200D5
:1022A400EC01EC0A20005108013EF0000030523DE0
:1022B400F1007008860071088700403081004030CA
:1022C400F0000030F10051088600520887004231C6
:1022D4007008C03F7108C13F51088600520887004A
:1022E40080308100752908002000400E890C0339D4
:1022F400003A03197E297F29BA29E529CA1708302B
:10230400D900E52993313F239131E5299231CA223D
:102314009131E5295C30C8000030C9004A14CB0172
:10232400CB0ACA17E52990319F209131E5299631CE
:10233400B2269131E52944085B3EC8000030C9004B
:102344009029CA1744085B3E860087014208810031
:10235400E5290230DD000030DE000030DF0000300F
:10236400E0000030E100E2009E313C269131E52995
:102374004108EA00EB016B08003A0319C229E52978
:102384006A08003A03199529013A03199929023A6E
:1023940003199929063A03198029033A0319842950
:1023A400013A0319AB290F3A03198C29013A03198D
:1023B4008829033A03199D29013A0319A329073AE5
:1023C4000319E529E52908004030F2000030200017
:1023D4004C02403003194B020318F129F229032A55
:1023E4004B08F2005708031DF829F929FC29D701E5
:1023F400D70A032A5703031D002A012A032A02309D
:10240400D7007208F000F1017008CB027108CC3BD0
:102414004D08013EF00000304E3DF100700886008A
:102424007108870072088100B0302200EF0020009C
:102434004A181D2A1E2A512A352A22006F088600AE
:1024440087012000480884004908850000088100AD
:102454000130C8070030C93D0130F0007008220087
:10246400EF070130F2027208031D392A3A2A1F2AA3
:10247400562A22006F08860087012000480884003D
:1024840049088500000881000130C8070030C93DB3
:102494000130F00070082200EF070130F2027208E8
:1024A400031D552A562A3B2A080020004D088600A1
:1024B4004E0887000030011B0130F50004304D0642
:1024C400CD0000304E06CE0008305906031D6B2A9D
:1024D4006C2A7C2A42087F393D00960016080319AD
:1024E400742A752A792A10302000D9007C2A0430F5
:1024F4002000D9005603031D802A812AC12AB03046
:10250400F3000030F4004D0886004E088700423185
:102514007308C03F7408C13F9131E6219231023003
:1025240020005706031D972A982AA42A4D088600DE
:102534004E088700043081004D0886004E0887004D
:102544008117C92A7508031DA82AA92AB52A4D0886
:1025540086004E088700483081004D0886004E08EA
:1025640087008117C92A4D0886004E088700083065
:1025740081004D0886004E0887008117C92A230070
:10258400E21FC52AC62AC72AE2132000D601080082
:102594002000CA170E30E4009930E300E501630817
:1025A40086006408870081010130E3070030E43DC0
:1025B4000130FD007D08E50765080319E22AE32AD6
:1025C400D12A0030F000F1002030F2000030F30096
:1025D400203094313F2492313D000E172000E60153
:1025E4006608643E86000130870081016608623E09
:1025F40086000130870081010130FD007D08E60777
:1026040002306602031C072B082BF22A0030F0006C
:10261400F1000130F2000030F3005B3094313F24CC
:1026240092313D000E1328302000CD000030CE0042
:102634002030D8005808D100FF39031D0030D200E3
:102644004208DC005C08031D282B292B2C2B10309E
:10265400D9003E2B0130DD000030DE005C30DF00AD
:102664000030E0000130E1000030E2009E313C2601
:10267400923120302000D90008008030200040062C
:10268400031D452B462BB92BC030CA00A62B9F3007
:10269400C8009830C9001230CB000030CC00B92BF0
:1026A4004208031D562B572B822B4208F000F101E0
:1026B400F035F10DE730700784001830713D803833
:1026C4008500003FC800013FC9004908F1004808DF
:1026D400F00002307007840071080318710A850045
:1026E4000008CB004908F1004808F00003307007E7
:1026F400840071080318710A85000008CC00B92B06
:10270400CA01B92B033042020318892B8A2B822B6E
:102714004208F000F101F035F10DDB307007840060
:102724001830713D80388500003FC800013FC90062
:1027340048088400490885000008F000F101700889
:10274400CB007108CC00B92B4308F000F1017108EB
:10275400003A0319AE2B822B7008013A0319492B56
:10276400033A0319522B013A0319842B822B0800D4
:10277400F70070080319BF2BC02BC92B77354D3ECA
:1027840086008701403FF800413FF900D22B77359E
:10279400EB3E860001308700403FF800413FF900DE
:1027A40078087904031DD72BD82BDB2BF001F1011A
:1027B4003E2C7108F3000030F40078088600790894
:1027C400870042317308C03F7408C13F7808013E56
:1027D400F3000030793DF400730886007408870024
:1027E400720881004030F300780886007908870079
:1027F40073088105780886007908870081157808B0
:102804008600790887008117700803190A2C0B2C9D
:10281400222C77354D3E86008701403FF300413F2F
:10282400F40004307306F50000307406F6007735C2
:102834004D3E860087017508C03F7608C13F3A2C9B
:102844007735EB3E860001308700403FF300413F7F
:10285400F40004307306F50000307406F600773592
:10286400EB3E8600013087007508C03F7608C13F03
:102874007908F1007808F0000800F8007808F900F9
:1028840072087304031D472C482C492CCE2C79085C
:10289400860087017008810072087907F4007408C3
:1028A400FF3E860087017008810000307302033008
:1028B4000319720203185F2C602C612CCE2C790A48
:1028C40086008701700881007908023E860087012E
:1028D4007008810072087907F4007408FE3E8600CF
:1028E40087017008810072087907F4007408FD3EBE
:1028F40086008701700881000030730207300319D5
:1029040072020318862C872C882CCE2C7908033E5F
:10291400860087017008810072087907F400740842
:10292400FC3E860087017008810000307302093084
:102934000319720203189F2CA02CA12CCE2C790908
:10294400F4007A09F500F40A0319F50A0330740552
:10295400F60000307505F7007608F4007408F907EE
:102964007608F2027708F33BFC30F205FF30F305FA
:10297400C82C790886008701700881000130F202B2
:102984000030F33B0130F4007408F9077208730453
:10299400031DCD2CCE2CBB2C08003D000E122000B4
:1029A400CA1BD52CD62C1C2D2300E21FDA2CDB2CC1
:1029B400EB2C02302000D60022006708031DE32C14
:1029C400E42CE72C9F31A62794312200E901EA0187
:1029D400682D20005108013EF5000030523DF600FC
:1029E4007508860076088700403081004030F50085
:1029F4000030F600510886005208870042317508FD
:102A0400C03F7608C13F51088600520887000C3049
:102A14008100510886005208870081174D088600FE
:102A24004E088700043081004D0886004E08870058
:102A34008117682DC01F1F2D202D382DD601D60AD1
:102A440022006808031D272D282D2B2D9F31A62732
:102A540094312200E901EA0120005408031D332DBA
:102A6400342D682D913107219431682D0230D60020
:102A74005108013EF5000030523DF600750886000D
:102A840076088700403081004030F5000030F600C1
:102A9400510886005208870042317508C03F760805
:102AA400C13F510886005208870004308100510854
:102AB40086005208870081172200E901EA012000FC
:102AC4005408031D662D672D682D342D0800210040
:102AD40012113D009301900198010E30F2009930DB
:102AE400F100F3017108860072088700810101304A
:102AF400F1070030F23D0130F0007008F30773086D
:102B04000319852D862D742D16303D0091009F30BC
:102B140097007B309200F4017408F0000130F03526
:102B2400FF3E031D912D7035203E86008701003045
:102B3400C03F0030C13FC23FC33F0130F0007008C6
:102B4400F40708307402031CA82DA92D8E2D3D0016
:102B54000E1796010E120E13F730F0007008900550
:102B64002000CA012300E201E301E4013D009019C1
:102B7400BC2DBD2DAE2D01302200EA000130E9004C
:102B8400E801E701ED01F40174354D3E860087014B
:102B94000030C03FC13F7435EB3E860001308700F2
:102BA4000030C03FC13F7408643E86000130870096
:102BB40081017408623E8600013087008101013082
:102BC400F0007008F40702307402031CEA2DEB2DA8
:102BD400C62D28302000CD000030CE0016303D0038
:102BE400980000302000A3004030A2004030A10033
:102BF4000430A000A017DC0100302300EA000030FC
:102C0400E9000030E8000030E7002200E60120007F
:102C1400D90108002000580886008701413FF500CB
:102C24007508F200F301730823006402031D1C2ECF
:102C34007208630203181F2E202E222E6308F5004B
:102C44007508F200F3017208E3027308E43BF4012F
:102C54003C2E6008860087017408B03E840085011C
:102C6400000881000130F2007208E0070130F20030
:102C74007208F40775087402031C412E422E2B2E91
:102C8400630864040319472E482E812E200051083E
:102C9400013EF2000030523DF300720886007308D2
:102CA400870040308100B030F2000030F30051085A
:102CB40086005208870042317208C03F7308C13F42
:102CC400580886008701011B682E692E752E51084D
:102CD4008600520887004830810051088600520857
:102CE40087008117B12E51088600520887000830EA
:102CF400810051088600520887008117B12E2000F8
:102D04005108013EF2000030523DF3007208860083
:102D140073088700403081004030F2000030F30037
:102D2400510886005208870042317208C03F730878
:102D3400C13F5108860052088700043081005108C1
:102D440086005208870081172300E21320005408EC
:102D5400031DAD2EAE2EB12E913107219631080000
:102D640020004203031DB72EB82ECC2E40081F3975
:102D7400003A031DBE2EBF2ECC2ECA1703304106C7
:102D8400031DC52EC62ECA2E2200EE01EE0ACC2E3D
:102D94002200EE0120004208031DD12ED22EFF2F67
:102DA40040081F39023A031DD82ED92EFF2F44089C
:102DB4000F39003A0319DF2EE02EFF2F44080F3994
:102DC400E300023063020318E82EE92EFF2F2030BF
:102DD4005906031DEE2EEF2EFF2FCA17C41BF32E28
:102DE400F42E082F44080F390907EB3E8600013002
:102DF4008700403FE800413FE90044080F39623E44
:102E04008600013087000108E7001A2F44080F39B3
:102E140009074D3E86008701403FE800413FE90035
:102E240044080F39643E8600013087000108E7003A
:102E340067181D2F1E2F292FFB30E300FF30E400FD
:102E440068086305E80069086405E9002F2F043069
:102E54006804E80000306904E900C41B322F332FF2
:102E64003F2F44080F390907EB3E860001308700E5
:102E74006808C03F6908C13F492F44080F39090752
:102E84004D3E860087016808C03F6908C13F033092
:102E94004106031D4E2F4F2F752F680886006908C1
:102EA4008700811F562F572F6A2FC41B5A2F5B2F61
:102EB400632F44080F39623E860001308700811475
:102EC4006A2F44080F39643E86000130870081145C
:102ED4006808860069088700011568088600690883
:102EE40087008117FF2F04306806E8000030690668
:102EF400E9006808860069088700811F822F832FF4
:102F0400A02F7F30E3006808860069088700630803
:102F14008105680886006908870001170530DD000F
:102F24000030DE006908E0006808DF000230E100DC
:102F34000030E2009E313C269631A52F68088600B9
:102F4400690887000117043020006806E800003093
:102F54006906E900E718AF2FB02FB82F680886007C
:102F640069088700811FB72FB82FE32FC41BBB2F1D
:102F7400BC2FC42F44080F39623E860001308700FD
:102F84008110CB2F44080F39643E8600013087003E
:102F940081103B30E30068088600690887006308F5
:102FA40081050530DD000030DE006908E0006808B6
:102FB400DF000230E1000030E2009E313C26963111
:102FC400EB2F3B30E300680886006908870063083C
:102FD4008105200044080F39983EE300E4010E30D7
:102FE400E43D6308E5006408E600FE30E30065089C
:102FF40086006608870063088105080009340234E6
:103004008B340034043401340034A034FA340934E9
:103014000434003400340234FF345D3401340034A9
:1030240011342134103401340134253481341434FE
:1030340003340334033404341334023408340334BF
:103044000334073405348134033420340034043425
:10305400073405340234033420340034083409348A
:103064000434013400340234FF345D340334003456
:103074001B342134003401340134013483344034AA
:1030840001340434203416348534003400340034DC
:103094000034003400341634053400340034003471
:1030A40000340034003407340534833403342034CA
:1030B4000034023407340534043403342034003437
:1030C400043409340434023400340134FF345D34EC
:1030D40002340034093421340034013401342234FC
:1030E40086340734003407340534863403342034FA
:1030F4000034103409340434033400340034FF340D
:10310400FD341334043406344134003401340134BE
:10311400033400341434FF34F734FF34FF34C03440
:10312400FF34C034FF34C034FF34C034FF340034BF
:1031340000340034003400340034123401340034D8
:103144000234FF34FF34FF3440345E3404348E34AC
:1031540002341434013401340234033401340E349F
:1031640003345834003420340034543400344534A7
:10317400003453340034543400340E34033458349B
:10318400003420340034543400344534003453348F
:103194000034543400340E340334583400342034AE
:1031A400003454340034453400345334003454343B
:1031B4000034E3349834CD349834BF349834B13483
:0E31C40098340434033409340434003498344D
:1038C60001302300E7070030E83D0030E93D0030D5
:1038D600EA3D22006D08031D712C722C7D2C0130EF
:1038E600F0007008E6076608031D7A2C7B2C7D2CF9
:1038F600FF30E60008003D001215EF30FD007D08A0
:1039060090058E142200ED01ED0AE60175302000C7
:10391600DD000030DE000030DF000030E000003067
:10392600E100E2009E313C269C310800F200A22C08
:10393600FC3021009900903027009B00B52C7208BE
:10394600F000F1017108003A0319AA2CB52C700891
:10395600003A03199B2C013A0319B52C033A0319B3
:10396600B52CB52C08002200ED0174302000DD00D6
:103976000030DE000030DF000030E0000030E10003
:10398600E2009E313C269C313D008E101211CF2C58
:10399600FB30FD007D0890051019D22CD32CCB2CC2
:1039A6002200E6010800F100FC302000D305531187
:1039B600F201F30172087107F000700886008701B2
:1039C60081010130F2070030F33D7308803AF000C0
:1039D60080307002031DF12C15307202031CF42C8A
:1039E600F52CDD2C710A8600870114308100080051
:1039F600FC00771DFF2C002D052DF0017C089E3163
:103A060078269C31F71C082D092D0F2DF001F00AA0
:103A16007C089E3178269C317C08983EF800F90196
:103A26000E30F93D7808FA007908FB007A0886001E
:103A36007B088700770881000800A0309C31D624D7
:103A46009D312200E001E1011E30F70001309C317A
:103A5600FB249D311E30F70002309C31FB249D3142
:103A66001E30F70003309C31FB249D311E30F700D9
:103A760004309C31FB249D311E30F70006309C310A
:103A8600FB249D310800F8007108F6007008F50067
:103A96007808F900612D7508860076088700010808
:103AA600F7000130F5070030F63D790886008701FA
:103AB600770881000130F4007408F9070130F2023A
:103AC6000030F33B720A031D6C2D730A031D6C2D27
:103AD6006D2D4E2D08003D00181C722D732D922D54
:103AE600200058088600870180300106031D7C2DC2
:103AF6007D2D902D4D0886004E08870084300106E6
:103B0600031D862D872D902D5808860087010C30C1
:103B1600810058088600870181173D001810DF30A4
:103B2600F000700890050800FE3020004005F00007
:103B3600C0307006031DA02DA12DC72D4103031D06
:103B4600A52DA62DC72D44084504031DAB2DAC2D70
:103B5600C72D1430F1000030F20000304702143057
:103B6600031946020318B82DB92DBD2D4708F200DA
:103B76004608F1008B30C8009830C9007208CC00A6
:103B86007108CB00C030CA0008000230200056067B
:103B9600031DCE2DCF2DD32D96310C269D31012E12
:103BA600D60122006C08031DD92DDA2D002E200027
:103BB6005108013EF6000030523DF70076088600B7
:103BC60077088700403081004030F6000030F7006B
:103BD600510886005208870042317608C03F7708B0
:103BE600C13F51088600520887000C3081005108F9
:103BF6008600520887008117012EEC01080000306C
:103C06009C3199249E31953169259E3130302100B1
:103C16008C00F0308D00FF308E009513303024007C
:103C26008C00D0308D0023008C018D018E01073071
:103C36002100950495111512951215178B1705304D
:103C4600200095008E31CA269E3120302000590270
:103C560003182E2E2F2E302E252E3D008E1C342E90
:103C6600352E362E252E903102209E31252E8C3172
:103C76000C2C4F2E01309C3199249E31772E023028
:103C86009C3199249E31772E9D3120259E31772EA9
:103C96009D3197259E31772E20005E08003A031944
:103CA600582E7F3A0319722E772E5D08013A0319B2
:103CB600472E033A0319772E013A03194B2E063A7B
:103CC6000319772E773A0319772E013A0319772EBF
:103CD600073A0319422E013A03193D2E772E5D0845
:103CE600FF3A0319772E772E0800F5002030F600EC
:103CF6007008F1000130F135890B7E2E7508F2004F
:103D06000130F235FF3E031D842E72357107F30034
:103D16000130F335FF3E031D8C2E7335F400740815
:103D2600F60776088600870181137008031D9C2E0E
:103D36009D2EA72E7535EB3E86000130870076084E
:103D4600C03F0030C13FAF2E75354D3E860087011E
:103D56007608C03F0030C13F760886008701011310
:103D66007608043E86008701011708002000D70167
:103D7600D4012200E801E701EC012000D6017F30E2
:103D8600EC004D0886004E0887006C08810504305B
:103D96004D06CD0000304E06CE007F30EC004D08BB
:103DA60086004E0887006C08810504304D06CD005C
:103DB60000304E06CE007F30EC00510886005208D7
:103DC60087006C088105CA01CB01CC012300E20102
:103DD600E301E401913176219E3103302000DD00BC
:103DE6000030DE000030DF000030E0000030E1008F
:103DF600E2009E313C269E319431CF249E3108004C
:103E06002D302200EB0020005A08FD39031D0C2F2F
:103E16000D2F472F5A363F39ED000130ED35FF3E65
:103E2600031D112F6D35203ED8005808D100FF39EB
:103E3600031D0030D20004305106D1000030520676
:103E4600D200580886008701010C890C0F390D3AFB
:103E5600031D2E2F2F2F432F5808023E8600870161
:103E6600403FF000413FF1000830F2000030F3001F
:103E760040309D3146259F319E31B9269F31532FC3
:103E86009D31C8259F31532FFD305A05ED00043072
:103E96006D06031D4F2F502F532F923157229F31FE
:103EA600080020000D0E890C890C01398F31F0278E
:103EB6009F31003A0319602F612FA52F0B11053092
:103EC60020009500F101F201982F0B1D6B2F6C2F2E
:103ED600982F0130F1070030F23D00307202FA30BF
:103EE60003197102031C782F792F942F03102000D9
:103EF600531D03140318802F832F20005315852F7D
:103F060020005311F101F20120000D0E890C890CDD
:103F160001398F31F0279F31003A031D932F942FDB
:103F2600872F0B1105302000950020000D0E890CFF
:103F3600890C01398F31F0279F31003A031DA42FD8
:103F4600A52F682F08002200E801E70102302000B3
:103F56005606031DAF2FB02FD52F5108013EF30093
:103F66000030523DF4007308860074088700403024
:103F76008100B030F3000030F4005108860052088A
:103F8600870042317308C03F7408C13F510886005C
:103F96005208870048308100510886005208870081
:103FA6008117FF2F4C084702031DDB2F4B084602E3
:103FB6000318DE2FDF2FE32F4708CC004608CB007F
:103FC6009131E6219F31B030F3000030F40020003B
:103FD6004D0886004E08870042317308C03F7408BA
:103FE600C13F4D0886004E088700483081004D08C5
:0A3FF60086004E08870081170800BE
:020000040001F9
:08000000FF3FFF3FFF3FFF3F00
:04000E00A40FCF1F4D
:00000001FF
