:0618080000008C310C2CE5
:101810007E148C317E10090020008C310F2C653035
:101820008400003085000B308F31F8278C31A730D1
:101830008400003085002B308F31F8278C317E10EA
:1018400020009C317B2CF30020000D0E890C013907
:101850009B3142238C31F100730886008701F10E21
:10186000F10DF10D01087106BF39710681002000EC
:101870000D0E890C890C01399B3142238C31F1000A
:10188000730886008701F10CF10C010871067F399D
:1018900071068100210041194E2C4F2CCD2C2000C7
:1018A0000E0CF100F10C710C01399B3142238C318B
:1018B000F200730886008701F20D01087206FD39F7
:1018C0007206810020000C0E890C01399B314223E5
:1018D0008C31F100730886008701F10DF10DF10DD7
:1018E00001087106F7397106810020000E0E0139DA
:1018F0009B3142238C31F100730886008701010877
:101900007106FE397106810020000E0E890C013926
:101910009B3142238C31F100730886008701F10D61
:10192000F10D01087106FB397106810020000E0CD3
:10193000890C01399B3142238C31F10073088600F8
:101940008701F10E01087106EF3971068100200050
:101950000C0E01399B3142238C31F1007308860053
:101960008701F10EF10D01087106DF397106810062
:10197000730A860087010110730A860087018110AF
:10198000730A860087010112730A8600870181119C
:10199000730A8600870101114C2D411DD02CD12CDA
:1019A0004C2D73088600870181107308860087011B
:1019B000811120000E0E01399B3142238C31F10040
:1019C00073088600870101087106FE3971068100DF
:1019D00073088600870101117308860087010112D0
:1019E000730886008701811220000E0C890C0139D2
:1019F0009B3142238C31F100730A86008701010874
:101A00007106FE397106810020000C0E01399B31F0
:101A100042238C31F100730A86008701F10D010821
:101A20007106FD397106810020000C0E890C013908
:101A30009B3142238C31F100730A86008701F10E3D
:101A400001087106EF397106810020000E0E890C25
:101A500001399B3142238C31F100730A86008701E2
:101A6000F10DF10DF10D01087106F73971068100D4
:101A700020000E0CF100F10C710C01399B31422356
:101A80008C31F200730A86008701F20DF20D010815
:101A90007206FB397206810020000E0E890C890C3B
:101AA00001399B3142238C31003A0319582D592DAD
:101AB0005F2D7308033E8600870181017B2D200086
:101AC0000D0E01399B3142238C31003A0319692DE7
:101AD0006A2D732DFF30F1007308033E86008701E5
:101AE000710881007B2D8030F1007308033E860071
:101AF00087017108810020000D0D0D0D01399B310A
:101B000042238C31003A0319862D872D8D2D7308C1
:101B1000043E860087018101AA2D20000E0D0E0DC6
:101B200001399B3142238C31003A0319982D992DAC
:101B3000A22DFF30F1007308043E86008701710872
:101B40008100AA2D8030F1007308043E86008701D1
:101B5000710881000830F1007308023E8600870199
:101B6000710881008030F1007308053E860087010E
:101B7000710881008030F1007308063E86008701FD
:101B800071088100D72E7308033E86008701010883
:101B9000031DCB2DCC2DDF2D7308043E860087015D
:101BA00080300106031DD52DD62DDF2D7308023E92
:101BB000860087010108F039063881009D2E7308E0
:101BC000033E860087010108031DE72DE82DFA2D4D
:101BD0007308043E860087010108031DF02DF12DD6
:101BE000FA2D7308023E860087010108F039073894
:101BF00081009D2E7308033E860087018030010618
:101C0000031D032E042E142E7308043E8600870144
:101C10000108031D0C2E0D2E142E7308023E8600A3
:101C20008701F03081059D2E7308033E86008701F1
:101C3000010A031D1C2E1D2E2F2E7308043E860044
:101C400087010108031D252E262E2F2E7308023E24
:101C5000860087010108F039013881009D2E730844
:101C6000033E86008701010A031D372E382E4B2EB6
:101C70007308043E8600870180300106031D412E53
:101C8000422E4B2E7308023E860087010108F03970
:101C9000023881009D2E7308033E86008701010AE9
:101CA000031D532E542E662E7308043E86008701B2
:101CB000010A031D5C2E5D2E662E7308023E86000F
:101CC00087010108F039033881009D2E7308033E17
:101CD0008600870180300106031D6F2E702E822E34
:101CE0007308043E86008701010A031D782E792EB1
:101CF000822E7308023E860087010108F0390438FD
:101D000081009D2E7308033E860087010108031D94
:101D10008A2E8B2E9D2E7308043E86008701010AB1
:101D2000031D932E942E9D2E7308023E860087017C
:101D30000108F039053881009D2E8030F1007308CC
:101D4000033E86008701710881008030F10073082E
:101D5000043E8600870171088100EC2E7308033E63
:101D6000860087010108F1007308053E860087019F
:101D7000710881007308043E860087010108F100A4
:101D80007308063E86008701710881008030F100EB
:101D90007308033E86008701710881008030F100DE
:101DA0007308043E8600870171088100EC2E210033
:101DB00041080339F100F2017208003A0319E12EDB
:101DC000EC2E7108003A0319EC2E013A0319C32DC9
:101DD000033A0319AE2EEC2E080020006D08860091
:101DE0008701413FF5007508F200F30173082100F7
:101DF0002B02031DFD2E72082A020318002F012F4B
:101E0000052F2A08F2007208F5007508F200F301A8
:101E10007208AA027308AB3BF401212F7408483EF4
:101E2000860087010108F2002708860087017208F2
:101E300081000130F2007208A7070130F200720839
:101E4000F40775087402031C262F272F0E2F2A086B
:101E50002B0403192C2F2D2F662F20006908013E1B
:101E6000F20000306A3DF3007208860073088700B4
:101E7000083081004830F2000030F3006908860025
:101E80006A08870042317208C03F7308C13F6D087D
:101E900086008701011B4D2F4E2F5A2F690886009F
:101EA0006A08870048308100690886006A08870050
:101EB0008117962F690886006A088700083081001C
:101EC000690886006A0887008117962F2000690834
:101ED000013EF20000306A3DF3007208860073088C
:101EE0008700083081004030F2000030F3006908BC
:101EF00086006A08870042317208C03F7308C13FFC
:101F0000690886006A088700043081006908860035
:101F10006A08870081172100A91320006B08031DA0
:101F2000922F932F962F9F310F278E31080021007B
:101F3000C401C301023020006C06031DA02FA12F95
:101F4000C62F6908013EF30000306A3DF4007308B3
:101F5000860074088700083081004830F3000030A4
:101F6000F400690886006A08870042317308C03FA0
:101F70007408C13F690886006A08870048308100FC
:101F8000690886006A0887008117F72F2100320848
:101F900020004702031DD02F2100310820004602F7
:101FA0000318D32FD42FDB2F47082100B2002000C5
:101FB00046082100B1009E3198268F314830F30049
:101FC0000030F40020006508860066088700423172
:101FD0007308C03F7408C13F650886006608870023
:101FE0004830810065088600660887008117080070
:0C1FF000640080010131890BF92F0034DE
:102002002100BB01BC011A30FD007D08F700013040
:102012009B31C32390319B313D23903108002D30F9
:102022002000E00060082100C70020006F08FD3991
:10203200031D1C281D2859286F363F39E000013046
:10204200E035FF3E031D21286035203EE100610896
:10205200ED006D08E900FF39031D0030EA0004308D
:102062006906E90000306A06EA006D088600870109
:10207200010C890C0F390D3A031D402841285528BF
:102082006D08023E86008701403FF000413FF100AB
:102092000830F2000030F30040309C3113249031BC
:1020A2009D316E25903165289C31412490316528FF
:1020B200FD306F05E00004306006031D61286228D0
:1020C20065289F318627903108002000400E890C38
:1020D2000339003A03196E286F28B428DF2821003B
:1020E200B01708302000DD005D08EE00DF289131D6
:1020F200E1219031DF289031E0209031DF28D1308A
:102102002100AE000030AF003014B101B10AB017A7
:10211200DF289D31B9259031DF289631B2269031E2
:10212200DF284408D03E2100AE000030AF008528F1
:102132002100B01720004208DD004408D03E86008E
:1021420087015D088100DF280230D0000030D10015
:102152000030D2000030D3000030D400D5009C31D2
:10216200F0249031DF284108DD00DE015E08003AEC
:102172000319BC28DF285D08003A03198A28013AAE
:1021820003198E28023A03198E28063A0319702879
:10219200033A03197828013A0319A5280F3A0319BB
:1021A2008028013A03197C28033A03199228013A3C
:1021B20003199928073A0319DF28DF2808002100AC
:1021C200B0170E302000D8009930D700D901570837
:1021D20086005808870081010130D7070030D83DBA
:1021E2000130D6005608D90759080319F928FA28E8
:1021F200E8280030F000F1002030F2000030F30057
:1022020020309331912390313D000E172000DA01E6
:102212005A08BF3E8600870181015A08BD3E8600EA
:10222200870181010130D6005608DA0702305A02CE
:10223200031C1C291D2909290030F000F10001307E
:10224200F2000030F300D0309331912390313D0001
:102252000E1328302000E5000030E6002030D600C2
:102262005608ED006D08E900FF39031D0030EA0051
:102272004208D60056082100D1005108031D422908
:102282004329492910302000D6005608EE005E2965
:1022920001302000D0000030D100D130D200003017
:1022A200D3000130D4000030D5009C31F0249031AD
:1022B20020302000D6005608EE000800F700700813
:1022C2000319642965296E297735653E86008701E1
:1022D200403FF800413FF90076297735B73E860046
:1022E2008701403FF800413FF90078087904031D57
:1022F2007B297C297F29F001F101E0297108F30093
:102302000030F400780886007908870042317308AB
:10231200C03F7408C13F7808013EF3000030793DA8
:10232200F400730886007408870072088100403048
:10233200F300780886007908870073088105780819
:102342008600790887008115780886007908870059
:10235200811770080319AE29AF29C6297735653E62
:1023620086008701403FF300413FF40004307306CA
:10237200F50000307406F6007735653E8600870169
:102382007508C03F7608C13FDC297735B73E860025
:102392008701403FF300413FF40004307306F5002B
:1023A20000307406F6007735B73E8600870175085F
:1023B200C03F7608C13F7908F1007808F0000800B4
:1023C200803020004006031DE729E829652AC03035
:1023D200F00070082100B000512AB8302100AE0090
:1023E2009830AF001230B1000030B200652A4208C6
:1023F200031DFC29FD292C2A4208F000F101F035C9
:10240200F10DD430700784009830713D8500003F93
:102412002100AE00013FAF002F08F1002E08F000AE
:1024220002307007840071080318710A85000008E1
:10243200F2007208B1002F08F1002E08F0000330FC
:102442007007840071080318710A85000008F20001
:102452007208B200652A2100B001652A03304202E7
:102462000318342A352A2C2A4208F000F101F035EB
:10247200F10DCA30700784009830713D8500003F2D
:102482002100AE00013FAF002E0884002F08850016
:102492000008F000F1017008B1007108B200652A6D
:1024A20020004308F000F1017108003A03195A2A8A
:1024B2002C2A7008013A0319EE29033A0319F82964
:1024C200013A03192F2A2C2A080020000D0E890C2C
:1024D200890C01399B3142239231003A0319722A45
:1024E200732AF22A20000E0C890C01399B314223F7
:1024F2009231003A03197E2A7F2AF22A0B11053003
:1025020020009500F301F401D92A0B1D892A8A2A99
:10251200D92A0130F3070030F43D00307402FA305A
:1025220003197302031C962A972AD52AA52A410861
:10253200FC390138C100BA2A4108FC390238C1000D
:10254200BA2AFC30C105BA2A210041080339F10038
:10255200F2017208003A0319AF2ABA2A7108003A46
:102562000319982A013A03199D2A033A0319A22A48
:10257200BA2AF301F40120000D0E890C890C0139ED
:102582009B3142239231003A0319C82AC92AD52A1B
:1025920020000E0C890C01399B3142239231003A02
:1025A200031DD42AD52ABC2A0B1105302000950020
:1025B20020000D0E890C890C01399B314223923186
:1025C200003A0319E52AE62AF22A20000E0C890CA9
:1025D20001399B3142239231003A031DF12AF22A3A
:1025E200862A08003D000E122100B01BF92AFA2AA1
:1025F200412BA91FFD2AFE2A102B0230F500750877
:102602002000EC0021004308031D082B092B0C2B92
:102612008F31972792312100C501C601902B2000EE
:102622006908013EF50000306A3DF6007508860033
:1026320076088700083081004030F5000030F6004F
:10264200690886006A08870042317508C03F76082B
:10265200C13F690886006A0887000C30810069085A
:1026620086006A0887008117650886006608870069
:102672000430810065088600660887008117902B68
:102682002000C01F452B462B5E2BEC01EC0A2100DB
:102692004408031D4D2B4E2B512B8F31972792311E
:1026A2002100C501C60120006B08031D592B5A2BBE
:1026B200902B9F310F279231902B0230F500750835
:1026C200EC006908013EF50000306A3DF60075082D
:1026D200860076088700083081004030F50000301F
:1026E200F600690886006A08870042317508C03F13
:1026F2007608C13F690886006A08870004308100B5
:10270200690886006A08870081172100C501C60191
:1027120020006B08031D8E2B8F2B902B5A2B080049
:10272200F8007808F4007408F90072087304031DB5
:102732009B2B9C2B9D2B342C7008F400790886006F
:102742008701740881007008F40072087907F500A7
:102752007508FF3E8600870174088100003073020D
:102762000330031972020318B72BB82BB92B342C80
:102772007008F400790A86008701740881007008E5
:10278200F4007908023E860087017408810070080F
:10279200F40072087907F5007508FE3E860087018D
:1027A200740881007008F40072087907F500750852
:1027B200FD3E8600870174088100003073020730F5
:1027C200031972020318E62BE72BE82B342C70084E
:1027D200F4007908033E86008701740881007008BE
:1027E200F40072087907F5007508FC3E860087013F
:1027F2007408810000307302093003197202031851
:10280200032C042C052C342C7909F4007A09F500E8
:10281200F40A0319F50A03307405F6000030750551
:10282200F7007608F4007408F9077608F2027708D0
:10283200F33BFC30F205FF30F3052E2C7008F40058
:10284200790886008701740881000130F2020030A5
:10285200F33B0130F4007408F90772087304031D96
:10286200332C342C1F2C0800210012113D0093013F
:10287200900198010E30F2009930F100F3017108D5
:1028820086007208870081010130F1070030F23DB5
:102892000130F0007008F30773080319512C522C11
:1028A200402C16303D0091009F3097007B30920003
:1028B200F4017408F0000130F035FF3E031D5D2C79
:1028C2007035203E860087010030C03F0030C13F96
:1028D200C23FC33F0130F0007008F40708307402B1
:1028E200031C742C752C5A2C3D000E1796010E12E7
:1028F2000E13F730F000700890052100B001A90115
:10290200AA01AB013D009019872C882C7A2C01304A
:10291200F00070082100C6000130F0007008C50008
:10292200C401C301CA01F4017435653E8600870102
:102932000030C03FC13F7435B73E8600870100308A
:10294200C03FC13F7408BF3E860087018101740801
:10295200BD3E8600870181010130F0007008F40756
:1029620002307402031CB62CB72C952C28302000A0
:10297200E5000030E60016303D00980000302000EF
:10298200A3004030A2000830A1000430F00070081B
:10299200A000A0172100D1010030B6000030B50020
:1029A2000030B4000030B300C2012000EE01080084
:1029B200200040081F39013A0319E02CE12CE22CD7
:1029C2007D2D44080319E62CE72CE82C7D2D0630DA
:1029D2004106031DED2CEE2C232D102D2100510359
:1029E200031DF42CF52C232D9030AE009830AF004F
:1029F2000930B1000030B200C030F0007008B00001
:102A0200232D00302100AE009830AF004A30B100D3
:102A12000030B200C030F0007008B000232D43082F
:102A2200F000F1017108003A0319182D232D7008E6
:102A3200213A0319EF2C033A0319022D013A031923
:102A4200232D232D2000400E890C0339013A03194E
:102A52002B2D2C2D612D7D2DCF302100AE0000308D
:102A6200AF000130B1000030B200C130F000700898
:102A7200B0007D2D8030F00070082100B0002000F1
:102A82004308F00070082100CF007D2DCE302100D8
:102A9200AE000030AF000130B1000030B200813032
:102AA200F0007008B0007D2D8030F0007008210029
:102AB200B00020004208F00070082100CE007D2DF9
:102AC2004108F000F1017108003A0319692D7D2DCA
:102AD2007008013A03197D2D033A03192D2D013A8D
:102AE2000319472D0A3A03197D2D033A03193B2D89
:102AF200013A0319552D7D2D080020006E08031D93
:102B0200832D842D962D3D008E0192011630910069
:102B12009F3097007B3092008F2D8E158E1D922D47
:102B2200932D8E2D2000EE01EE0A6E03031D9A2DC9
:102B32009B2DA92D3D008E1A9F2DA02DA92D900110
:102B420092011214121602302000E2006208EE0016
:102B52003D00101DAD2DAE2DBB2D121DB12DB22D80
:102B6200BB2DFB302000E20062083D0090059B3146
:102B7200A12395313D008E1CBF2DC02DC32D2000F9
:102B82001211B12E101CC62DC72DD82D121CCA2D04
:102B9200CB2DD82D94313524953104302000E2001C
:102BA2006208EE00FE30E20062083D009005101E51
:102BB200DB2DDC2DE32D121EDF2DE02DE32D9B31CD
:102BC200842395313D00101FE72DE82D152E121F8D
:102BD200EB2DEC2DFC2D73302000D0000030D10005
:102BE2000030D2000030D3000130D4000030D500D4
:102BF2009C31F0249531BF302000E20062083D0094
:102C020090059B314B2395312100470803190A2E69
:102C12000B2E0D2E0130C7024708031D112E122E56
:102C2200152E9F310F2795313D00901E192E1A2E19
:102C3200212E921E1D2E1E2E212E9B31E823953110
:102C42003D00901C252E262E3C2E921C292E2A2E2B
:102C52003C2EFF302000D0007F30D1000030D20067
:102C62000030D3000130D4000030D5009C31F02474
:102C720095313D009301043020006E020318422E6C
:102C8200432E452E1211B12E3D00921D492E4A2E81
:102C9200AF2E2000E4013D00901D502E512EAF2E8C
:102CA2000F082000E2006208EF006F0CE200E20C65
:102CB200620C0F39E30063082100C900F7302000DD
:102CC200E20062083D00900520006F19692E6A2E0D
:102CD2007B2E21004908BD3E86008701010801398B
:102CE2002000E2000130E20601086206FE396206B7
:102CF20081008B2E21004908BF3E86008701010812
:102D020001392000E2000130E20601086206FE39C4
:102D12006206810021004908031D902E912E952EF6
:102D2200903110209531A42E72302000D000003056
:102D3200D1006F30D2000030D3000030D400D50073
:102D42009C31F024953101302000E2006208E40752
:102D520004306402031CAE2EAF2E4C2E2000121142
:102D6200080020004203031DB72EB82ECE2E4008C5
:102D72001F39003A031DBE2EBF2ECE2E2100B017E2
:102D8200033020004106031DC72EC82ECC2E210081
:102D9200CB01CB0ACE2E2100CB0120004208031D1D
:102DA200D32ED42EFF2F40081F39023A031DDA2EEC
:102DB200DB2EFF2F44080F39003A0319E12EE22ED1
:102DC200FF2F44080F39D600023056020318EA2EAC
:102DD200EB2EFF2F20306E06031DF02EF12EFF2F5B
:102DE2002100B0172000C41BF72EF82E0C2F440828
:102DF2000F390907B73E86008701403FDB00413F9C
:102E0200DC0044080F39BD3E860087010108D60068
:102E12005608DA001F2F44080F390907653E86005D
:102E22008701403FDB00413FDC0044080F39BF3ED1
:102E3200860087010108D6005608DA005A18222FA8
:102E4200232F2E2FFB30D600FF30D7005B0856050C
:102E5200DB005C085705DC00342F04305B04DB0028
:102E620000305C04DC00C41B372F382F432F44088A
:102E72000F390907B73E860087015B08C03F5C082F
:102E8200C13F4D2F44080F390907653E860087016F
:102E92005B08C03F5C08C13F03304106031D522F4F
:102EA200532F772F5B0886005C088700811F5A2FFB
:102EB2005B2F6C2FC41B5E2F5F2F662F44080F39C8
:102EC200BD3E8600870181146C2F44080F39BF3E36
:102ED2008600870181145B0886005C088700011563
:102EE2005B0886005C0887008117FF2F04305B06B1
:102EF200DB0000305C06DC005B0886005C088700B3
:102F0200811F842F852FA22F7F30D6005B08860079
:102F12005C088700560881055B0886005C0887000C
:102F220001170530D0000030D1005C08D3005B08E7
:102F3200D2000230D4000030D5009C31F02496310A
:102F4200A72F5B0886005C08870001170430200069
:102F52005B06DB0000305C06DC00DA18B12FB22F12
:102F6200BA2F5B0886005C088700811FB92FBA2F31
:102F7200E32FC41BBD2FBE2FC52F44080F39BD3E02
:102F8200860087018110CB2F44080F39BF3E86008F
:102F9200870181103B30D6005B0886005C08870001
:102FA200560881050530D0000030D1005C08D300FE
:102FB2005B08D2000230D4000030D5009C31F024EE
:102FC2009631EB2F3B30D6005B0886005C08870009
:102FD20056088105200044080F39983ED600D701D3
:102FE2000E30D73D5608D8005708D900FE30D6001B
:102FF20058088600590887005608810508000534DC
:10300200013409340534A134013415340034253433
:103012000134353400344534013475340134953487
:103022000D34053409341934013429340D34813412
:1030320002349534033481340134053401342534A7
:10304200073446343B340134753404349534013446
:1030520065341434093439348134423465340034EB
:1030620095340134813401342634FF34003446343B
:10307200FF34003409343034093431340934323401
:1030820009343534753408349534043481340234C7
:10309200C034343403344D3400346934003463347E
:1030A2000034723400346F340034633400346834D2
:1030B2000034693400347034003420340034543421
:1030C20000346534003463340034683400346E34C0
:1030D20000346F3400346C3400346F34003467349D
:1030E20000347934003420340034493400346E34EE
:1030F2000034633400342E34003409340234223470
:103102000034013401340034C0343234093404341C
:103112000034003401340334003400340034093400
:103122002134113401340034013422344A3400345D
:103132000734053481340334403400340134183404
:1031420003345334003446340034433400342034DE
:10315200003447340034613400346D340034653453
:103162000034703400346134003464340034123476
:103172000134003402340034003400340834D834CA
:1031820004348834E8340134003401340234003425
:103192000134D03498344A349834A0349834043406
:0A31A2000334093404347E349834F9
:10367A00FC302100C10541110800F000700803194F
:10368A00472B492B01304A2B00300800013021001A
:10369A00B3070030B43D0030B53D0030B63D4A08AE
:1036AA00031D582B592B662B0130F0007008C207F6
:1036BA004208031D612B622B662BFF30F000700855
:1036CA00C2000800F200702BFC30210099009030F3
:1036DA0027009B00832B7208F000F1017108003A61
:1036EA000319782B832B7008003A0319692B013AC6
:1036FA000319832B033A0319832B832B08003D00FC
:10370A001215EF302000D60056083D0090058E14A1
:10371A002100CA01CA0AC20175302000D000003057
:10372A00D1000030D2000030D3000030D400D500E0
:10373A009C31F0249B3108002100CA01743020001A
:10374A00D0000030D1000030D2000030D300003069
:10375A00D400D5009C31F0249B313D008E1012110B
:10376A00BC2BFB302000D60056083D0090051019EE
:10377A00BF2BC02BB62B2100C2010800FC00771D0D
:10378A00C72BC82BCD2BF0017C089D312C259B31F2
:10379A00F71CD02BD12BD72BF001F00A7C089D31D6
:1037AA002C259B317C08983EF800F9010E30F93D32
:1037BA007808FA007908FB007A0886007B088700F7
:1037CA007708810008003D00181CEC2BED2B0E2C0D
:1037DA0020006D088600870180300106031DF62B44
:1037EA00F72B0C2C650886006608870084300106D2
:1037FA00031D002C012C0C2C0C30F0006D088600E7
:10380A008701700881006D088600870181173D00D5
:10381A001810DF30F000700890050800F8007108F1
:10382A00F6007008F5007808F4007408F900342CE2
:10383A0075088600760887000108F4007408F70006
:10384A000130F5070030F63D7708F4007908860064
:10385A008701740881000130F4007408F907013007
:10386A00F2020030F33B720A031D3F2C730A031D58
:10387A003F2C402C1D2C0800023020006C06031D32
:10388A00472C482C4C2C8E31ED269C317A2CEC019D
:10389A0021004808031D522C532C792C200069085A
:1038AA00013EF60000306A3DF70076088600770888
:1038BA008700083081004030F6000030F7006908C0
:1038CA0086006A08870042317608C03F7708C13F00
:1038DA00690886006A0887000C308100690886003A
:1038EA006A08870081177A2CC801080000309B31CA
:1038FA0067239C31943135249C31303021008C006F
:10390A00F0308D00FF308E009513303024008C008B
:10391A00D0308D0023008C018D018E0107302100EB
:10392A00950495111512951215178B17053020005D
:10393A00950095317E259C31203020006E020318B7
:10394A00A72CA82CA92C9E2C3D008E1CAD2CAE2C8D
:10395A00AF2C9E2C9C31B5249C319E2C8C310C2C86
:10396A00203020006E020318BB2CBC2CBD2CEF2C7F
:10397A003D008E1CC12CC22CC32CEF2C21003B080D
:10398A003C040319C92CCA2CD22C3B0886003C08DB
:10399A008700811BD12CD22CEF2CA0308C31232410
:1039AA009C31F001F00AA030FA007A08F1000730E1
:1039BA00FB007B08F200013091315F219C317108D4
:1039CA002100BC007008BB00923166229C319E31F6
:1039DA0025269C310800032D01309B3167239C3139
:1039EA002B2D02309B3167239C312B2D90310120E6
:1039FA009C312B2D9431D9249C312B2D2000510838
:103A0A00003A03190C2D7F3A0319262D2B2D500845
:103A1A00013A0319FB2C033A03192B2D013A031916
:103A2A00FF2C063A03192B2D773A03192B2D013A4D
:103A3A0003192B2D073A0319F62C013A0319F12C15
:103A4A002B2D5008FF3A03192B2D2B2D0800F500BA
:103A5A002030F1007108F6007008F1000130F135EC
:103A6A00890B342D7508F2000130F235FF3E031D33
:103A7A003A2D72357107F3000130F335FF3E031D0D
:103A8A00422D7335F4007408F6077608860087011C
:103A9A0081137008031D522D532D5C2D7535B73EC9
:103AAA00860087017608C03F0030C13F642D753516
:103ABA00653E860087017608C03F0030C13F760820
:103ACA008600870101137608043E860087010117E4
:103ADA0008002100CD012000EB012100C401C3012F
:103AEA00C8012000EC017F30DF0065088600660807
:103AFA0087005F08810504306506E5000030660628
:103B0A00E6007F30DF0065088600660887005F08E8
:103B1A00810504306506E50000306606E6007F3060
:103B2A00DF00690886006A0887005F0881052100AE
:103B3A00B001B101B201A901AA01AB01903166201D
:103B4A009D3103302000D0000030D1000030D20077
:103B5A000030D3000030D400D5009C31F0249D31D0
:103B6A009231F3229D3108002000C801C901022EBA
:103B7A002100B0174B03031DC32DC42D162E2000A0
:103B8A00C814162E2100B017162E2100B0172000D7
:103B9A0044080F39003A0319D32DD42D162EC41B0D
:103BAA00D72DD82DE32D44080F390907B73E8600D3
:103BBA008701403FF200413FF300ED2D44080F39E1
:103BCA000907653E86008701403FF200413FF30046
:103BDA007208860073088700811FF42DF52D162EB2
:103BEA007208860073088700011DFC2DFD2D162E14
:103BFA000130F0007008C800162E40081F39F00086
:103C0A00F1017108003A03190B2E162E7008003ABA
:103C1A000319BD2D013A0319C72D033A0319CA2DF9
:103C2A00162E2100B01F1A2E1B2E242E4830AE004D
:103C3A000030AF0030140230F0007008B100080004
:103C4A0020000D0E890C890C01399B3142239E31CB
:103C5A00003A0319312E322E972E20000C0E01390C
:103C6A009B3142239E31003A03193C2E3D2E972E5A
:103C7A000B11053020009500F101F2017F2E0B1D7A
:103C8A00472E482E7F2E0130F1070030F23D0030DA
:103C9A007202FA3003197102031C542E552E7B2E20
:103CAA0003102100411D031403185C2E5F2E21000E
:103CBA004115612E21004111F101F20120000D0E82
:103CCA00890C890C01399B3142239E31003A031930
:103CDA006F2E702E7B2E20000C0E01399B31422351
:103CEA009E31003A031D7A2E7B2E632E0B1105306E
:103CFA002000950020000D0E890C890C01399B319A
:103D0A0042239E31003A03198B2E8C2E972E2000C7
:103D1A000C0E01399B3142239E31003A031D962E27
:103D2A00972E442E08000830F0007008F200003088
:103D3A00210032020830031931020318A52EA62EDB
:103D4A00BB2E3108F0007008F2004D08031DAE2E9C
:103D5A00AF2EB22ECD01CD0ABB2E4D03031DB62EBA
:103D6A00B72EBB2E0230F0007008CD007208F000AA
:103D7A00F1017008B1027108B23B20006508013EEA
:103D8A00F0000030663DF100700886007108870077
:103D9A00720881004830F00070082100CC00301809
:103DAA00D72ED82E092FEE2E2E0884002F08850034
:103DBA000008F0004C088600870170088100013075
:103DCA00AE070030AF3D0130F0007008CC0701307B
:103DDA00F2027208031DF22EF32ED92E0E2F2E0890
:103DEA0084002F0885000008F0004C08860087012F
:103DFA00700881000130AE070030AF3D0130F0009D
:103E0A007008CC070130F2027208031D0D2F0E2F25
:103E1A00F42E080021004608031D142F152F852FA4
:103E2A000130F0007008C6004508031D1D2F1E2F23
:103E3A00852F0130F0007008C500023020006C06A2
:103E4A00031D282F292F3B2F650886006608870047
:103E5A004131810165088600660887004830810083
:103E6A0065088600660887008117852F6C03031D85
:103E7A003F2F402F852F2100C8010830F000200075
:103E8A006D0A86008701700881004030F00000301A
:103E9A00F1006D08023E860087017008C03F710874
:103EAA00C13F0430F0006D08860087017008810068
:103EBA006D088600870181172100C801C80A200001
:103ECA006908013EF00000306A3DF1007008860082
:103EDA0071088700083081004030F0000030F1009E
:103EEA00690886006A08870042317008C03F710875
:103EFA00C13F690886006A08870080308100852FE3
:103F0A000800200065088600660887000030011B4B
:103F1A000130F50004306506E50000306606E6006B
:103F2A0008306E06031D9A2F9B2FAF2F42087F3948
:103F3A003D00960016080319A32FA42FAA2F1030AC
:103F4A00F30073082000EE00AF2F0430F30073086B
:103F5A002000EE006C03031DB32FB42FF72F483057
:103F6A00F3000030F40065088600660887004231D5
:103F7A007308C03F7408C13F9E3198269F310230B2
:103F8A0021004D06031DCA2FCB2FD82F200065080C
:103F9A008600660887000430810065088600660886
:103FAA0087008117FF2F7508031DDC2FDD2FEA2FED
:103FBA002000650886006608870048308100650889
:103FCA008600660887008117FF2F20006508860093
:103FDA006608870008308100650886006608870041
:103FEA008117FF2F2100A91FFB2FFC2FFD2FA913DB
:063FFA002000EC010800AC
:020000040001F9
:04000E00A40FCF1F4D
:00000001FF
